{
  "_format": "hh-sol-artifact-1",
  "contractName": "CountryLand",
  "sourceName": "contracts/CountryLand.sol",
  "abi": [
    {
      "inputs": [
        {
          "internalType": "string[]",
          "name": "characterNames",
          "type": "string[]"
        },
        {
          "internalType": "string[]",
          "name": "characterImageURIs",
          "type": "string[]"
        },
        {
          "internalType": "uint256[]",
          "name": "characterHp",
          "type": "uint256[]"
        },
        {
          "internalType": "uint256[]",
          "name": "characterAttackDmg",
          "type": "uint256[]"
        }
      ],
      "stateMutability": "nonpayable",
      "type": "constructor"
    },
    {
      "anonymous": false,
      "inputs": [
        {
          "indexed": true,
          "internalType": "address",
          "name": "owner",
          "type": "address"
        },
        {
          "indexed": true,
          "internalType": "address",
          "name": "approved",
          "type": "address"
        },
        {
          "indexed": true,
          "internalType": "uint256",
          "name": "tokenId",
          "type": "uint256"
        }
      ],
      "name": "Approval",
      "type": "event"
    },
    {
      "anonymous": false,
      "inputs": [
        {
          "indexed": true,
          "internalType": "address",
          "name": "owner",
          "type": "address"
        },
        {
          "indexed": true,
          "internalType": "address",
          "name": "operator",
          "type": "address"
        },
        {
          "indexed": false,
          "internalType": "bool",
          "name": "approved",
          "type": "bool"
        }
      ],
      "name": "ApprovalForAll",
      "type": "event"
    },
    {
      "anonymous": false,
      "inputs": [
        {
          "indexed": false,
          "internalType": "uint256",
          "name": "newBossHp",
          "type": "uint256"
        },
        {
          "indexed": false,
          "internalType": "uint256",
          "name": "newPlayerHp",
          "type": "uint256"
        }
      ],
      "name": "AttackComplete",
      "type": "event"
    },
    {
      "anonymous": false,
      "inputs": [
        {
          "indexed": false,
          "internalType": "address",
          "name": "sender",
          "type": "address"
        },
        {
          "indexed": false,
          "internalType": "uint256",
          "name": "tokenId",
          "type": "uint256"
        },
        {
          "indexed": false,
          "internalType": "uint256",
          "name": "characterIndex",
          "type": "uint256"
        }
      ],
      "name": "CharacterNFTMinted",
      "type": "event"
    },
    {
      "anonymous": false,
      "inputs": [
        {
          "indexed": true,
          "internalType": "address",
          "name": "from",
          "type": "address"
        },
        {
          "indexed": true,
          "internalType": "address",
          "name": "to",
          "type": "address"
        },
        {
          "indexed": true,
          "internalType": "uint256",
          "name": "tokenId",
          "type": "uint256"
        }
      ],
      "name": "Transfer",
      "type": "event"
    },
    {
      "inputs": [
        {
          "internalType": "address",
          "name": "to",
          "type": "address"
        },
        {
          "internalType": "uint256",
          "name": "tokenId",
          "type": "uint256"
        }
      ],
      "name": "approve",
      "outputs": [],
      "stateMutability": "nonpayable",
      "type": "function"
    },
    {
      "inputs": [
        {
          "internalType": "address",
          "name": "owner",
          "type": "address"
        }
      ],
      "name": "balanceOf",
      "outputs": [
        {
          "internalType": "uint256",
          "name": "",
          "type": "uint256"
        }
      ],
      "stateMutability": "view",
      "type": "function"
    },
    {
      "inputs": [],
      "name": "checkIfUserHasNFT",
      "outputs": [
        {
          "components": [
            {
              "internalType": "uint256",
              "name": "characterIndex",
              "type": "uint256"
            },
            {
              "internalType": "string",
              "name": "name",
              "type": "string"
            },
            {
              "internalType": "string",
              "name": "imageURI",
              "type": "string"
            },
            {
              "internalType": "uint256",
              "name": "hp",
              "type": "uint256"
            },
            {
              "internalType": "uint256",
              "name": "maxHp",
              "type": "uint256"
            },
            {
              "internalType": "uint256",
              "name": "attackDamage",
              "type": "uint256"
            }
          ],
          "internalType": "struct CountryLand.CharacterAttributes",
          "name": "",
          "type": "tuple"
        }
      ],
      "stateMutability": "view",
      "type": "function"
    },
    {
      "inputs": [],
      "name": "getAllDefaultCharacters",
      "outputs": [
        {
          "components": [
            {
              "internalType": "uint256",
              "name": "characterIndex",
              "type": "uint256"
            },
            {
              "internalType": "string",
              "name": "name",
              "type": "string"
            },
            {
              "internalType": "string",
              "name": "imageURI",
              "type": "string"
            },
            {
              "internalType": "uint256",
              "name": "hp",
              "type": "uint256"
            },
            {
              "internalType": "uint256",
              "name": "maxHp",
              "type": "uint256"
            },
            {
              "internalType": "uint256",
              "name": "attackDamage",
              "type": "uint256"
            }
          ],
          "internalType": "struct CountryLand.CharacterAttributes[]",
          "name": "",
          "type": "tuple[]"
        }
      ],
      "stateMutability": "view",
      "type": "function"
    },
    {
      "inputs": [
        {
          "internalType": "uint256",
          "name": "tokenId",
          "type": "uint256"
        }
      ],
      "name": "getApproved",
      "outputs": [
        {
          "internalType": "address",
          "name": "",
          "type": "address"
        }
      ],
      "stateMutability": "view",
      "type": "function"
    },
    {
      "inputs": [
        {
          "internalType": "address",
          "name": "owner",
          "type": "address"
        },
        {
          "internalType": "address",
          "name": "operator",
          "type": "address"
        }
      ],
      "name": "isApprovedForAll",
      "outputs": [
        {
          "internalType": "bool",
          "name": "",
          "type": "bool"
        }
      ],
      "stateMutability": "view",
      "type": "function"
    },
    {
      "inputs": [
        {
          "internalType": "uint256",
          "name": "_characterIndex",
          "type": "uint256"
        }
      ],
      "name": "mintCharacterNFT",
      "outputs": [],
      "stateMutability": "nonpayable",
      "type": "function"
    },
    {
      "inputs": [],
      "name": "name",
      "outputs": [
        {
          "internalType": "string",
          "name": "",
          "type": "string"
        }
      ],
      "stateMutability": "view",
      "type": "function"
    },
    {
      "inputs": [
        {
          "internalType": "uint256",
          "name": "",
          "type": "uint256"
        }
      ],
      "name": "nftHolderAttributes",
      "outputs": [
        {
          "internalType": "uint256",
          "name": "characterIndex",
          "type": "uint256"
        },
        {
          "internalType": "string",
          "name": "name",
          "type": "string"
        },
        {
          "internalType": "string",
          "name": "imageURI",
          "type": "string"
        },
        {
          "internalType": "uint256",
          "name": "hp",
          "type": "uint256"
        },
        {
          "internalType": "uint256",
          "name": "maxHp",
          "type": "uint256"
        },
        {
          "internalType": "uint256",
          "name": "attackDamage",
          "type": "uint256"
        }
      ],
      "stateMutability": "view",
      "type": "function"
    },
    {
      "inputs": [
        {
          "internalType": "address",
          "name": "",
          "type": "address"
        }
      ],
      "name": "nftHolders",
      "outputs": [
        {
          "internalType": "uint256",
          "name": "",
          "type": "uint256"
        }
      ],
      "stateMutability": "view",
      "type": "function"
    },
    {
      "inputs": [
        {
          "internalType": "uint256",
          "name": "tokenId",
          "type": "uint256"
        }
      ],
      "name": "ownerOf",
      "outputs": [
        {
          "internalType": "address",
          "name": "",
          "type": "address"
        }
      ],
      "stateMutability": "view",
      "type": "function"
    },
    {
      "inputs": [
        {
          "internalType": "address",
          "name": "from",
          "type": "address"
        },
        {
          "internalType": "address",
          "name": "to",
          "type": "address"
        },
        {
          "internalType": "uint256",
          "name": "tokenId",
          "type": "uint256"
        }
      ],
      "name": "safeTransferFrom",
      "outputs": [],
      "stateMutability": "nonpayable",
      "type": "function"
    },
    {
      "inputs": [
        {
          "internalType": "address",
          "name": "from",
          "type": "address"
        },
        {
          "internalType": "address",
          "name": "to",
          "type": "address"
        },
        {
          "internalType": "uint256",
          "name": "tokenId",
          "type": "uint256"
        },
        {
          "internalType": "bytes",
          "name": "_data",
          "type": "bytes"
        }
      ],
      "name": "safeTransferFrom",
      "outputs": [],
      "stateMutability": "nonpayable",
      "type": "function"
    },
    {
      "inputs": [
        {
          "internalType": "address",
          "name": "operator",
          "type": "address"
        },
        {
          "internalType": "bool",
          "name": "approved",
          "type": "bool"
        }
      ],
      "name": "setApprovalForAll",
      "outputs": [],
      "stateMutability": "nonpayable",
      "type": "function"
    },
    {
      "inputs": [
        {
          "internalType": "bytes4",
          "name": "interfaceId",
          "type": "bytes4"
        }
      ],
      "name": "supportsInterface",
      "outputs": [
        {
          "internalType": "bool",
          "name": "",
          "type": "bool"
        }
      ],
      "stateMutability": "view",
      "type": "function"
    },
    {
      "inputs": [],
      "name": "symbol",
      "outputs": [
        {
          "internalType": "string",
          "name": "",
          "type": "string"
        }
      ],
      "stateMutability": "view",
      "type": "function"
    },
    {
      "inputs": [
        {
          "internalType": "uint256",
          "name": "_tokenId",
          "type": "uint256"
        }
      ],
      "name": "tokenURI",
      "outputs": [
        {
          "internalType": "string",
          "name": "",
          "type": "string"
        }
      ],
      "stateMutability": "view",
      "type": "function"
    },
    {
      "inputs": [
        {
          "internalType": "address",
          "name": "from",
          "type": "address"
        },
        {
          "internalType": "address",
          "name": "to",
          "type": "address"
        },
        {
          "internalType": "uint256",
          "name": "tokenId",
          "type": "uint256"
        }
      ],
      "name": "transferFrom",
      "outputs": [],
      "stateMutability": "nonpayable",
      "type": "function"
    }
  ],
  "bytecode": "0x60806040523480156200001157600080fd5b5060405162004ac638038062004ac6833981810160405281019062000037919062000898565b6040518060400160405280600f81526020017f7068696c616e6420436f756e74727900000000000000000000000000000000008152506040518060400160405280600481526020017f50484943000000000000000000000000000000000000000000000000000000008152508160009080519060200190620000bb92919062000600565b508060019080519060200190620000d492919062000600565b50505060005b8451811015620004f35760076040518060c0016040528083815260200187848151811062000131577f4e487b7100000000000000000000000000000000000000000000000000000000600052603260045260246000fd5b6020026020010151815260200186848151811062000178577f4e487b7100000000000000000000000000000000000000000000000000000000600052603260045260246000fd5b60200260200101518152602001858481518110620001bf577f4e487b7100000000000000000000000000000000000000000000000000000000600052603260045260246000fd5b6020026020010151815260200185848151811062000206577f4e487b7100000000000000000000000000000000000000000000000000000000600052603260045260246000fd5b602002602001015181526020018484815181106200024d577f4e487b7100000000000000000000000000000000000000000000000000000000600052603260045260246000fd5b60200260200101518152509080600181540180825580915050600190039060005260206000209060060201600090919091909150600082015181600001556020820151816001019080519060200190620002a992919062000600565b506040820151816002019080519060200190620002c892919062000600565b50606082015181600301556080820151816004015560a08201518160050155505060006007828154811062000326577f4e487b7100000000000000000000000000000000000000000000000000000000600052603260045260246000fd5b90600052602060002090600602016040518060c0016040529081600082015481526020016001820180546200035b9062000b92565b80601f0160208091040260200160405190810160405280929190818152602001828054620003899062000b92565b8015620003da5780601f10620003ae57610100808354040283529160200191620003da565b820191906000526020600020905b815481529060010190602001808311620003bc57829003601f168201915b50505050508152602001600282018054620003f59062000b92565b80601f0160208091040260200160405190810160405280929190818152602001828054620004239062000b92565b8015620004745780601f10620004485761010080835404028352916020019162000474565b820191906000526020600020905b8154815290600101906020018083116200045657829003601f168201915b5050505050815260200160038201548152602001600482015481526020016005820154815250509050620004db60405180606001604052806025815260200162004aa1602591398260200151836060015184604001516200051560201b6200154f1760201c565b50600181620004eb919062000af5565b9050620000da565b506200050b6006620005c160201b620015f11760201c565b5050505062000cb6565b620005bb84848484604051602401620005329493929190620009ba565b6040516020818303038152906040527f8d142cdd000000000000000000000000000000000000000000000000000000007bffffffffffffffffffffffffffffffffffffffffffffffffffffffff19166020820180517bffffffffffffffffffffffffffffffffffffffffffffffffffffffff8381831617835250505050620005d760201b60201c565b50505050565b6001816000016000828254019250508190555050565b60008151905060006a636f6e736f6c652e6c6f679050602083016000808483855afa5050505050565b8280546200060e9062000b92565b90600052602060002090601f0160209004810192826200063257600085556200067e565b82601f106200064d57805160ff19168380011785556200067e565b828001600101855582156200067e579182015b828111156200067d57825182559160200191906001019062000660565b5b5090506200068d919062000691565b5090565b5b80821115620006ac57600081600090555060010162000692565b5090565b6000620006c7620006c18462000a45565b62000a1c565b90508083825260208201905082856020860282011115620006e757600080fd5b60005b858110156200073657815167ffffffffffffffff8111156200070b57600080fd5b8086016200071a898262000854565b85526020850194506020840193505050600181019050620006ea565b5050509392505050565b600062000757620007518462000a74565b62000a1c565b905080838252602082019050828560208602820111156200077757600080fd5b60005b85811015620007ab578162000790888262000881565b8452602084019350602083019250506001810190506200077a565b5050509392505050565b6000620007cc620007c68462000aa3565b62000a1c565b905082815260208101848484011115620007e557600080fd5b620007f284828562000b5c565b509392505050565b600082601f8301126200080c57600080fd5b81516200081e848260208601620006b0565b91505092915050565b600082601f8301126200083957600080fd5b81516200084b84826020860162000740565b91505092915050565b600082601f8301126200086657600080fd5b815162000878848260208601620007b5565b91505092915050565b600081519050620008928162000c9c565b92915050565b60008060008060808587031215620008af57600080fd5b600085015167ffffffffffffffff811115620008ca57600080fd5b620008d887828801620007fa565b945050602085015167ffffffffffffffff811115620008f657600080fd5b6200090487828801620007fa565b935050604085015167ffffffffffffffff8111156200092257600080fd5b620009308782880162000827565b925050606085015167ffffffffffffffff8111156200094e57600080fd5b6200095c8782880162000827565b91505092959194509250565b6000620009758262000ad9565b62000981818562000ae4565b93506200099381856020860162000b5c565b6200099e8162000c8b565b840191505092915050565b620009b48162000b52565b82525050565b60006080820190508181036000830152620009d6818762000968565b90508181036020830152620009ec818662000968565b9050620009fd6040830185620009a9565b818103606083015262000a11818462000968565b905095945050505050565b600062000a2862000a3b565b905062000a36828262000bc8565b919050565b6000604051905090565b600067ffffffffffffffff82111562000a635762000a6262000c5c565b5b602082029050602081019050919050565b600067ffffffffffffffff82111562000a925762000a9162000c5c565b5b602082029050602081019050919050565b600067ffffffffffffffff82111562000ac15762000ac062000c5c565b5b62000acc8262000c8b565b9050602081019050919050565b600081519050919050565b600082825260208201905092915050565b600062000b028262000b52565b915062000b0f8362000b52565b9250827fffffffffffffffffffffffffffffffffffffffffffffffffffffffffffffffff0382111562000b475762000b4662000bfe565b5b828201905092915050565b6000819050919050565b60005b8381101562000b7c57808201518184015260208101905062000b5f565b8381111562000b8c576000848401525b50505050565b6000600282049050600182168062000bab57607f821691505b6020821081141562000bc25762000bc162000c2d565b5b50919050565b62000bd38262000c8b565b810181811067ffffffffffffffff8211171562000bf55762000bf462000c5c565b5b80604052505050565b7f4e487b7100000000000000000000000000000000000000000000000000000000600052601160045260246000fd5b7f4e487b7100000000000000000000000000000000000000000000000000000000600052602260045260246000fd5b7f4e487b7100000000000000000000000000000000000000000000000000000000600052604160045260246000fd5b6000601f19601f8301169050919050565b62000ca78162000b52565b811462000cb357600080fd5b50565b613ddb8062000cc66000396000f3fe608060405234801561001057600080fd5b50600436106101165760003560e01c806395d89b41116100a2578063b953084e11610071578063b953084e14610308578063c87b56dd14610326578063c8cf27f414610356578063e985e9c514610374578063f8b81ef7146103a457610116565b806395d89b411461027d57806398da4c951461029b578063a22cb465146102d0578063b88d4fde146102ec57610116565b806323b872dd116100e957806323b872dd146101b557806342842e0e146101d15780636352211e146101ed57806370a082311461021d5780637df124a11461024d57610116565b806301ffc9a71461011b57806306fdde031461014b578063081812fc14610169578063095ea7b314610199575b600080fd5b61013560048036038101906101309190612829565b6103c0565b6040516101429190612fcb565b60405180910390f35b6101536104a2565b6040516101609190612fe6565b60405180910390f35b610183600480360381019061017e919061287b565b610534565b6040516101909190612f0b565b60405180910390f35b6101b360048036038101906101ae91906127ed565b6105b9565b005b6101cf60048036038101906101ca91906126e7565b6106d1565b005b6101eb60048036038101906101e691906126e7565b610731565b005b6102076004803603810190610202919061287b565b610751565b6040516102149190612f0b565b60405180910390f35b61023760048036038101906102329190612682565b610803565b6040516102449190613262565b60405180910390f35b61026760048036038101906102629190612682565b6108bb565b6040516102749190613262565b60405180910390f35b6102856108d3565b6040516102929190612fe6565b60405180910390f35b6102b560048036038101906102b0919061287b565b610965565b6040516102c79695949392919061327d565b60405180910390f35b6102ea60048036038101906102e591906127b1565b610ab1565b005b61030660048036038101906103019190612736565b610ac7565b005b610310610b29565b60405161031d9190612fa9565b60405180910390f35b610340600480360381019061033b919061287b565b610cd4565b60405161034d9190612fe6565b60405180910390f35b61035e610eef565b60405161036b9190613240565b60405180910390f35b61038e600480360381019061038991906126ab565b6110c7565b60405161039b9190612fcb565b60405180910390f35b6103be60048036038101906103b9919061287b565b61115b565b005b60007f80ac58cd000000000000000000000000000000000000000000000000000000007bffffffffffffffffffffffffffffffffffffffffffffffffffffffff1916827bffffffffffffffffffffffffffffffffffffffffffffffffffffffff1916148061048b57507f5b5e139f000000000000000000000000000000000000000000000000000000007bffffffffffffffffffffffffffffffffffffffffffffffffffffffff1916827bffffffffffffffffffffffffffffffffffffffffffffffffffffffff1916145b8061049b575061049a82611607565b5b9050919050565b6060600080546104b19061359a565b80601f01602080910402602001604051908101604052809291908181526020018280546104dd9061359a565b801561052a5780601f106104ff5761010080835404028352916020019161052a565b820191906000526020600020905b81548152906001019060200180831161050d57829003601f168201915b5050505050905090565b600061053f82611671565b61057e576040517f08c379a0000000000000000000000000000000000000000000000000000000008152600401610575906131c0565b60405180910390fd5b6004600083815260200190815260200160002060009054906101000a900473ffffffffffffffffffffffffffffffffffffffff169050919050565b60006105c482610751565b90508073ffffffffffffffffffffffffffffffffffffffff168373ffffffffffffffffffffffffffffffffffffffff161415610635576040517f08c379a000000000000000000000000000000000000000000000000000000000815260040161062c90613200565b60405180910390fd5b8073ffffffffffffffffffffffffffffffffffffffff166106546116dd565b73ffffffffffffffffffffffffffffffffffffffff16148061068357506106828161067d6116dd565b6110c7565b5b6106c2576040517f08c379a00000000000000000000000000000000000000000000000000000000081526004016106b990613140565b60405180910390fd5b6106cc83836116e5565b505050565b6106e26106dc6116dd565b8261179e565b610721576040517f08c379a000000000000000000000000000000000000000000000000000000000815260040161071890613220565b60405180910390fd5b61072c83838361187c565b505050565b61074c83838360405180602001604052806000815250610ac7565b505050565b6000806002600084815260200190815260200160002060009054906101000a900473ffffffffffffffffffffffffffffffffffffffff169050600073ffffffffffffffffffffffffffffffffffffffff168173ffffffffffffffffffffffffffffffffffffffff1614156107fa576040517f08c379a00000000000000000000000000000000000000000000000000000000081526004016107f190613180565b60405180910390fd5b80915050919050565b60008073ffffffffffffffffffffffffffffffffffffffff168273ffffffffffffffffffffffffffffffffffffffff161415610874576040517f08c379a000000000000000000000000000000000000000000000000000000000815260040161086b90613160565b60405180910390fd5b600360008373ffffffffffffffffffffffffffffffffffffffff1673ffffffffffffffffffffffffffffffffffffffff168152602001908152602001600020549050919050565b60096020528060005260406000206000915090505481565b6060600180546108e29061359a565b80601f016020809104026020016040519081016040528092919081815260200182805461090e9061359a565b801561095b5780601f106109305761010080835404028352916020019161095b565b820191906000526020600020905b81548152906001019060200180831161093e57829003601f168201915b5050505050905090565b600860205280600052604060002060009150905080600001549080600101805461098e9061359a565b80601f01602080910402602001604051908101604052809291908181526020018280546109ba9061359a565b8015610a075780601f106109dc57610100808354040283529160200191610a07565b820191906000526020600020905b8154815290600101906020018083116109ea57829003601f168201915b505050505090806002018054610a1c9061359a565b80601f0160208091040260200160405190810160405280929190818152602001828054610a489061359a565b8015610a955780601f10610a6a57610100808354040283529160200191610a95565b820191906000526020600020905b815481529060010190602001808311610a7857829003601f168201915b5050505050908060030154908060040154908060050154905086565b610ac3610abc6116dd565b8383611ad8565b5050565b610ad8610ad26116dd565b8361179e565b610b17576040517f08c379a0000000000000000000000000000000000000000000000000000000008152600401610b0e90613220565b60405180910390fd5b610b2384848484611c45565b50505050565b60606007805480602002602001604051908101604052809291908181526020016000905b82821015610ccb57838290600052602060002090600602016040518060c001604052908160008201548152602001600182018054610b8a9061359a565b80601f0160208091040260200160405190810160405280929190818152602001828054610bb69061359a565b8015610c035780601f10610bd857610100808354040283529160200191610c03565b820191906000526020600020905b815481529060010190602001808311610be657829003601f168201915b50505050508152602001600282018054610c1c9061359a565b80601f0160208091040260200160405190810160405280929190818152602001828054610c489061359a565b8015610c955780601f10610c6a57610100808354040283529160200191610c95565b820191906000526020600020905b815481529060010190602001808311610c7857829003601f168201915b50505050508152602001600382015481526020016004820154815260200160058201548152505081526020019060010190610b4d565b50505050905090565b60606000600860008481526020019081526020016000206040518060c001604052908160008201548152602001600182018054610d109061359a565b80601f0160208091040260200160405190810160405280929190818152602001828054610d3c9061359a565b8015610d895780601f10610d5e57610100808354040283529160200191610d89565b820191906000526020600020905b815481529060010190602001808311610d6c57829003601f168201915b50505050508152602001600282018054610da29061359a565b80601f0160208091040260200160405190810160405280929190818152602001828054610dce9061359a565b8015610e1b5780601f10610df057610100808354040283529160200191610e1b565b820191906000526020600020905b815481529060010190602001808311610dfe57829003601f168201915b50505050508152602001600382015481526020016004820154815260200160058201548152505090506000610e538260600151611ca1565b90506000610e648360800151611ca1565b90506000610e758460a00151611ca1565b90506000610ebb8560200151610e8a89611ca1565b8760400151878787604051602001610ea796959493929190612e44565b604051602081830303815290604052611e4e565b9050600081604051602001610ed09190612ee9565b6040516020818303038152906040529050809650505050505050919050565b610ef76124d8565b6000600960003373ffffffffffffffffffffffffffffffffffffffff1673ffffffffffffffffffffffffffffffffffffffff16815260200190815260200160002054905060008111156110b657600860008281526020019081526020016000206040518060c001604052908160008201548152602001600182018054610f7c9061359a565b80601f0160208091040260200160405190810160405280929190818152602001828054610fa89061359a565b8015610ff55780601f10610fca57610100808354040283529160200191610ff5565b820191906000526020600020905b815481529060010190602001808311610fd857829003601f168201915b5050505050815260200160028201805461100e9061359a565b80601f016020809104026020016040519081016040528092919081815260200182805461103a9061359a565b80156110875780601f1061105c57610100808354040283529160200191611087565b820191906000526020600020905b81548152906001019060200180831161106a57829003601f168201915b5050505050815260200160038201548152602001600482015481526020016005820154815250509150506110c4565b6110be6124d8565b80925050505b90565b6000600560008473ffffffffffffffffffffffffffffffffffffffff1673ffffffffffffffffffffffffffffffffffffffff16815260200190815260200160002060008373ffffffffffffffffffffffffffffffffffffffff1673ffffffffffffffffffffffffffffffffffffffff16815260200190815260200160002060009054906101000a900460ff16905092915050565b6000611167600661200c565b9050611173338261201a565b6040518060c00160405280838152602001600784815481106111be577f4e487b7100000000000000000000000000000000000000000000000000000000600052603260045260246000fd5b906000526020600020906006020160010180546111da9061359a565b80601f01602080910402602001604051908101604052809291908181526020018280546112069061359a565b80156112535780601f1061122857610100808354040283529160200191611253565b820191906000526020600020905b81548152906001019060200180831161123657829003601f168201915b5050505050815260200160078481548110611297577f4e487b7100000000000000000000000000000000000000000000000000000000600052603260045260246000fd5b906000526020600020906006020160020180546112b39061359a565b80601f01602080910402602001604051908101604052809291908181526020018280546112df9061359a565b801561132c5780601f106113015761010080835404028352916020019161132c565b820191906000526020600020905b81548152906001019060200180831161130f57829003601f168201915b5050505050815260200160078481548110611370577f4e487b7100000000000000000000000000000000000000000000000000000000600052603260045260246000fd5b9060005260206000209060060201600301548152602001600784815481106113c1577f4e487b7100000000000000000000000000000000000000000000000000000000600052603260045260246000fd5b906000526020600020906006020160040154815260200160078481548110611412577f4e487b7100000000000000000000000000000000000000000000000000000000600052603260045260246000fd5b9060005260206000209060060201600501548152506008600083815260200190815260200160002060008201518160000155602082015181600101908051906020019061146092919061250e565b50604082015181600201908051906020019061147d92919061250e565b50606082015181600301556080820151816004015560a082015181600501559050506114c26040518060600160405280602e8152602001613d78602e91398284612038565b80600960003373ffffffffffffffffffffffffffffffffffffffff1673ffffffffffffffffffffffffffffffffffffffff1681526020019081526020016000208190555061151060066115f1565b7f4bc303fd457a97b4691b9af582ce71868a3d258638c8d4f8c60988a0f0bfb8cd33828460405161154393929190612f72565b60405180910390a15050565b6115eb848484846040516024016115699493929190613008565b6040516020818303038152906040527f8d142cdd000000000000000000000000000000000000000000000000000000007bffffffffffffffffffffffffffffffffffffffffffffffffffffffff19166020820180517bffffffffffffffffffffffffffffffffffffffffffffffffffffffff83818316178352505050506120d7565b50505050565b6001816000016000828254019250508190555050565b60007f01ffc9a7000000000000000000000000000000000000000000000000000000007bffffffffffffffffffffffffffffffffffffffffffffffffffffffff1916827bffffffffffffffffffffffffffffffffffffffffffffffffffffffff1916149050919050565b60008073ffffffffffffffffffffffffffffffffffffffff166002600084815260200190815260200160002060009054906101000a900473ffffffffffffffffffffffffffffffffffffffff1673ffffffffffffffffffffffffffffffffffffffff1614159050919050565b600033905090565b816004600083815260200190815260200160002060006101000a81548173ffffffffffffffffffffffffffffffffffffffff021916908373ffffffffffffffffffffffffffffffffffffffff160217905550808273ffffffffffffffffffffffffffffffffffffffff1661175883610751565b73ffffffffffffffffffffffffffffffffffffffff167f8c5be1e5ebec7d5bd14f71427d1e84f3dd0314c0f7b2291e5b200ac8c7c3b92560405160405180910390a45050565b60006117a982611671565b6117e8576040517f08c379a00000000000000000000000000000000000000000000000000000000081526004016117df90613120565b60405180910390fd5b60006117f383610751565b90508073ffffffffffffffffffffffffffffffffffffffff168473ffffffffffffffffffffffffffffffffffffffff16148061186257508373ffffffffffffffffffffffffffffffffffffffff1661184a84610534565b73ffffffffffffffffffffffffffffffffffffffff16145b80611873575061187281856110c7565b5b91505092915050565b8273ffffffffffffffffffffffffffffffffffffffff1661189c82610751565b73ffffffffffffffffffffffffffffffffffffffff16146118f2576040517f08c379a00000000000000000000000000000000000000000000000000000000081526004016118e9906131e0565b60405180910390fd5b600073ffffffffffffffffffffffffffffffffffffffff168273ffffffffffffffffffffffffffffffffffffffff161415611962576040517f08c379a0000000000000000000000000000000000000000000000000000000008152600401611959906130e0565b60405180910390fd5b61196d838383612100565b6119786000826116e5565b6001600360008573ffffffffffffffffffffffffffffffffffffffff1673ffffffffffffffffffffffffffffffffffffffff16815260200190815260200160002060008282546119c891906134b0565b925050819055506001600360008473ffffffffffffffffffffffffffffffffffffffff1673ffffffffffffffffffffffffffffffffffffffff1681526020019081526020016000206000828254611a1f91906133cf565b92505081905550816002600083815260200190815260200160002060006101000a81548173ffffffffffffffffffffffffffffffffffffffff021916908373ffffffffffffffffffffffffffffffffffffffff160217905550808273ffffffffffffffffffffffffffffffffffffffff168473ffffffffffffffffffffffffffffffffffffffff167fddf252ad1be2c89b69c2b068fc378daa952ba7f163c4a11628f55a4df523b3ef60405160405180910390a4505050565b8173ffffffffffffffffffffffffffffffffffffffff168373ffffffffffffffffffffffffffffffffffffffff161415611b47576040517f08c379a0000000000000000000000000000000000000000000000000000000008152600401611b3e90613100565b60405180910390fd5b80600560008573ffffffffffffffffffffffffffffffffffffffff1673ffffffffffffffffffffffffffffffffffffffff16815260200190815260200160002060008473ffffffffffffffffffffffffffffffffffffffff1673ffffffffffffffffffffffffffffffffffffffff16815260200190815260200160002060006101000a81548160ff0219169083151502179055508173ffffffffffffffffffffffffffffffffffffffff168373ffffffffffffffffffffffffffffffffffffffff167f17307eab39ab6107e8899845ad3d59bd9653f200f220920489ca2b5937696c3183604051611c389190612fcb565b60405180910390a3505050565b611c5084848461187c565b611c5c84848484612105565b611c9b576040517f08c379a0000000000000000000000000000000000000000000000000000000008152600401611c92906130a0565b60405180910390fd5b50505050565b60606000821415611ce9576040518060400160405280600181526020017f30000000000000000000000000000000000000000000000000000000000000008152509050611e49565b600082905060005b60008214611d1b578080611d04906135fd565b915050600a82611d149190613425565b9150611cf1565b60008167ffffffffffffffff811115611d5d577f4e487b7100000000000000000000000000000000000000000000000000000000600052604160045260246000fd5b6040519080825280601f01601f191660200182016040528015611d8f5781602001600182028036833780820191505090505b5090505b60008514611e4257600182611da891906134b0565b9150600a85611db79190613646565b6030611dc391906133cf565b60f81b818381518110611dff577f4e487b7100000000000000000000000000000000000000000000000000000000600052603260045260246000fd5b60200101907effffffffffffffffffffffffffffffffffffffffffffffffffffffffffffff1916908160001a905350600a85611e3b9190613425565b9450611d93565b8093505050505b919050565b60606000825190506000811415611e775760405180602001604052806000815250915050612007565b60006003600283611e8891906133cf565b611e929190613425565b6004611e9e9190613456565b90506000602082611eaf91906133cf565b67ffffffffffffffff811115611eee577f4e487b7100000000000000000000000000000000000000000000000000000000600052604160045260246000fd5b6040519080825280601f01601f191660200182016040528015611f205781602001600182028036833780820191505090505b5090506000604051806060016040528060408152602001613d38604091399050600181016020830160005b86811015611fc45760038101905062ffffff818a015116603f8160121c168401518060081b905060ff603f83600c1c1686015116810190508060081b905060ff603f8360061c1686015116810190508060081b905060ff603f831686015116810190508060e01b90508084526004840193505050611f4b565b506003860660018114611fde5760028114611fee57611ff9565b613d3d60f01b6002830352611ff9565b603d60f81b60018303525b508484525050819450505050505b919050565b600081600001549050919050565b61203482826040518060200160405280600081525061229c565b5050565b6120d283838360405160240161205093929190613062565b6040516020818303038152906040527f969cdd03000000000000000000000000000000000000000000000000000000007bffffffffffffffffffffffffffffffffffffffffffffffffffffffff19166020820180517bffffffffffffffffffffffffffffffffffffffffffffffffffffffff83818316178352505050506120d7565b505050565b60008151905060006a636f6e736f6c652e6c6f679050602083016000808483855afa5050505050565b505050565b60006121268473ffffffffffffffffffffffffffffffffffffffff166122f7565b1561228f578373ffffffffffffffffffffffffffffffffffffffff1663150b7a0261214f6116dd565b8786866040518563ffffffff1660e01b81526004016121719493929190612f26565b602060405180830381600087803b15801561218b57600080fd5b505af19250505080156121bc57506040513d601f19601f820116820180604052508101906121b99190612852565b60015b61223f573d80600081146121ec576040519150601f19603f3d011682016040523d82523d6000602084013e6121f1565b606091505b50600081511415612237576040517f08c379a000000000000000000000000000000000000000000000000000000000815260040161222e906130a0565b60405180910390fd5b805181602001fd5b63150b7a0260e01b7bffffffffffffffffffffffffffffffffffffffffffffffffffffffff1916817bffffffffffffffffffffffffffffffffffffffffffffffffffffffff191614915050612294565b600190505b949350505050565b6122a6838361230a565b6122b36000848484612105565b6122f2576040517f08c379a00000000000000000000000000000000000000000000000000000000081526004016122e9906130a0565b60405180910390fd5b505050565b600080823b905060008111915050919050565b600073ffffffffffffffffffffffffffffffffffffffff168273ffffffffffffffffffffffffffffffffffffffff16141561237a576040517f08c379a0000000000000000000000000000000000000000000000000000000008152600401612371906131a0565b60405180910390fd5b61238381611671565b156123c3576040517f08c379a00000000000000000000000000000000000000000000000000000000081526004016123ba906130c0565b60405180910390fd5b6123cf60008383612100565b6001600360008473ffffffffffffffffffffffffffffffffffffffff1673ffffffffffffffffffffffffffffffffffffffff168152602001908152602001600020600082825461241f91906133cf565b92505081905550816002600083815260200190815260200160002060006101000a81548173ffffffffffffffffffffffffffffffffffffffff021916908373ffffffffffffffffffffffffffffffffffffffff160217905550808273ffffffffffffffffffffffffffffffffffffffff16600073ffffffffffffffffffffffffffffffffffffffff167fddf252ad1be2c89b69c2b068fc378daa952ba7f163c4a11628f55a4df523b3ef60405160405180910390a45050565b6040518060c001604052806000815260200160608152602001606081526020016000815260200160008152602001600081525090565b82805461251a9061359a565b90600052602060002090601f01602090048101928261253c5760008555612583565b82601f1061255557805160ff1916838001178555612583565b82800160010185558215612583579182015b82811115612582578251825591602001919060010190612567565b5b5090506125909190612594565b5090565b5b808211156125ad576000816000905550600101612595565b5090565b60006125c46125bf84613311565b6132ec565b9050828152602081018484840111156125dc57600080fd5b6125e7848285613558565b509392505050565b6000813590506125fe81613cdb565b92915050565b60008135905061261381613cf2565b92915050565b60008135905061262881613d09565b92915050565b60008151905061263d81613d09565b92915050565b600082601f83011261265457600080fd5b81356126648482602086016125b1565b91505092915050565b60008135905061267c81613d20565b92915050565b60006020828403121561269457600080fd5b60006126a2848285016125ef565b91505092915050565b600080604083850312156126be57600080fd5b60006126cc858286016125ef565b92505060206126dd858286016125ef565b9150509250929050565b6000806000606084860312156126fc57600080fd5b600061270a868287016125ef565b935050602061271b868287016125ef565b925050604061272c8682870161266d565b9150509250925092565b6000806000806080858703121561274c57600080fd5b600061275a878288016125ef565b945050602061276b878288016125ef565b935050604061277c8782880161266d565b925050606085013567ffffffffffffffff81111561279957600080fd5b6127a587828801612643565b91505092959194509250565b600080604083850312156127c457600080fd5b60006127d2858286016125ef565b92505060206127e385828601612604565b9150509250929050565b6000806040838503121561280057600080fd5b600061280e858286016125ef565b925050602061281f8582860161266d565b9150509250929050565b60006020828403121561283b57600080fd5b600061284984828501612619565b91505092915050565b60006020828403121561286457600080fd5b60006128728482850161262e565b91505092915050565b60006020828403121561288d57600080fd5b600061289b8482850161266d565b91505092915050565b60006128b08383612d06565b905092915050565b6128c1816134e4565b82525050565b60006128d282613352565b6128dc8185613380565b9350836020820285016128ee85613342565b8060005b8581101561292a578484038952815161290b85826128a4565b945061291683613373565b925060208a019950506001810190506128f2565b50829750879550505050505092915050565b612945816134f6565b82525050565b60006129568261335d565b6129608185613391565b9350612970818560208601613567565b61297981613733565b840191505092915050565b600061298f82613368565b61299981856133a2565b93506129a9818560208601613567565b6129b281613733565b840191505092915050565b60006129c882613368565b6129d281856133b3565b93506129e2818560208601613567565b6129eb81613733565b840191505092915050565b6000612a0182613368565b612a0b81856133c4565b9350612a1b818560208601613567565b80840191505092915050565b6000612a34600b836133c4565b9150612a3f82613744565b600b82019050919050565b6000612a576032836133b3565b9150612a628261376d565b604082019050919050565b6000612a7a601c836133b3565b9150612a85826137bc565b602082019050919050565b6000612a9d600e836133c4565b9150612aa8826137e5565b600e82019050919050565b6000612ac06024836133b3565b9150612acb8261380e565b604082019050919050565b6000612ae36019836133b3565b9150612aee8261385d565b602082019050919050565b6000612b06602c836133b3565b9150612b1182613886565b604082019050919050565b6000612b296038836133b3565b9150612b34826138d5565b604082019050919050565b6000612b4c602a836133b3565b9150612b5782613924565b604082019050919050565b6000612b6f6029836133b3565b9150612b7a82613973565b604082019050919050565b6000612b926062836133c4565b9150612b9d826139c2565b606282019050919050565b6000612bb56004836133c4565b9150612bc082613a5d565b600482019050919050565b6000612bd86020836133b3565b9150612be382613a86565b602082019050919050565b6000612bfb602c836133b3565b9150612c0682613aaf565b604082019050919050565b6000612c1e6029836133b3565b9150612c2982613afe565b604082019050919050565b6000612c41600a836133c4565b9150612c4c82613b4d565b600a82019050919050565b6000612c646021836133b3565b9150612c6f82613b76565b604082019050919050565b6000612c87601d836133c4565b9150612c9282613bc5565b601d82019050919050565b6000612caa6031836133b3565b9150612cb582613bee565b604082019050919050565b6000612ccd603d836133c4565b9150612cd882613c3d565b603d82019050919050565b6000612cf0602d836133c4565b9150612cfb82613c8c565b602d82019050919050565b600060c083016000830151612d1e6000860182612e26565b5060208301518482036020860152612d368282612984565b91505060408301518482036040860152612d508282612984565b9150506060830151612d656060860182612e26565b506080830151612d786080860182612e26565b5060a0830151612d8b60a0860182612e26565b508091505092915050565b600060c083016000830151612dae6000860182612e26565b5060208301518482036020860152612dc68282612984565b91505060408301518482036040860152612de08282612984565b9150506060830151612df56060860182612e26565b506080830151612e086080860182612e26565b5060a0830151612e1b60a0860182612e26565b508091505092915050565b612e2f8161354e565b82525050565b612e3e8161354e565b82525050565b6000612e4f82612c34565b9150612e5b82896129f6565b9150612e6682612a27565b9150612e7282886129f6565b9150612e7d82612b85565b9150612e8982876129f6565b9150612e9482612cc0565b9150612ea082866129f6565b9150612eab82612a90565b9150612eb782856129f6565b9150612ec282612ce3565b9150612ece82846129f6565b9150612ed982612ba8565b9150819050979650505050505050565b6000612ef482612c7a565b9150612f0082846129f6565b915081905092915050565b6000602082019050612f2060008301846128b8565b92915050565b6000608082019050612f3b60008301876128b8565b612f4860208301866128b8565b612f556040830185612e35565b8181036060830152612f67818461294b565b905095945050505050565b6000606082019050612f8760008301866128b8565b612f946020830185612e35565b612fa16040830184612e35565b949350505050565b60006020820190508181036000830152612fc381846128c7565b905092915050565b6000602082019050612fe0600083018461293c565b92915050565b6000602082019050818103600083015261300081846129bd565b905092915050565b6000608082019050818103600083015261302281876129bd565b9050818103602083015261303681866129bd565b90506130456040830185612e35565b818103606083015261305781846129bd565b905095945050505050565b6000606082019050818103600083015261307c81866129bd565b905061308b6020830185612e35565b6130986040830184612e35565b949350505050565b600060208201905081810360008301526130b981612a4a565b9050919050565b600060208201905081810360008301526130d981612a6d565b9050919050565b600060208201905081810360008301526130f981612ab3565b9050919050565b6000602082019050818103600083015261311981612ad6565b9050919050565b6000602082019050818103600083015261313981612af9565b9050919050565b6000602082019050818103600083015261315981612b1c565b9050919050565b6000602082019050818103600083015261317981612b3f565b9050919050565b6000602082019050818103600083015261319981612b62565b9050919050565b600060208201905081810360008301526131b981612bcb565b9050919050565b600060208201905081810360008301526131d981612bee565b9050919050565b600060208201905081810360008301526131f981612c11565b9050919050565b6000602082019050818103600083015261321981612c57565b9050919050565b6000602082019050818103600083015261323981612c9d565b9050919050565b6000602082019050818103600083015261325a8184612d96565b905092915050565b60006020820190506132776000830184612e35565b92915050565b600060c0820190506132926000830189612e35565b81810360208301526132a481886129bd565b905081810360408301526132b881876129bd565b90506132c76060830186612e35565b6132d46080830185612e35565b6132e160a0830184612e35565b979650505050505050565b60006132f6613307565b905061330282826135cc565b919050565b6000604051905090565b600067ffffffffffffffff82111561332c5761332b613704565b5b61333582613733565b9050602081019050919050565b6000819050602082019050919050565b600081519050919050565b600081519050919050565b600081519050919050565b6000602082019050919050565b600082825260208201905092915050565b600082825260208201905092915050565b600082825260208201905092915050565b600082825260208201905092915050565b600081905092915050565b60006133da8261354e565b91506133e58361354e565b9250827fffffffffffffffffffffffffffffffffffffffffffffffffffffffffffffffff0382111561341a57613419613677565b5b828201905092915050565b60006134308261354e565b915061343b8361354e565b92508261344b5761344a6136a6565b5b828204905092915050565b60006134618261354e565b915061346c8361354e565b9250817fffffffffffffffffffffffffffffffffffffffffffffffffffffffffffffffff04831182151516156134a5576134a4613677565b5b828202905092915050565b60006134bb8261354e565b91506134c68361354e565b9250828210156134d9576134d8613677565b5b828203905092915050565b60006134ef8261352e565b9050919050565b60008115159050919050565b60007fffffffff0000000000000000000000000000000000000000000000000000000082169050919050565b600073ffffffffffffffffffffffffffffffffffffffff82169050919050565b6000819050919050565b82818337600083830152505050565b60005b8381101561358557808201518184015260208101905061356a565b83811115613594576000848401525b50505050565b600060028204905060018216806135b257607f821691505b602082108114156135c6576135c56136d5565b5b50919050565b6135d582613733565b810181811067ffffffffffffffff821117156135f4576135f3613704565b5b80604052505050565b60006136088261354e565b91507fffffffffffffffffffffffffffffffffffffffffffffffffffffffffffffffff82141561363b5761363a613677565b5b600182019050919050565b60006136518261354e565b915061365c8361354e565b92508261366c5761366b6136a6565b5b828206905092915050565b7f4e487b7100000000000000000000000000000000000000000000000000000000600052601160045260246000fd5b7f4e487b7100000000000000000000000000000000000000000000000000000000600052601260045260246000fd5b7f4e487b7100000000000000000000000000000000000000000000000000000000600052602260045260246000fd5b7f4e487b7100000000000000000000000000000000000000000000000000000000600052604160045260246000fd5b6000601f19601f8301169050919050565b7f202d2d204e465420233a20000000000000000000000000000000000000000000600082015250565b7f4552433732313a207472616e7366657220746f206e6f6e20455243373231526560008201527f63656976657220696d706c656d656e7465720000000000000000000000000000602082015250565b7f4552433732313a20746f6b656e20616c7265616479206d696e74656400000000600082015250565b7f2c20226d61785f76616c7565223a000000000000000000000000000000000000600082015250565b7f4552433732313a207472616e7366657220746f20746865207a65726f2061646460008201527f7265737300000000000000000000000000000000000000000000000000000000602082015250565b7f4552433732313a20617070726f766520746f2063616c6c657200000000000000600082015250565b7f4552433732313a206f70657261746f7220717565727920666f72206e6f6e657860008201527f697374656e7420746f6b656e0000000000000000000000000000000000000000602082015250565b7f4552433732313a20617070726f76652063616c6c6572206973206e6f74206f7760008201527f6e6572206e6f7220617070726f76656420666f7220616c6c0000000000000000602082015250565b7f4552433732313a2062616c616e636520717565727920666f7220746865207a6560008201527f726f206164647265737300000000000000000000000000000000000000000000602082015250565b7f4552433732313a206f776e657220717565727920666f72206e6f6e657869737460008201527f656e7420746f6b656e0000000000000000000000000000000000000000000000602082015250565b7f222c20226465736372697074696f6e223a20225468697320697320616e204e4660008201527f542074686174206c6574732070656f706c6520706c617920696e20746865206760208201527f616d65204d657461766572736520536c6179657221222c2022696d616765223a60408201527f2022000000000000000000000000000000000000000000000000000000000000606082015250565b7f7d205d7d00000000000000000000000000000000000000000000000000000000600082015250565b7f4552433732313a206d696e7420746f20746865207a65726f2061646472657373600082015250565b7f4552433732313a20617070726f76656420717565727920666f72206e6f6e657860008201527f697374656e7420746f6b656e0000000000000000000000000000000000000000602082015250565b7f4552433732313a207472616e73666572206f6620746f6b656e2074686174206960008201527f73206e6f74206f776e0000000000000000000000000000000000000000000000602082015250565b7f7b226e616d65223a202200000000000000000000000000000000000000000000600082015250565b7f4552433732313a20617070726f76616c20746f2063757272656e74206f776e6560008201527f7200000000000000000000000000000000000000000000000000000000000000602082015250565b7f646174613a6170706c69636174696f6e2f6a736f6e3b6261736536342c000000600082015250565b7f4552433732313a207472616e736665722063616c6c6572206973206e6f74206f60008201527f776e6572206e6f7220617070726f766564000000000000000000000000000000602082015250565b7f222c202261747472696275746573223a205b207b202274726169745f7479706560008201527f223a20224865616c746820506f696e7473222c202276616c7565223a20000000602082015250565b7f7d2c207b202274726169745f74797065223a202241747461636b2044616d616760008201527f65222c202276616c7565223a2000000000000000000000000000000000000000602082015250565b613ce4816134e4565b8114613cef57600080fd5b50565b613cfb816134f6565b8114613d0657600080fd5b50565b613d1281613502565b8114613d1d57600080fd5b50565b613d298161354e565b8114613d3457600080fd5b5056fe4142434445464748494a4b4c4d4e4f505152535455565758595a6162636465666768696a6b6c6d6e6f707172737475767778797a303132333435363738392b2f4d696e746564204e465420772f20746f6b656e496420257320616e6420636861726163746572496e646578202573a26469706673582212203b8500d1d008b2615e616694043c995a4fae716927f27b7761e2b55033e704d564736f6c63430008040033446f6e6520696e697469616c697a696e6720257320772f2048502025732c20696d67202573",
  "linkReferences": {},
  "deployedLinkReferences": {}
}