{
  "_format": "hh-sol-artifact-1",
  "contractName": "Dungeons",
  "sourceName": "contracts/dungeons.sol",
  "abi": [
    {
      "inputs": [
        {
          "internalType": "contract Loot",
          "name": "_lootContract",
          "type": "address"
        },
        {
          "internalType": "contract IDungeonsRender",
          "name": "_render",
          "type": "address"
        },
        {
          "internalType": "contract IDungeonsGenerator",
          "name": "_generator",
          "type": "address"
        },
        {
          "internalType": "contract IDungeonsSeeder",
          "name": "_seeder",
          "type": "address"
        }
      ],
      "stateMutability": "nonpayable",
      "type": "constructor"
    },
    {
      "anonymous": false,
      "inputs": [
        {
          "indexed": true,
          "internalType": "address",
          "name": "owner",
          "type": "address"
        },
        {
          "indexed": true,
          "internalType": "address",
          "name": "approved",
          "type": "address"
        },
        {
          "indexed": true,
          "internalType": "uint256",
          "name": "tokenId",
          "type": "uint256"
        }
      ],
      "name": "Approval",
      "type": "event"
    },
    {
      "anonymous": false,
      "inputs": [
        {
          "indexed": true,
          "internalType": "address",
          "name": "owner",
          "type": "address"
        },
        {
          "indexed": true,
          "internalType": "address",
          "name": "operator",
          "type": "address"
        },
        {
          "indexed": false,
          "internalType": "bool",
          "name": "approved",
          "type": "bool"
        }
      ],
      "name": "ApprovalForAll",
      "type": "event"
    },
    {
      "anonymous": false,
      "inputs": [
        {
          "indexed": true,
          "internalType": "address",
          "name": "account",
          "type": "address"
        },
        {
          "indexed": false,
          "internalType": "uint256",
          "name": "tokenId",
          "type": "uint256"
        }
      ],
      "name": "Claimed",
      "type": "event"
    },
    {
      "anonymous": false,
      "inputs": [
        {
          "indexed": true,
          "internalType": "address",
          "name": "account",
          "type": "address"
        },
        {
          "indexed": false,
          "internalType": "uint256",
          "name": "tokenId",
          "type": "uint256"
        }
      ],
      "name": "Minted",
      "type": "event"
    },
    {
      "anonymous": false,
      "inputs": [
        {
          "indexed": true,
          "internalType": "address",
          "name": "previousOwner",
          "type": "address"
        },
        {
          "indexed": true,
          "internalType": "address",
          "name": "newOwner",
          "type": "address"
        }
      ],
      "name": "OwnershipTransferred",
      "type": "event"
    },
    {
      "anonymous": false,
      "inputs": [
        {
          "indexed": true,
          "internalType": "address",
          "name": "from",
          "type": "address"
        },
        {
          "indexed": true,
          "internalType": "address",
          "name": "to",
          "type": "address"
        },
        {
          "indexed": true,
          "internalType": "uint256",
          "name": "tokenId",
          "type": "uint256"
        }
      ],
      "name": "Transfer",
      "type": "event"
    },
    {
      "inputs": [
        {
          "internalType": "address",
          "name": "to",
          "type": "address"
        },
        {
          "internalType": "uint256",
          "name": "tokenId",
          "type": "uint256"
        }
      ],
      "name": "approve",
      "outputs": [],
      "stateMutability": "nonpayable",
      "type": "function"
    },
    {
      "inputs": [
        {
          "internalType": "address",
          "name": "owner",
          "type": "address"
        }
      ],
      "name": "balanceOf",
      "outputs": [
        {
          "internalType": "uint256",
          "name": "",
          "type": "uint256"
        }
      ],
      "stateMutability": "view",
      "type": "function"
    },
    {
      "inputs": [
        {
          "internalType": "uint256",
          "name": "tokenId",
          "type": "uint256"
        }
      ],
      "name": "claim",
      "outputs": [],
      "stateMutability": "payable",
      "type": "function"
    },
    {
      "inputs": [
        {
          "internalType": "uint256[]",
          "name": "tokenArray",
          "type": "uint256[]"
        }
      ],
      "name": "claimMany",
      "outputs": [],
      "stateMutability": "payable",
      "type": "function"
    },
    {
      "inputs": [],
      "name": "claimed",
      "outputs": [
        {
          "internalType": "uint256",
          "name": "",
          "type": "uint256"
        }
      ],
      "stateMutability": "view",
      "type": "function"
    },
    {
      "inputs": [],
      "name": "generator",
      "outputs": [
        {
          "internalType": "contract IDungeonsGenerator",
          "name": "",
          "type": "address"
        }
      ],
      "stateMutability": "view",
      "type": "function"
    },
    {
      "inputs": [
        {
          "internalType": "uint256",
          "name": "tokenId",
          "type": "uint256"
        }
      ],
      "name": "getApproved",
      "outputs": [
        {
          "internalType": "address",
          "name": "",
          "type": "address"
        }
      ],
      "stateMutability": "view",
      "type": "function"
    },
    {
      "inputs": [
        {
          "internalType": "uint256",
          "name": "tokenId",
          "type": "uint256"
        }
      ],
      "name": "getEntities",
      "outputs": [
        {
          "internalType": "uint8[]",
          "name": "",
          "type": "uint8[]"
        },
        {
          "internalType": "uint8[]",
          "name": "",
          "type": "uint8[]"
        },
        {
          "internalType": "uint8[]",
          "name": "",
          "type": "uint8[]"
        }
      ],
      "stateMutability": "view",
      "type": "function"
    },
    {
      "inputs": [
        {
          "internalType": "uint256",
          "name": "tokenId",
          "type": "uint256"
        }
      ],
      "name": "getEnvironment",
      "outputs": [
        {
          "internalType": "uint8",
          "name": "",
          "type": "uint8"
        }
      ],
      "stateMutability": "view",
      "type": "function"
    },
    {
      "inputs": [
        {
          "internalType": "uint256",
          "name": "tokenId",
          "type": "uint256"
        }
      ],
      "name": "getLayout",
      "outputs": [
        {
          "internalType": "bytes",
          "name": "",
          "type": "bytes"
        }
      ],
      "stateMutability": "view",
      "type": "function"
    },
    {
      "inputs": [
        {
          "internalType": "uint256",
          "name": "tokenId",
          "type": "uint256"
        }
      ],
      "name": "getName",
      "outputs": [
        {
          "internalType": "string",
          "name": "",
          "type": "string"
        }
      ],
      "stateMutability": "view",
      "type": "function"
    },
    {
      "inputs": [
        {
          "internalType": "uint256",
          "name": "tokenId",
          "type": "uint256"
        }
      ],
      "name": "getNumDoors",
      "outputs": [
        {
          "internalType": "uint256",
          "name": "",
          "type": "uint256"
        }
      ],
      "stateMutability": "view",
      "type": "function"
    },
    {
      "inputs": [
        {
          "internalType": "uint256",
          "name": "tokenId",
          "type": "uint256"
        }
      ],
      "name": "getNumPoints",
      "outputs": [
        {
          "internalType": "uint256",
          "name": "",
          "type": "uint256"
        }
      ],
      "stateMutability": "view",
      "type": "function"
    },
    {
      "inputs": [
        {
          "internalType": "uint256",
          "name": "tokenId",
          "type": "uint256"
        }
      ],
      "name": "getSize",
      "outputs": [
        {
          "internalType": "uint8",
          "name": "",
          "type": "uint8"
        }
      ],
      "stateMutability": "view",
      "type": "function"
    },
    {
      "inputs": [
        {
          "internalType": "uint256",
          "name": "tokenId",
          "type": "uint256"
        }
      ],
      "name": "getSvg",
      "outputs": [
        {
          "internalType": "string",
          "name": "",
          "type": "string"
        }
      ],
      "stateMutability": "view",
      "type": "function"
    },
    {
      "inputs": [
        {
          "internalType": "address",
          "name": "owner",
          "type": "address"
        },
        {
          "internalType": "address",
          "name": "operator",
          "type": "address"
        }
      ],
      "name": "isApprovedForAll",
      "outputs": [
        {
          "internalType": "bool",
          "name": "",
          "type": "bool"
        }
      ],
      "stateMutability": "view",
      "type": "function"
    },
    {
      "inputs": [],
      "name": "lastMint",
      "outputs": [
        {
          "internalType": "uint256",
          "name": "",
          "type": "uint256"
        }
      ],
      "stateMutability": "view",
      "type": "function"
    },
    {
      "inputs": [
        {
          "internalType": "uint256",
          "name": "tokenId",
          "type": "uint256"
        }
      ],
      "name": "mint",
      "outputs": [],
      "stateMutability": "nonpayable",
      "type": "function"
    },
    {
      "inputs": [],
      "name": "name",
      "outputs": [
        {
          "internalType": "string",
          "name": "",
          "type": "string"
        }
      ],
      "stateMutability": "view",
      "type": "function"
    },
    {
      "inputs": [],
      "name": "openClaim",
      "outputs": [],
      "stateMutability": "nonpayable",
      "type": "function"
    },
    {
      "inputs": [],
      "name": "owner",
      "outputs": [
        {
          "internalType": "address",
          "name": "",
          "type": "address"
        }
      ],
      "stateMutability": "view",
      "type": "function"
    },
    {
      "inputs": [
        {
          "internalType": "uint256",
          "name": "tokenId",
          "type": "uint256"
        }
      ],
      "name": "ownerClaim",
      "outputs": [],
      "stateMutability": "payable",
      "type": "function"
    },
    {
      "inputs": [
        {
          "internalType": "uint256",
          "name": "tokenId",
          "type": "uint256"
        }
      ],
      "name": "ownerOf",
      "outputs": [
        {
          "internalType": "address",
          "name": "",
          "type": "address"
        }
      ],
      "stateMutability": "view",
      "type": "function"
    },
    {
      "inputs": [],
      "name": "price",
      "outputs": [
        {
          "internalType": "uint256",
          "name": "",
          "type": "uint256"
        }
      ],
      "stateMutability": "view",
      "type": "function"
    },
    {
      "inputs": [],
      "name": "render",
      "outputs": [
        {
          "internalType": "contract IDungeonsRender",
          "name": "",
          "type": "address"
        }
      ],
      "stateMutability": "view",
      "type": "function"
    },
    {
      "inputs": [],
      "name": "renounceOwnership",
      "outputs": [],
      "stateMutability": "nonpayable",
      "type": "function"
    },
    {
      "inputs": [],
      "name": "restricted",
      "outputs": [
        {
          "internalType": "bool",
          "name": "",
          "type": "bool"
        }
      ],
      "stateMutability": "view",
      "type": "function"
    },
    {
      "inputs": [
        {
          "internalType": "address",
          "name": "from",
          "type": "address"
        },
        {
          "internalType": "address",
          "name": "to",
          "type": "address"
        },
        {
          "internalType": "uint256",
          "name": "tokenId",
          "type": "uint256"
        }
      ],
      "name": "safeTransferFrom",
      "outputs": [],
      "stateMutability": "nonpayable",
      "type": "function"
    },
    {
      "inputs": [
        {
          "internalType": "address",
          "name": "from",
          "type": "address"
        },
        {
          "internalType": "address",
          "name": "to",
          "type": "address"
        },
        {
          "internalType": "uint256",
          "name": "tokenId",
          "type": "uint256"
        },
        {
          "internalType": "bytes",
          "name": "_data",
          "type": "bytes"
        }
      ],
      "name": "safeTransferFrom",
      "outputs": [],
      "stateMutability": "nonpayable",
      "type": "function"
    },
    {
      "inputs": [],
      "name": "seeder",
      "outputs": [
        {
          "internalType": "contract IDungeonsSeeder",
          "name": "",
          "type": "address"
        }
      ],
      "stateMutability": "view",
      "type": "function"
    },
    {
      "inputs": [
        {
          "internalType": "uint256",
          "name": "",
          "type": "uint256"
        }
      ],
      "name": "seeds",
      "outputs": [
        {
          "internalType": "uint256",
          "name": "",
          "type": "uint256"
        }
      ],
      "stateMutability": "view",
      "type": "function"
    },
    {
      "inputs": [
        {
          "internalType": "address",
          "name": "operator",
          "type": "address"
        },
        {
          "internalType": "bool",
          "name": "approved",
          "type": "bool"
        }
      ],
      "name": "setApprovalForAll",
      "outputs": [],
      "stateMutability": "nonpayable",
      "type": "function"
    },
    {
      "inputs": [
        {
          "internalType": "bytes4",
          "name": "interfaceId",
          "type": "bytes4"
        }
      ],
      "name": "supportsInterface",
      "outputs": [
        {
          "internalType": "bool",
          "name": "",
          "type": "bool"
        }
      ],
      "stateMutability": "view",
      "type": "function"
    },
    {
      "inputs": [],
      "name": "symbol",
      "outputs": [
        {
          "internalType": "string",
          "name": "",
          "type": "string"
        }
      ],
      "stateMutability": "view",
      "type": "function"
    },
    {
      "inputs": [
        {
          "internalType": "uint256",
          "name": "index",
          "type": "uint256"
        }
      ],
      "name": "tokenByIndex",
      "outputs": [
        {
          "internalType": "uint256",
          "name": "",
          "type": "uint256"
        }
      ],
      "stateMutability": "view",
      "type": "function"
    },
    {
      "inputs": [
        {
          "internalType": "address",
          "name": "owner",
          "type": "address"
        },
        {
          "internalType": "uint256",
          "name": "index",
          "type": "uint256"
        }
      ],
      "name": "tokenOfOwnerByIndex",
      "outputs": [
        {
          "internalType": "uint256",
          "name": "",
          "type": "uint256"
        }
      ],
      "stateMutability": "view",
      "type": "function"
    },
    {
      "inputs": [
        {
          "internalType": "uint256",
          "name": "tokenId",
          "type": "uint256"
        }
      ],
      "name": "tokenURI",
      "outputs": [
        {
          "internalType": "string",
          "name": "",
          "type": "string"
        }
      ],
      "stateMutability": "view",
      "type": "function"
    },
    {
      "inputs": [],
      "name": "totalSupply",
      "outputs": [
        {
          "internalType": "uint256",
          "name": "",
          "type": "uint256"
        }
      ],
      "stateMutability": "view",
      "type": "function"
    },
    {
      "inputs": [
        {
          "internalType": "address",
          "name": "from",
          "type": "address"
        },
        {
          "internalType": "address",
          "name": "to",
          "type": "address"
        },
        {
          "internalType": "uint256",
          "name": "tokenId",
          "type": "uint256"
        }
      ],
      "name": "transferFrom",
      "outputs": [],
      "stateMutability": "nonpayable",
      "type": "function"
    },
    {
      "inputs": [
        {
          "internalType": "address",
          "name": "newOwner",
          "type": "address"
        }
      ],
      "name": "transferOwnership",
      "outputs": [],
      "stateMutability": "nonpayable",
      "type": "function"
    },
    {
      "inputs": [
        {
          "internalType": "address payable",
          "name": "recipient",
          "type": "address"
        },
        {
          "internalType": "uint256",
          "name": "amount",
          "type": "uint256"
        }
      ],
      "name": "withdraw",
      "outputs": [],
      "stateMutability": "nonpayable",
      "type": "function"
    }
  ],
  "bytecode": "0x6080604052611f4060115560006012556013805460ff1916600117905566b1a2bc2ec500006014553480156200003457600080fd5b506040516200403438038062004034833981016040819052620000579162000245565b604080518082018252601281527143727970747320616e642043617665726e7360701b60208083019182528351808501909452600784526643415645524e5360c81b908401528151919291620000b0916000916200018c565b508051620000c69060019060208401906200018c565b50506001600a5550620000e2620000dc62000136565b6200013a565b601080546001600160a01b039586166001600160a01b031991821617909155600c805494861694821694909417909355600d805492851692841692909217909155600e805491909316911617905562000336565b3390565b600b80546001600160a01b038381166001600160a01b0319831681179093556040519116919082907f8be0079c531659141344cd1fd0a4f28419497f9722a3daafe3b4186f6b6457e090600090a35050565b8280546200019a90620002d5565b90600052602060002090601f016020900481019282620001be576000855562000209565b82601f10620001d957805160ff191683800117855562000209565b8280016001018555821562000209579182015b8281111562000209578251825591602001919060010190620001ec565b50620002179291506200021b565b5090565b5b808211156200021757600081556001016200021c565b80516200023f816200031c565b92915050565b600080600080608085870312156200025c57600080fd5b60006200026a878762000232565b94505060206200027d8782880162000232565b9350506040620002908782880162000232565b9250506060620002a38782880162000232565b91505092959194509250565b60006200023f82620002c9565b60006200023f82620002af565b6001600160a01b031690565b600281046001821680620002ea57607f821691505b6020821081141562000300576200030062000306565b50919050565b634e487b7160e01b600052602260045260246000fd5b6200032781620002bc565b81146200033357600080fd5b50565b613cee80620003466000396000f3fe6080604052600436106102465760003560e01c80637072c6b111610139578063b0dc78fa116100b6578063db9ee4451161007a578063db9ee44514610668578063e834a83414610688578063e985e9c51461069d578063f0503e80146106bd578063f2fde38b146106dd578063f3fef3a3146106fd57610246565b8063b0dc78fa146105c4578063b88d4fde146105e4578063c87b56dd14610604578063cc6dd94714610624578063d607497a1461065357610246565b8063925489a8116100fd578063925489a81461054757806395d89b411461055a578063a035b1fe1461056f578063a0712d6814610584578063a22cb465146105a457610246565b80637072c6b1146104d357806370a08231146104e8578063715018a6146105085780637afa1eed1461051d5780638da5cb5b1461053257610246565b8063379607f5116101c7578063586fc5b51161018b578063586fc5b51461043c5780636352211e14610451578063684931ed146104715780636b8ff574146104935780636db40800146104b357610246565b8063379607f5146103b65780633bb31416146103c957806342842e0e146103e9578063434f48c4146104095780634f6ccce71461041c57610246565b8063095ea7b31161020e578063095ea7b31461031d57806318160ddd1461033f57806323b872dd14610361578063293cdbf1146103815780632f745c591461039657610246565b8063012921351461024b57806301ffc9a714610281578063023c23db146102ae57806306fdde03146102db578063081812fc146102f0575b600080fd5b34801561025757600080fd5b5061026b610266366004612d85565b61071d565b60405161027891906137cc565b60405180910390f35b34801561028d57600080fd5b506102a161029c366004612c19565b6107ce565b60405161027891906137be565b3480156102ba57600080fd5b506102ce6102c9366004612d85565b6107f9565b6040516102789190613a35565b3480156102e757600080fd5b5061026b610892565b3480156102fc57600080fd5b5061031061030b366004612d85565b610924565b6040516102789190613722565b34801561032957600080fd5b5061033d6103383660046129ff565b610970565b005b34801561034b57600080fd5b50610354610a08565b60405161027891906139d8565b34801561036d57600080fd5b5061033d61037c366004612a69565b610a0e565b34801561038d57600080fd5b5061033d610a46565b3480156103a257600080fd5b506103546103b13660046129ff565b610ac6565b61033d6103c4366004612d85565b610b18565b3480156103d557600080fd5b506103546103e4366004612d85565b610d47565b3480156103f557600080fd5b5061033d610404366004612a69565b610df8565b61033d610417366004612d85565b610e13565b34801561042857600080fd5b50610354610437366004612d85565b610f42565b34801561044857600080fd5b50610354610f9d565b34801561045d57600080fd5b5061031061046c366004612d85565b610fa3565b34801561047d57600080fd5b50610486610fd8565b60405161027891906137dd565b34801561049f57600080fd5b5061026b6104ae366004612d85565b610fe7565b3480156104bf57600080fd5b506102ce6104ce366004612d85565b61108d565b3480156104df57600080fd5b506102a16110d5565b3480156104f457600080fd5b506103546105033660046129c3565b6110de565b34801561051457600080fd5b5061033d611122565b34801561052957600080fd5b5061048661116d565b34801561053e57600080fd5b5061031061117c565b61033d610555366004612b5e565b61118b565b34801561056657600080fd5b5061026b611507565b34801561057b57600080fd5b50610354611516565b34801561059057600080fd5b5061033d61059f366004612d85565b61151c565b3480156105b057600080fd5b5061033d6105bf366004612b2e565b61171d565b3480156105d057600080fd5b5061026b6105df366004612d85565b611733565b3480156105f057600080fd5b5061033d6105ff366004612ab6565b6117e0565b34801561061057600080fd5b5061026b61061f366004612d85565b61181f565b34801561063057600080fd5b5061064461063f366004612d85565b6119c3565b60405161027893929190613785565b34801561065f57600080fd5b50610486611a83565b34801561067457600080fd5b50610354610683366004612d85565b611a92565b34801561069457600080fd5b50610354611aca565b3480156106a957600080fd5b506102a16106b8366004612a39565b611ad0565b3480156106c957600080fd5b506103546106d8366004612d85565b611afe565b3480156106e957600080fd5b5061033d6106f83660046129c3565b611b10565b34801561070957600080fd5b5061033d6107183660046129ff565b611b81565b606061072882611c8e565b600d546000838152600f602052604081205490916001600160a01b03169063ff8f8c1890610755866107f9565b6040518363ffffffff1660e01b8152600401610772929190613a1a565b60006040518083038186803b15801561078a57600080fd5b505afa15801561079e573d6000803e3d6000fd5b505050506040513d6000823e601f3d908101601f191682016040526107c69190810190612c9b565b509392505050565b60006001600160e01b0319821663780e9d6360e01b14806107f357506107f382611ce0565b92915050565b600061080482611c8e565b600e546000838152600f60205260409081902054905163023c23db60e01b81526001600160a01b039092169163023c23db91610842916004016139d8565b60206040518083038186803b15801561085a57600080fd5b505afa15801561086e573d6000803e3d6000fd5b505050506040513d601f19601f820116820180604052508101906107f39190612de0565b6060600080546108a190613be1565b80601f01602080910402602001604051908101604052809291908181526020018280546108cd90613be1565b801561091a5780601f106108ef5761010080835404028352916020019161091a565b820191906000526020600020905b8154815290600101906020018083116108fd57829003601f168201915b5050505050905090565b600061092f82611d20565b6109545760405162461bcd60e51b815260040161094b906138eb565b60405180910390fd5b506000908152600460205260409020546001600160a01b031690565b600061097b82610fa3565b9050806001600160a01b0316836001600160a01b031614156109af5760405162461bcd60e51b815260040161094b9061392b565b806001600160a01b03166109c1611d3d565b6001600160a01b031614806109dd57506109dd816106b8611d3d565b6109f95760405162461bcd60e51b815260040161094b906138ab565b610a038383611d41565b505050565b60085490565b610a1f610a19611d3d565b82611daf565b610a3b5760405162461bcd60e51b815260040161094b9061394b565b610a03838383611e2c565b6002600a541415610a695760405162461bcd60e51b815260040161094b9061397b565b6002600a55610a76611d3d565b6001600160a01b0316610a8761117c565b6001600160a01b031614610aad5760405162461bcd60e51b815260040161094b906138fb565b6013805460ff19811660ff909116151790556001600a55565b6000610ad1836110de565b8210610aef5760405162461bcd60e51b815260040161094b906137fb565b506001600160a01b03919091166000908152600660209081526040808320938352929052205490565b6002600a541415610b3b5760405162461bcd60e51b815260040161094b9061397b565b6002600a558015801590610b505750611e6281105b610b6c5760405162461bcd60e51b815260040161094b9061390b565b60135460ff161580610c0457506010546040516331a9108f60e11b815233916001600160a01b031690636352211e90610ba99085906004016139d8565b60206040518083038186803b158015610bc157600080fd5b505afa158015610bd5573d6000803e3d6000fd5b505050506040513d601f19601f82011682018060405250810190610bf991906129e1565b6001600160a01b0316145b610c205760405162461bcd60e51b815260040161094b9061396b565b346014541115610c425760405162461bcd60e51b815260040161094b906137eb565b60128054906000610c5283613c0e565b9091555050600e5460405163e0d4ea3760e01b81526001600160a01b039091169063e0d4ea3790610c879084906004016139d8565b60206040518083038186803b158015610c9f57600080fd5b505afa158015610cb3573d6000803e3d6000fd5b505050506040513d601f19601f82011682018060405250810190610cd79190612da3565b6000828152600f6020526040902055610cf7610cf1611d3d565b82611f59565b610cff611d3d565b6001600160a01b03167fd8138f8a3f377c5259ca548e70e4c2de94f129f5a11036a15b69513cba2b426a82604051610d3791906139d8565b60405180910390a2506001600a55565b6000610d5282611c8e565b600d546000838152600f602052604081205490916001600160a01b031690634d4c71a390610d7f866107f9565b6040518363ffffffff1660e01b8152600401610d9c929190613a1a565b60006040518083038186803b158015610db457600080fd5b505afa158015610dc8573d6000803e3d6000fd5b505050506040513d6000823e601f3d908101601f19168201604052610df09190810190612c55565b949350505050565b610a03838383604051806020016040528060008152506117e0565b6002600a541415610e365760405162461bcd60e51b815260040161094b9061397b565b6002600a55610e43611d3d565b6001600160a01b0316610e5461117c565b6001600160a01b031614610e7a5760405162461bcd60e51b815260040161094b906138fb565b611e6181118015610e8c5750611f4181105b610ea85760405162461bcd60e51b815260040161094b9061390b565b600e5460405163e0d4ea3760e01b81526001600160a01b039091169063e0d4ea3790610ed89084906004016139d8565b60206040518083038186803b158015610ef057600080fd5b505afa158015610f04573d6000803e3d6000fd5b505050506040513d601f19601f82011682018060405250810190610f289190612da3565b6000828152600f6020526040902055610cf7610cf161117c565b6000610f4c610a08565b8210610f6a5760405162461bcd60e51b815260040161094b9061395b565b60088281548110610f8b57634e487b7160e01b600052603260045260246000fd5b90600052602060002001549050919050565b60115481565b6000818152600260205260408120546001600160a01b0316806107f35760405162461bcd60e51b815260040161094b906138cb565b600e546001600160a01b031681565b6060610ff282611c8e565b600e546000838152600f6020526040808220549051631ae3fd5d60e21b815291926001600160a01b031691636b8ff5749161102f916004016139d8565b60006040518083038186803b15801561104757600080fd5b505afa15801561105b573d6000803e3d6000fd5b505050506040513d6000823e601f3d908101601f191682016040526110839190810190612d15565b5090949350505050565b600061109882611c8e565b600e546000838152600f602052604090819020549051620db68160eb1b81526001600160a01b0390921691636db4080091610842916004016139d8565b60135460ff1681565b60006001600160a01b0382166111065760405162461bcd60e51b815260040161094b906138bb565b506001600160a01b031660009081526003602052604090205490565b61112a611d3d565b6001600160a01b031661113b61117c565b6001600160a01b0316146111615760405162461bcd60e51b815260040161094b906138fb565b61116b6000611f73565b565b600d546001600160a01b031681565b600b546001600160a01b031690565b6002600a5414156111ae5760405162461bcd60e51b815260040161094b9061397b565b6002600a5560005b81518110156114fe5760008282815181106111e157634e487b7160e01b600052603260045260246000fd5b602002602001015111801561121e5750611e6282828151811061121457634e487b7160e01b600052603260045260246000fd5b6020026020010151105b61123a5760405162461bcd60e51b815260040161094b9061390b565b60135460ff1615806112fd5750601054825133916001600160a01b031690636352211e9085908590811061127e57634e487b7160e01b600052603260045260246000fd5b60200260200101516040518263ffffffff1660e01b81526004016112a291906139d8565b60206040518083038186803b1580156112ba57600080fd5b505afa1580156112ce573d6000803e3d6000fd5b505050506040513d601f19601f820116820180604052508101906112f291906129e1565b6001600160a01b0316145b6113195760405162461bcd60e51b815260040161094b9061396b565b3482516014546113299190613aff565b11156113475760405162461bcd60e51b815260040161094b906137eb565b6012805490600061135783613c0e565b9091555050600e5482516001600160a01b039091169063e0d4ea379084908490811061139357634e487b7160e01b600052603260045260246000fd5b60200260200101516040518263ffffffff1660e01b81526004016113b791906139d8565b60206040518083038186803b1580156113cf57600080fd5b505afa1580156113e3573d6000803e3d6000fd5b505050506040513d601f19601f820116820180604052508101906114079190612da3565b600f600084848151811061142b57634e487b7160e01b600052603260045260246000fd5b602002602001015181526020019081526020016000208190555061147d611450611d3d565b83838151811061147057634e487b7160e01b600052603260045260246000fd5b6020026020010151611f59565b611485611d3d565b6001600160a01b03167fd8138f8a3f377c5259ca548e70e4c2de94f129f5a11036a15b69513cba2b426a8383815181106114cf57634e487b7160e01b600052603260045260246000fd5b60200260200101516040516114e491906139d8565b60405180910390a2806114f681613c0e565b9150506111b6565b50506001600a55565b6060600180546108a190613be1565b60145481565b6002600a54141561153f5760405162461bcd60e51b815260040161094b9061397b565b6002600a55601154612328116115675760405162461bcd60e51b815260040161094b9061393b565b60135460ff1615806115ff57506010546040516331a9108f60e11b815233916001600160a01b031690636352211e906115a49085906004016139d8565b60206040518083038186803b1580156115bc57600080fd5b505afa1580156115d0573d6000803e3d6000fd5b505050506040513d601f19601f820116820180604052508101906115f491906129e1565b6001600160a01b0316145b61161b5760405162461bcd60e51b815260040161094b9061389b565b600060116000815461162c90613c0e565b9182905550600e5460405163e0d4ea3760e01b81529192506001600160a01b03169063e0d4ea37906116629084906004016139d8565b60206040518083038186803b15801561167a57600080fd5b505afa15801561168e573d6000803e3d6000fd5b505050506040513d601f19601f820116820180604052508101906116b29190612da3565b6000828152600f60205260409020556116cc610cf1611d3d565b6116d4611d3d565b6001600160a01b03167f30385c845b448a36257a6a1716e6ad2e1bc2cbe333cde1e69fe849ad6511adfe8260405161170c91906139d8565b60405180910390a250506001600a55565b61172f611728611d3d565b8383611fc5565b5050565b6060600061174083612068565b600c5460a08201518051602082015160409283015192516329010f4360e01b81529495506001600160a01b03909316936329010f43936117859387939260040161398b565b60006040518083038186803b15801561179d57600080fd5b505afa1580156117b1573d6000803e3d6000fd5b505050506040513d6000823e601f3d908101601f191682016040526117d99190810190612ce1565b9392505050565b6117f16117eb611d3d565b83611daf565b61180d5760405162461bcd60e51b815260040161094b9061394b565b61181984848484612246565b50505050565b606061182a82611c8e565b600061183583612068565b604080516002808252606082018352929350600092909160208301908036833701905050600d5460a084015160409081015190516397155f4f60e01b81529293506001600160a01b03909116916397155f4f9161189491600401613774565b604080518083038186803b1580156118ab57600080fd5b505afa1580156118bf573d6000803e3d6000fd5b505050506040513d601f19601f820116820180604052508101906118e39190612dc1565b8260008151811061190457634e487b7160e01b600052603260045260246000fd5b602002602001018360018151811061192c57634e487b7160e01b600052603260045260246000fd5b602090810291909101019190915252600c546040516319db2b2f60e01b81526001600160a01b03909116906319db2b2f9061196f908790869086906004016139e6565b60006040518083038186803b15801561198757600080fd5b505afa15801561199b573d6000803e3d6000fd5b505050506040513d6000823e601f3d908101601f19168201604052610df09190810190612ce1565b60608060606119d184611c8e565b600d546000858152600f60205260408120549091829182916001600160a01b031690634007062790611a028a6107f9565b6040518363ffffffff1660e01b8152600401611a1f929190613a1a565b60006040518083038186803b158015611a3757600080fd5b505afa158015611a4b573d6000803e3d6000fd5b505050506040513d6000823e601f3d908101601f19168201604052611a739190810190612b92565b9199909850909650945050505050565b600c546001600160a01b031681565b6000611a9d82611c8e565b600d546000838152600f602052604081205490916001600160a01b03169063cd7acca690610d7f866107f9565b60125481565b6001600160a01b03918216600090815260056020908152604080832093909416825291909152205460ff1690565b600f6020526000908152604090205481565b611b18611d3d565b6001600160a01b0316611b2961117c565b6001600160a01b031614611b4f5760405162461bcd60e51b815260040161094b906138fb565b6001600160a01b038116611b755760405162461bcd60e51b815260040161094b9061382b565b611b7e81611f73565b50565b6002600a541415611ba45760405162461bcd60e51b815260040161094b9061397b565b6002600a55611bb1611d3d565b6001600160a01b0316611bc261117c565b6001600160a01b031614611be85760405162461bcd60e51b815260040161094b906138fb565b80471015611c085760405162461bcd60e51b815260040161094b9061387b565b6000826001600160a01b031682604051611c2190613717565b60006040518083038185875af1925050503d8060008114611c5e576040519150601f19603f3d011682016040523d82523d6000602084013e611c63565b606091505b5050905080611c845760405162461bcd60e51b815260040161094b9061384b565b50506001600a5550565b600081118015611c9f575061232981105b611cbb5760405162461bcd60e51b815260040161094b9061390b565b611cc481611d20565b611b7e5760405162461bcd60e51b815260040161094b9061381b565b60006001600160e01b031982166380ac58cd60e01b1480611d1157506001600160e01b03198216635b5e139f60e01b145b806107f357506107f382612279565b6000908152600260205260409020546001600160a01b0316151590565b3390565b600081815260046020526040902080546001600160a01b0319166001600160a01b0384169081179091558190611d7682610fa3565b6001600160a01b03167f8c5be1e5ebec7d5bd14f71427d1e84f3dd0314c0f7b2291e5b200ac8c7c3b92560405160405180910390a45050565b6000611dba82611d20565b611dd65760405162461bcd60e51b815260040161094b9061388b565b6000611de183610fa3565b9050806001600160a01b0316846001600160a01b03161480611e1c5750836001600160a01b0316611e1184610924565b6001600160a01b0316145b80610df05750610df08185611ad0565b826001600160a01b0316611e3f82610fa3565b6001600160a01b031614611e655760405162461bcd60e51b815260040161094b9061391b565b6001600160a01b038216611e8b5760405162461bcd60e51b815260040161094b9061385b565b611e96838383612292565b611ea1600082611d41565b6001600160a01b0383166000908152600360205260408120805460019290611eca908490613b34565b90915550506001600160a01b0382166000908152600360205260408120805460019290611ef8908490613ad1565b909155505060008181526002602052604080822080546001600160a01b0319166001600160a01b0386811691821790925591518493918716917fddf252ad1be2c89b69c2b068fc378daa952ba7f163c4a11628f55a4df523b3ef91a4505050565b61172f82826040518060200160405280600081525061231b565b600b80546001600160a01b038381166001600160a01b0319831681179093556040519116919082907f8be0079c531659141344cd1fd0a4f28419497f9722a3daafe3b4186f6b6457e090600090a35050565b816001600160a01b0316836001600160a01b03161415611ff75760405162461bcd60e51b815260040161094b9061386b565b6001600160a01b0383811660008181526005602090815260408083209487168084529490915290819020805460ff1916851515179055517f17307eab39ab6107e8899845ad3d59bd9653f200f220920489ca2b5937696c319061205b9085906137be565b60405180910390a3505050565b61207061274c565b600080600061207e856119c3565b600d546000898152600f6020526040812054949750929550909350909182916001600160a01b03169063ff8f8c18906120b68a6107f9565b6040518363ffffffff1660e01b81526004016120d3929190613a1a565b60006040518083038186803b1580156120eb57600080fd5b505afa1580156120ff573d6000803e3d6000fd5b505050506040513d6000823e601f3d908101601f191682016040526121279190810190612c9b565b600e5460008a8152600f6020526040808220549051631ae3fd5d60e21b815294965092945092839283926001600160a01b031691636b8ff5749161216d916004016139d8565b60006040518083038186803b15801561218557600080fd5b505afa158015612199573d6000803e3d6000fd5b505050506040513d6000823e601f3d908101601f191682016040526121c19190810190612d15565b9250925092506040518061010001604052806121dc8c6107f9565b60ff1681526020016121ed8c61108d565b60ff1681526020018560ff1681526020018260ff16815260200186815260200160405180606001604052808b81526020018a81526020018981525081526020018381526020018481525098505050505050505050919050565b612251848484611e2c565b61225d8484848461234e565b6118195760405162461bcd60e51b815260040161094b9061380b565b6001600160e01b031981166301ffc9a760e01b14919050565b61229d838383610a03565b6001600160a01b0383166122b9576122b481612469565b6122dc565b816001600160a01b0316836001600160a01b0316146122dc576122dc83826124ad565b6001600160a01b0382166122f8576122f38161254a565b610a03565b826001600160a01b0316826001600160a01b031614610a0357610a038282612623565b6123258383612667565b612332600084848461234e565b610a035760405162461bcd60e51b815260040161094b9061380b565b6000612362846001600160a01b0316612746565b1561245e57836001600160a01b031663150b7a0261237e611d3d565b8786866040518563ffffffff1660e01b81526004016123a09493929190613730565b602060405180830381600087803b1580156123ba57600080fd5b505af19250505080156123ea575060408051601f3d908101601f191682019092526123e791810190612c37565b60015b612444573d808015612418576040519150601f19603f3d011682016040523d82523d6000602084013e61241d565b606091505b50805161243c5760405162461bcd60e51b815260040161094b9061380b565b805181602001fd5b6001600160e01b031916630a85bd0160e11b149050610df0565b506001949350505050565b600880546000838152600960205260408120829055600182018355919091527ff3f7a9fe364faab93b216da50a3214154f22a0a2b415b23a84c8169e8b636ee30155565b600060016124ba846110de565b6124c49190613b34565b600083815260076020526040902054909150808214612517576001600160a01b03841660009081526006602090815260408083208584528252808320548484528184208190558352600790915290208190555b5060009182526007602090815260408084208490556001600160a01b039094168352600681528383209183525290812055565b60085460009061255c90600190613b34565b6000838152600960205260408120546008805493945090928490811061259257634e487b7160e01b600052603260045260246000fd5b9060005260206000200154905080600883815481106125c157634e487b7160e01b600052603260045260246000fd5b600091825260208083209091019290925582815260099091526040808220849055858252812055600880548061260757634e487b7160e01b600052603160045260246000fd5b6001900381819060005260206000200160009055905550505050565b600061262e836110de565b6001600160a01b039093166000908152600660209081526040808320868452825280832085905593825260079052919091209190915550565b6001600160a01b03821661268d5760405162461bcd60e51b815260040161094b906138db565b61269681611d20565b156126b35760405162461bcd60e51b815260040161094b9061383b565b6126bf60008383612292565b6001600160a01b03821660009081526003602052604081208054600192906126e8908490613ad1565b909155505060008181526002602052604080822080546001600160a01b0319166001600160a01b03861690811790915590518392907fddf252ad1be2c89b69c2b068fc378daa952ba7f163c4a11628f55a4df523b3ef908290a45050565b3b151590565b604051806101000160405280600060ff168152602001600060ff168152602001600060ff168152602001600060ff1681526020016060815260200161278f6127a3565b815260200160608152602001606081525090565b60405180606001604052806060815260200160608152602001606081525090565b60006127d76127d284613a6c565b613a43565b905080838252602082019050828560208602820111156127f657600080fd5b60005b85811015612822578161280c88826129a2565b84525060209283019291909101906001016127f9565b5050509392505050565b600061283a6127d284613a6c565b9050808382526020820190508285602086028201111561285957600080fd5b60005b85811015612822578161286f88826129b8565b845250602092830192919091019060010161285c565b60006128936127d284613a8f565b9050828152602081018484840111156128ab57600080fd5b6107c6848285613ba9565b60006128c46127d284613a8f565b9050828152602081018484840111156128dc57600080fd5b6107c6848285613bb5565b80356107f381613c80565b80516107f381613c80565b600082601f83011261290e57600080fd5b8135610df08482602086016127c4565b600082601f83011261292f57600080fd5b8151610df084826020860161282c565b80356107f381613c94565b80356107f381613c9d565b80516107f381613c9d565b600082601f83011261297157600080fd5b8135610df0848260208601612885565b600082601f83011261299257600080fd5b8151610df08482602086016128b6565b80356107f381613ca6565b80516107f381613ca6565b80516107f381613caf565b6000602082840312156129d557600080fd5b6000610df084846128e7565b6000602082840312156129f357600080fd5b6000610df084846128f2565b60008060408385031215612a1257600080fd5b6000612a1e85856128e7565b9250506020612a2f858286016129a2565b9150509250929050565b60008060408385031215612a4c57600080fd5b6000612a5885856128e7565b9250506020612a2f858286016128e7565b600080600060608486031215612a7e57600080fd5b6000612a8a86866128e7565b9350506020612a9b868287016128e7565b9250506040612aac868287016129a2565b9150509250925092565b60008060008060808587031215612acc57600080fd5b6000612ad887876128e7565b9450506020612ae9878288016128e7565b9350506040612afa878288016129a2565b92505060608501356001600160401b03811115612b1657600080fd5b612b2287828801612960565b91505092959194509250565b60008060408385031215612b4157600080fd5b6000612b4d85856128e7565b9250506020612a2f8582860161293f565b600060208284031215612b7057600080fd5b81356001600160401b03811115612b8657600080fd5b610df0848285016128fd565b600080600060608486031215612ba757600080fd5b83516001600160401b03811115612bbd57600080fd5b612bc98682870161291e565b93505060208401516001600160401b03811115612be557600080fd5b612bf18682870161291e565b92505060408401516001600160401b03811115612c0d57600080fd5b612aac8682870161291e565b600060208284031215612c2b57600080fd5b6000610df0848461294a565b600060208284031215612c4957600080fd5b6000610df08484612955565b60008060408385031215612c6857600080fd5b82516001600160401b03811115612c7e57600080fd5b612c8a85828601612981565b9250506020612a2f858286016129ad565b60008060408385031215612cae57600080fd5b82516001600160401b03811115612cc457600080fd5b612cd085828601612981565b9250506020612a2f858286016129b8565b600060208284031215612cf357600080fd5b81516001600160401b03811115612d0957600080fd5b610df084828501612981565b600080600060608486031215612d2a57600080fd5b83516001600160401b03811115612d4057600080fd5b612d4c86828701612981565b93505060208401516001600160401b03811115612d6857600080fd5b612d7486828701612981565b9250506040612aac868287016129b8565b600060208284031215612d9757600080fd5b6000610df084846129a2565b600060208284031215612db557600080fd5b6000610df084846129ad565b60008060408385031215612dd457600080fd5b6000612c8a85856129ad565b600060208284031215612df257600080fd5b6000610df084846129b8565b6000612e0a83836136fc565b505060200190565b6000612e0a838361370e565b612e2781613b61565b82525050565b6000612e3882613abf565b612e428185613ac3565b9350612e4d83613ab9565b8060005b83811015612e7b578151612e658882612dfe565b9750612e7083613ab9565b925050600101612e51565b509495945050505050565b6000612e9182613abf565b612e9b8185613ac3565b9350612ea683613ab9565b8060005b83811015612e7b578151612ebe8882612e12565b9750612ec983613ab9565b925050600101612eaa565b6000612edf82613abf565b612ee98185613ac3565b9350612ef483613ab9565b8060005b83811015612e7b578151612f0c8882612e12565b9750612f1783613ab9565b925050600101612ef8565b612e2781613b6c565b6000612f3682613abf565b612f408185613ac3565b9350612f50818560208601613bb5565b612f5981613c76565b9093019392505050565b612e2781613b93565b6000612f79601083613ac3565b6f092dce6eaccccd2c6d2cadce8408aa8960831b815260200192915050565b6000612fa5602b83613ac3565b7f455243373231456e756d657261626c653a206f776e657220696e646578206f7581526a74206f6620626f756e647360a81b602082015260400192915050565b6000612ff2603283613ac3565b7f4552433732313a207472616e7366657220746f206e6f6e20455243373231526581527131b2b4bb32b91034b6b83632b6b2b73a32b960711b602082015260400192915050565b6000613046601783613ac3565b7f546f6b656e206973206e6f74206d696e74656420796574000000000000000000815260200192915050565b600061307f602683613ac3565b7f4f776e61626c653a206e6577206f776e657220697320746865207a65726f206181526564647265737360d01b602082015260400192915050565b60006130c7601c83613ac3565b7f4552433732313a20746f6b656e20616c7265616479206d696e74656400000000815260200192915050565b6000613100600f83613ac3565b6e15da5d1a191c985dc819985a5b1959608a1b815260200192915050565b600061312b602483613ac3565b7f4552433732313a207472616e7366657220746f20746865207a65726f206164648152637265737360e01b602082015260400192915050565b6000613171601983613ac3565b7f4552433732313a20617070726f766520746f2063616c6c657200000000000000815260200192915050565b60006131aa601483613ac3565b73496e73756666696369656e742062616c616e636560601b815260200192915050565b60006131da602c83613ac3565b7f4552433732313a206f70657261746f7220717565727920666f72206e6f6e657881526b34b9ba32b73a103a37b5b2b760a11b602082015260400192915050565b6000613228601283613ac3565b712737ba103cb7bab91029bab13237b6b0b4b760711b815260200192915050565b6000613256603883613ac3565b7f4552433732313a20617070726f76652063616c6c6572206973206e6f74206f7781527f6e6572206e6f7220617070726f76656420666f7220616c6c0000000000000000602082015260400192915050565b60006132b5602a83613ac3565b7f4552433732313a2062616c616e636520717565727920666f7220746865207a65815269726f206164647265737360b01b602082015260400192915050565b6000613301602983613ac3565b7f4552433732313a206f776e657220717565727920666f72206e6f6e657869737481526832b73a103a37b5b2b760b91b602082015260400192915050565b600061334c602083613ac3565b7f4552433732313a206d696e7420746f20746865207a65726f2061646472657373815260200192915050565b6000613385602c83613ac3565b7f4552433732313a20617070726f76656420717565727920666f72206e6f6e657881526b34b9ba32b73a103a37b5b2b760a11b602082015260400192915050565b60006133d3602083613ac3565b7f4f776e61626c653a2063616c6c6572206973206e6f7420746865206f776e6572815260200192915050565b600061340c601083613ac3565b6f151bdad95b881251081a5b9d985b1a5960821b815260200192915050565b6000613438602983613ac3565b7f4552433732313a207472616e73666572206f6620746f6b656e2074686174206981526839903737ba1037bbb760b91b602082015260400192915050565b6000613483602183613ac3565b7f4552433732313a20617070726f76616c20746f2063757272656e74206f776e658152603960f91b602082015260400192915050565b60006107f3600083613acc565b60006134d3600e83613ac3565b6d151bdad95b881cdbdb19081bdd5d60921b815260200192915050565b60006134fd603183613ac3565b7f4552433732313a207472616e736665722063616c6c6572206973206e6f74206f8152701ddb995c881b9bdc88185c1c1c9bdd9959607a1b602082015260400192915050565b6000613550602c83613ac3565b7f455243373231456e756d657261626c653a20676c6f62616c20696e646578206f81526b7574206f6620626f756e647360a01b602082015260400192915050565b600061359e600d83613ac3565b6c139bdd081e5bdd5c881313d3d5609a1b815260200192915050565b60006135c7601f83613ac3565b7f5265656e7472616e637947756172643a207265656e7472616e742063616c6c00815260200192915050565b8051600090610100840190613608858261370e565b50602083015161361b602086018261370e565b50604083015161362e604086018261370e565b506060830151613641606086018261370e565b50608083015184820360808601526136598282612f2b565b91505060a083015184820360a086015261367382826136b0565b91505060c083015184820360c086015261368d8282612f2b565b91505060e083015184820360e08601526136a78282612f2b565b95945050505050565b80516060808452600091908401906136c88282612e86565b915050602083015184820360208601526136e28282612e86565b915050604083015184820360408601526136a78282612e86565b612e2781613b8a565b612e2781613b9e565b612e2781613b8d565b60006107f3826134b9565b602081016107f38284612e1e565b6080810161373e8287612e1e565b61374b6020830186612e1e565b61375860408301856136fc565b818103606083015261376a8184612f2b565b9695505050505050565b602080825281016117d98184612ed4565b606080825281016137968186612ed4565b905081810360208301526137aa8185612ed4565b905081810360408301526136a78184612ed4565b602081016107f38284612f22565b602080825281016117d98184612f2b565b602081016107f38284612f63565b602080825281016107f381612f6c565b602080825281016107f381612f98565b602080825281016107f381612fe5565b602080825281016107f381613039565b602080825281016107f381613072565b602080825281016107f3816130ba565b602080825281016107f3816130f3565b602080825281016107f38161311e565b602080825281016107f381613164565b602080825281016107f38161319d565b602080825281016107f3816131cd565b602080825281016107f38161321b565b602080825281016107f381613249565b602080825281016107f3816132a8565b602080825281016107f3816132f4565b602080825281016107f38161333f565b602080825281016107f381613378565b602080825281016107f3816133c6565b602080825281016107f3816133ff565b602080825281016107f38161342b565b602080825281016107f381613476565b602080825281016107f3816134c6565b602080825281016107f3816134f0565b602080825281016107f381613543565b602080825281016107f381613591565b602080825281016107f3816135ba565b6080808252810161399c81876135f3565b905081810360208301526139b08186612ed4565b905081810360408301526139c48185612ed4565b9050818103606083015261376a8184612ed4565b602081016107f382846136fc565b606081016139f482866136fc565b8181036020830152613a0681856135f3565b905081810360408301526136a78184612e2d565b60408101613a2882856136fc565b6117d96020830184613705565b602081016107f3828461370e565b6040518181016001600160401b0381118282101715613a6457613a64613c60565b604052919050565b60006001600160401b03821115613a8557613a85613c60565b5060209081020190565b60006001600160401b03821115613aa857613aa8613c60565b506020601f91909101601f19160190565b60200190565b5190565b90815260200190565b919050565b6000613adc82613b8a565b9150613ae783613b8a565b92508219821115613afa57613afa613c34565b500190565b6000613b0a82613b8a565b9150613b1583613b8a565b9250816000190483118215151615613b2f57613b2f613c34565b500290565b6000613b3f82613b8a565b9150613b4a83613b8a565b925082821015613b5c57613b5c613c34565b500390565b60006107f382613b7e565b151590565b6001600160e01b03191690565b6001600160a01b031690565b90565b60ff1690565b60006107f382613b61565b60006107f382613b8d565b82818337506000910152565b60005b83811015613bd0578181015183820152602001613bb8565b838111156118195750506000910152565b600281046001821680613bf557607f821691505b60208210811415613c0857613c08613c4a565b50919050565b6000613c1982613b8a565b9150600019821415613c2d57613c2d613c34565b5060010190565b634e487b7160e01b600052601160045260246000fd5b634e487b7160e01b600052602260045260246000fd5b634e487b7160e01b600052604160045260246000fd5b601f01601f191690565b613c8981613b61565b8114611b7e57600080fd5b613c8981613b6c565b613c8981613b71565b613c8981613b8a565b613c8981613b8d56fea264697066735822122019b2b1de58715edab7d19420ac752044029c2d6b3e26d622b2f1ceb493650eaf64736f6c63430008000033",
  "linkReferences": {},
  "deployedLinkReferences": {}
}