{
  "_format": "hh-sol-artifact-1",
  "contractName": "Dungeons",
  "sourceName": "contracts/dungeons.sol",
  "abi": [
    {
      "inputs": [
        {
          "internalType": "contract Subdomain",
          "name": "_subdomainContract",
          "type": "address"
        },
        {
          "internalType": "contract IDungeonsRender",
          "name": "_render",
          "type": "address"
        },
        {
          "internalType": "contract IDungeonsGenerator",
          "name": "_generator",
          "type": "address"
        },
        {
          "internalType": "contract IDungeonsSeeder",
          "name": "_seeder",
          "type": "address"
        }
      ],
      "stateMutability": "nonpayable",
      "type": "constructor"
    },
    {
      "anonymous": false,
      "inputs": [
        {
          "indexed": true,
          "internalType": "address",
          "name": "owner",
          "type": "address"
        },
        {
          "indexed": true,
          "internalType": "address",
          "name": "approved",
          "type": "address"
        },
        {
          "indexed": true,
          "internalType": "uint256",
          "name": "tokenId",
          "type": "uint256"
        }
      ],
      "name": "Approval",
      "type": "event"
    },
    {
      "anonymous": false,
      "inputs": [
        {
          "indexed": true,
          "internalType": "address",
          "name": "owner",
          "type": "address"
        },
        {
          "indexed": true,
          "internalType": "address",
          "name": "operator",
          "type": "address"
        },
        {
          "indexed": false,
          "internalType": "bool",
          "name": "approved",
          "type": "bool"
        }
      ],
      "name": "ApprovalForAll",
      "type": "event"
    },
    {
      "anonymous": false,
      "inputs": [
        {
          "indexed": true,
          "internalType": "address",
          "name": "account",
          "type": "address"
        },
        {
          "indexed": false,
          "internalType": "uint256",
          "name": "tokenId",
          "type": "uint256"
        }
      ],
      "name": "Claimed",
      "type": "event"
    },
    {
      "anonymous": false,
      "inputs": [
        {
          "indexed": true,
          "internalType": "address",
          "name": "account",
          "type": "address"
        },
        {
          "indexed": false,
          "internalType": "uint256",
          "name": "tokenId",
          "type": "uint256"
        }
      ],
      "name": "Minted",
      "type": "event"
    },
    {
      "anonymous": false,
      "inputs": [
        {
          "indexed": true,
          "internalType": "address",
          "name": "previousOwner",
          "type": "address"
        },
        {
          "indexed": true,
          "internalType": "address",
          "name": "newOwner",
          "type": "address"
        }
      ],
      "name": "OwnershipTransferred",
      "type": "event"
    },
    {
      "anonymous": false,
      "inputs": [
        {
          "indexed": true,
          "internalType": "address",
          "name": "from",
          "type": "address"
        },
        {
          "indexed": true,
          "internalType": "address",
          "name": "to",
          "type": "address"
        },
        {
          "indexed": true,
          "internalType": "uint256",
          "name": "tokenId",
          "type": "uint256"
        }
      ],
      "name": "Transfer",
      "type": "event"
    },
    {
      "inputs": [
        {
          "internalType": "address",
          "name": "to",
          "type": "address"
        },
        {
          "internalType": "uint256",
          "name": "tokenId",
          "type": "uint256"
        }
      ],
      "name": "approve",
      "outputs": [],
      "stateMutability": "nonpayable",
      "type": "function"
    },
    {
      "inputs": [
        {
          "internalType": "address",
          "name": "owner",
          "type": "address"
        }
      ],
      "name": "balanceOf",
      "outputs": [
        {
          "internalType": "uint256",
          "name": "",
          "type": "uint256"
        }
      ],
      "stateMutability": "view",
      "type": "function"
    },
    {
      "inputs": [],
      "name": "claimed",
      "outputs": [
        {
          "internalType": "uint256",
          "name": "",
          "type": "uint256"
        }
      ],
      "stateMutability": "view",
      "type": "function"
    },
    {
      "inputs": [],
      "name": "generator",
      "outputs": [
        {
          "internalType": "contract IDungeonsGenerator",
          "name": "",
          "type": "address"
        }
      ],
      "stateMutability": "view",
      "type": "function"
    },
    {
      "inputs": [
        {
          "internalType": "uint256",
          "name": "tokenId",
          "type": "uint256"
        }
      ],
      "name": "getApproved",
      "outputs": [
        {
          "internalType": "address",
          "name": "",
          "type": "address"
        }
      ],
      "stateMutability": "view",
      "type": "function"
    },
    {
      "inputs": [
        {
          "internalType": "uint256",
          "name": "tokenId",
          "type": "uint256"
        }
      ],
      "name": "getEntities",
      "outputs": [
        {
          "internalType": "uint8[]",
          "name": "",
          "type": "uint8[]"
        },
        {
          "internalType": "uint8[]",
          "name": "",
          "type": "uint8[]"
        },
        {
          "internalType": "uint8[]",
          "name": "",
          "type": "uint8[]"
        }
      ],
      "stateMutability": "view",
      "type": "function"
    },
    {
      "inputs": [
        {
          "internalType": "uint256",
          "name": "tokenId",
          "type": "uint256"
        }
      ],
      "name": "getEnvironment",
      "outputs": [
        {
          "internalType": "uint8",
          "name": "",
          "type": "uint8"
        }
      ],
      "stateMutability": "view",
      "type": "function"
    },
    {
      "inputs": [
        {
          "internalType": "uint256",
          "name": "tokenId",
          "type": "uint256"
        }
      ],
      "name": "getLayout",
      "outputs": [
        {
          "internalType": "bytes",
          "name": "",
          "type": "bytes"
        }
      ],
      "stateMutability": "view",
      "type": "function"
    },
    {
      "inputs": [
        {
          "internalType": "uint256",
          "name": "tokenId",
          "type": "uint256"
        }
      ],
      "name": "getName",
      "outputs": [
        {
          "internalType": "string",
          "name": "",
          "type": "string"
        }
      ],
      "stateMutability": "view",
      "type": "function"
    },
    {
      "inputs": [
        {
          "internalType": "uint256",
          "name": "tokenId",
          "type": "uint256"
        }
      ],
      "name": "getNumDoors",
      "outputs": [
        {
          "internalType": "uint256",
          "name": "",
          "type": "uint256"
        }
      ],
      "stateMutability": "view",
      "type": "function"
    },
    {
      "inputs": [
        {
          "internalType": "uint256",
          "name": "tokenId",
          "type": "uint256"
        }
      ],
      "name": "getNumPoints",
      "outputs": [
        {
          "internalType": "uint256",
          "name": "",
          "type": "uint256"
        }
      ],
      "stateMutability": "view",
      "type": "function"
    },
    {
      "inputs": [
        {
          "internalType": "uint256",
          "name": "tokenId",
          "type": "uint256"
        }
      ],
      "name": "getSize",
      "outputs": [
        {
          "internalType": "uint8",
          "name": "",
          "type": "uint8"
        }
      ],
      "stateMutability": "view",
      "type": "function"
    },
    {
      "inputs": [
        {
          "internalType": "uint256",
          "name": "tokenId",
          "type": "uint256"
        }
      ],
      "name": "getSvg",
      "outputs": [
        {
          "internalType": "string",
          "name": "",
          "type": "string"
        }
      ],
      "stateMutability": "view",
      "type": "function"
    },
    {
      "inputs": [
        {
          "internalType": "address",
          "name": "owner",
          "type": "address"
        },
        {
          "internalType": "address",
          "name": "operator",
          "type": "address"
        }
      ],
      "name": "isApprovedForAll",
      "outputs": [
        {
          "internalType": "bool",
          "name": "",
          "type": "bool"
        }
      ],
      "stateMutability": "view",
      "type": "function"
    },
    {
      "inputs": [
        {
          "internalType": "uint256",
          "name": "tokenId",
          "type": "uint256"
        }
      ],
      "name": "mint",
      "outputs": [],
      "stateMutability": "nonpayable",
      "type": "function"
    },
    {
      "inputs": [],
      "name": "name",
      "outputs": [
        {
          "internalType": "string",
          "name": "",
          "type": "string"
        }
      ],
      "stateMutability": "view",
      "type": "function"
    },
    {
      "inputs": [],
      "name": "openClaim",
      "outputs": [],
      "stateMutability": "nonpayable",
      "type": "function"
    },
    {
      "inputs": [],
      "name": "owner",
      "outputs": [
        {
          "internalType": "address",
          "name": "",
          "type": "address"
        }
      ],
      "stateMutability": "view",
      "type": "function"
    },
    {
      "inputs": [
        {
          "internalType": "uint256",
          "name": "tokenId",
          "type": "uint256"
        }
      ],
      "name": "ownerOf",
      "outputs": [
        {
          "internalType": "address",
          "name": "",
          "type": "address"
        }
      ],
      "stateMutability": "view",
      "type": "function"
    },
    {
      "inputs": [],
      "name": "price",
      "outputs": [
        {
          "internalType": "uint256",
          "name": "",
          "type": "uint256"
        }
      ],
      "stateMutability": "view",
      "type": "function"
    },
    {
      "inputs": [],
      "name": "render",
      "outputs": [
        {
          "internalType": "contract IDungeonsRender",
          "name": "",
          "type": "address"
        }
      ],
      "stateMutability": "view",
      "type": "function"
    },
    {
      "inputs": [],
      "name": "renounceOwnership",
      "outputs": [],
      "stateMutability": "nonpayable",
      "type": "function"
    },
    {
      "inputs": [],
      "name": "restricted",
      "outputs": [
        {
          "internalType": "bool",
          "name": "",
          "type": "bool"
        }
      ],
      "stateMutability": "view",
      "type": "function"
    },
    {
      "inputs": [
        {
          "internalType": "address",
          "name": "from",
          "type": "address"
        },
        {
          "internalType": "address",
          "name": "to",
          "type": "address"
        },
        {
          "internalType": "uint256",
          "name": "tokenId",
          "type": "uint256"
        }
      ],
      "name": "safeTransferFrom",
      "outputs": [],
      "stateMutability": "nonpayable",
      "type": "function"
    },
    {
      "inputs": [
        {
          "internalType": "address",
          "name": "from",
          "type": "address"
        },
        {
          "internalType": "address",
          "name": "to",
          "type": "address"
        },
        {
          "internalType": "uint256",
          "name": "tokenId",
          "type": "uint256"
        },
        {
          "internalType": "bytes",
          "name": "_data",
          "type": "bytes"
        }
      ],
      "name": "safeTransferFrom",
      "outputs": [],
      "stateMutability": "nonpayable",
      "type": "function"
    },
    {
      "inputs": [],
      "name": "seeder",
      "outputs": [
        {
          "internalType": "contract IDungeonsSeeder",
          "name": "",
          "type": "address"
        }
      ],
      "stateMutability": "view",
      "type": "function"
    },
    {
      "inputs": [
        {
          "internalType": "uint256",
          "name": "",
          "type": "uint256"
        }
      ],
      "name": "seeds",
      "outputs": [
        {
          "internalType": "uint256",
          "name": "",
          "type": "uint256"
        }
      ],
      "stateMutability": "view",
      "type": "function"
    },
    {
      "inputs": [
        {
          "internalType": "address",
          "name": "operator",
          "type": "address"
        },
        {
          "internalType": "bool",
          "name": "approved",
          "type": "bool"
        }
      ],
      "name": "setApprovalForAll",
      "outputs": [],
      "stateMutability": "nonpayable",
      "type": "function"
    },
    {
      "inputs": [
        {
          "internalType": "bytes4",
          "name": "interfaceId",
          "type": "bytes4"
        }
      ],
      "name": "supportsInterface",
      "outputs": [
        {
          "internalType": "bool",
          "name": "",
          "type": "bool"
        }
      ],
      "stateMutability": "view",
      "type": "function"
    },
    {
      "inputs": [],
      "name": "symbol",
      "outputs": [
        {
          "internalType": "string",
          "name": "",
          "type": "string"
        }
      ],
      "stateMutability": "view",
      "type": "function"
    },
    {
      "inputs": [
        {
          "internalType": "uint256",
          "name": "index",
          "type": "uint256"
        }
      ],
      "name": "tokenByIndex",
      "outputs": [
        {
          "internalType": "uint256",
          "name": "",
          "type": "uint256"
        }
      ],
      "stateMutability": "view",
      "type": "function"
    },
    {
      "inputs": [
        {
          "internalType": "address",
          "name": "owner",
          "type": "address"
        },
        {
          "internalType": "uint256",
          "name": "index",
          "type": "uint256"
        }
      ],
      "name": "tokenOfOwnerByIndex",
      "outputs": [
        {
          "internalType": "uint256",
          "name": "",
          "type": "uint256"
        }
      ],
      "stateMutability": "view",
      "type": "function"
    },
    {
      "inputs": [
        {
          "internalType": "uint256",
          "name": "tokenId",
          "type": "uint256"
        }
      ],
      "name": "tokenURI",
      "outputs": [
        {
          "internalType": "string",
          "name": "",
          "type": "string"
        }
      ],
      "stateMutability": "view",
      "type": "function"
    },
    {
      "inputs": [],
      "name": "totalSupply",
      "outputs": [
        {
          "internalType": "uint256",
          "name": "",
          "type": "uint256"
        }
      ],
      "stateMutability": "view",
      "type": "function"
    },
    {
      "inputs": [
        {
          "internalType": "address",
          "name": "from",
          "type": "address"
        },
        {
          "internalType": "address",
          "name": "to",
          "type": "address"
        },
        {
          "internalType": "uint256",
          "name": "tokenId",
          "type": "uint256"
        }
      ],
      "name": "transferFrom",
      "outputs": [],
      "stateMutability": "nonpayable",
      "type": "function"
    },
    {
      "inputs": [
        {
          "internalType": "address",
          "name": "newOwner",
          "type": "address"
        }
      ],
      "name": "transferOwnership",
      "outputs": [],
      "stateMutability": "nonpayable",
      "type": "function"
    },
    {
      "inputs": [
        {
          "internalType": "address payable",
          "name": "recipient",
          "type": "address"
        },
        {
          "internalType": "uint256",
          "name": "amount",
          "type": "uint256"
        }
      ],
      "name": "withdraw",
      "outputs": [],
      "stateMutability": "nonpayable",
      "type": "function"
    }
  ],
  "bytecode": "0x608060405260006011556001601260006101000a81548160ff02191690831515021790555066b1a2bc2ec500006013553480156200003c57600080fd5b5060405162005a8238038062005a82833981810160405281019062000062919062000412565b6040518060400160405280601181526020017f454e53206d616b65205068694c616e64730000000000000000000000000000008152506040518060400160405280600781526020017f5048494c414e44000000000000000000000000000000000000000000000000008152508160009080519060200190620000e692919062000306565b508060019080519060200190620000ff92919062000306565b5050506001600a819055506200012a6200011e6200023860201b60201c565b6200024060201b60201c565b83601060006101000a81548173ffffffffffffffffffffffffffffffffffffffff021916908373ffffffffffffffffffffffffffffffffffffffff16021790555082600c60006101000a81548173ffffffffffffffffffffffffffffffffffffffff021916908373ffffffffffffffffffffffffffffffffffffffff16021790555081600d60006101000a81548173ffffffffffffffffffffffffffffffffffffffff021916908373ffffffffffffffffffffffffffffffffffffffff16021790555080600e60006101000a81548173ffffffffffffffffffffffffffffffffffffffff021916908373ffffffffffffffffffffffffffffffffffffffff16021790555050505050620005cf565b600033905090565b6000600b60009054906101000a900473ffffffffffffffffffffffffffffffffffffffff16905081600b60006101000a81548173ffffffffffffffffffffffffffffffffffffffff021916908373ffffffffffffffffffffffffffffffffffffffff1602179055508173ffffffffffffffffffffffffffffffffffffffff168173ffffffffffffffffffffffffffffffffffffffff167f8be0079c531659141344cd1fd0a4f28419497f9722a3daafe3b4186f6b6457e060405160405180910390a35050565b828054620003149062000502565b90600052602060002090601f01602090048101928262000338576000855562000384565b82601f106200035357805160ff191683800117855562000384565b8280016001018555821562000384579182015b828111156200038357825182559160200191906001019062000366565b5b50905062000393919062000397565b5090565b5b80821115620003b257600081600090555060010162000398565b5090565b600081519050620003c78162000567565b92915050565b600081519050620003de8162000581565b92915050565b600081519050620003f5816200059b565b92915050565b6000815190506200040c81620005b5565b92915050565b600080600080608085870312156200042957600080fd5b60006200043987828801620003fb565b94505060206200044c87828801620003cd565b93505060406200045f87828801620003b6565b92505060606200047287828801620003e4565b91505092959194509250565b60006200048b82620004e2565b9050919050565b60006200049f826200047e565b9050919050565b6000620004b3826200047e565b9050919050565b6000620004c7826200047e565b9050919050565b6000620004db826200047e565b9050919050565b600073ffffffffffffffffffffffffffffffffffffffff82169050919050565b600060028204905060018216806200051b57607f821691505b6020821081141562000532576200053162000538565b5b50919050565b7f4e487b7100000000000000000000000000000000000000000000000000000000600052602260045260246000fd5b620005728162000492565b81146200057e57600080fd5b50565b6200058c81620004a6565b81146200059857600080fd5b50565b620005a681620004ba565b8114620005b257600080fd5b50565b620005c081620004ce565b8114620005cc57600080fd5b50565b6154a380620005df6000396000f3fe608060405234801561001057600080fd5b50600436106102275760003560e01c806370a0823111610130578063b88d4fde116100b8578063e834a8341161007c578063e834a834146106c8578063e985e9c5146106e6578063f0503e8014610716578063f2fde38b14610746578063f3fef3a31461076257610227565b8063b88d4fde146105fc578063c87b56dd14610618578063cc6dd94714610648578063d607497a1461067a578063db9ee4451461069857610227565b806395d89b41116100ff57806395d89b4114610558578063a035b1fe14610576578063a0712d6814610594578063a22cb465146105b0578063b0dc78fa146105cc57610227565b806370a08231146104e2578063715018a6146105125780637afa1eed1461051c5780638da5cb5b1461053a57610227565b80632f745c59116101b35780636352211e116101825780636352211e14610416578063684931ed146104465780636b8ff574146104645780636db40800146104945780637072c6b1146104c457610227565b80632f745c591461036a5780633bb314161461039a57806342842e0e146103ca5780634f6ccce7146103e657610227565b8063081812fc116101fa578063081812fc146102da578063095ea7b31461030a57806318160ddd1461032657806323b872dd14610344578063293cdbf11461036057610227565b8063012921351461022c57806301ffc9a71461025c578063023c23db1461028c57806306fdde03146102bc575b600080fd5b61024660048036038101906102419190613bb0565b61077e565b60405161025391906144be565b60405180910390f35b610276600480360381019061027191906139f6565b610864565b60405161028391906144a3565b60405180910390f35b6102a660048036038101906102a19190613bb0565b6108de565b6040516102b3919061493d565b60405180910390f35b6102c46109ae565b6040516102d19190614531565b60405180910390f35b6102f460048036038101906102ef9190613bb0565b610a40565b60405161030191906143ce565b60405180910390f35b610324600480360381019061031f9190613923565b610ac5565b005b61032e610bdd565b60405161033b91906148b4565b60405180910390f35b61035e6004803603810190610359919061381d565b610bea565b005b610368610c4a565b005b610384600480360381019061037f9190613923565b610d48565b60405161039191906148b4565b60405180910390f35b6103b460048036038101906103af9190613bb0565b610ded565b6040516103c191906148b4565b60405180910390f35b6103e460048036038101906103df919061381d565b610ed3565b005b61040060048036038101906103fb9190613bb0565b610ef3565b60405161040d91906148b4565b60405180910390f35b610430600480360381019061042b9190613bb0565b610f8a565b60405161043d91906143ce565b60405180910390f35b61044e61103c565b60405161045b9190614516565b60405180910390f35b61047e60048036038101906104799190613bb0565b611062565b60405161048b9190614531565b60405180910390f35b6104ae60048036038101906104a99190613bb0565b61113f565b6040516104bb919061493d565b60405180910390f35b6104cc61120f565b6040516104d991906144a3565b60405180910390f35b6104fc60048036038101906104f79190613753565b611222565b60405161050991906148b4565b60405180910390f35b61051a6112da565b005b610524611362565b60405161053191906144e0565b60405180910390f35b610542611388565b60405161054f91906143ce565b60405180910390f35b6105606113b2565b60405161056d9190614531565b60405180910390f35b61057e611444565b60405161058b91906148b4565b60405180910390f35b6105ae60048036038101906105a99190613bb0565b61144a565b005b6105ca60048036038101906105c591906138e7565b61175b565b005b6105e660048036038101906105e19190613bb0565b611771565b6040516105f39190614531565b60405180910390f35b6106166004803603810190610611919061386c565b611856565b005b610632600480360381019061062d9190613bb0565b6118b8565b60405161063f9190614531565b60405180910390f35b610662600480360381019061065d9190613bb0565b611b3f565b60405161067193929190614457565b60405180910390f35b610682611c38565b60405161068f91906144fb565b60405180910390f35b6106b260048036038101906106ad9190613bb0565b611c5e565b6040516106bf91906148b4565b60405180910390f35b6106d0611d44565b6040516106dd91906148b4565b60405180910390f35b61070060048036038101906106fb91906137e1565b611d4a565b60405161070d91906144a3565b60405180910390f35b610730600480360381019061072b9190613bb0565b611dde565b60405161073d91906148b4565b60405180910390f35b610760600480360381019061075b9190613753565b611df6565b005b61077c600480360381019061077791906137a5565b611eee565b005b6060610789826120b4565b6000600d60009054906101000a900473ffffffffffffffffffffffffffffffffffffffff1673ffffffffffffffffffffffffffffffffffffffff1663ff8f8c18600f6000868152602001908152602001600020546107e6866108de565b6040518363ffffffff1660e01b8152600401610803929190614914565b60006040518083038186803b15801561081b57600080fd5b505afa15801561082f573d6000803e3d6000fd5b505050506040513d6000823e3d601f19601f820116820180604052508101906108589190613a9c565b50905080915050919050565b60007f780e9d63000000000000000000000000000000000000000000000000000000007bffffffffffffffffffffffffffffffffffffffffffffffffffffffff1916827bffffffffffffffffffffffffffffffffffffffffffffffffffffffff191614806108d757506108d68261214f565b5b9050919050565b60006108e9826120b4565b600e60009054906101000a900473ffffffffffffffffffffffffffffffffffffffff1673ffffffffffffffffffffffffffffffffffffffff1663023c23db600f6000858152602001908152602001600020546040518263ffffffff1660e01b815260040161095791906148b4565b60206040518083038186803b15801561096f57600080fd5b505afa158015610983573d6000803e3d6000fd5b505050506040513d601f19601f820116820180604052508101906109a79190613c3e565b9050919050565b6060600080546109bd90614cd0565b80601f01602080910402602001604051908101604052809291908181526020018280546109e990614cd0565b8015610a365780601f10610a0b57610100808354040283529160200191610a36565b820191906000526020600020905b815481529060010190602001808311610a1957829003601f168201915b5050505050905090565b6000610a4b82612231565b610a8a576040517f08c379a0000000000000000000000000000000000000000000000000000000008152600401610a8190614733565b60405180910390fd5b6004600083815260200190815260200160002060009054906101000a900473ffffffffffffffffffffffffffffffffffffffff169050919050565b6000610ad082610f8a565b90508073ffffffffffffffffffffffffffffffffffffffff168373ffffffffffffffffffffffffffffffffffffffff161415610b41576040517f08c379a0000000000000000000000000000000000000000000000000000000008152600401610b38906147b3565b60405180910390fd5b8073ffffffffffffffffffffffffffffffffffffffff16610b6061229d565b73ffffffffffffffffffffffffffffffffffffffff161480610b8f5750610b8e81610b8961229d565b611d4a565b5b610bce576040517f08c379a0000000000000000000000000000000000000000000000000000000008152600401610bc5906146b3565b60405180910390fd5b610bd883836122a5565b505050565b6000600880549050905090565b610bfb610bf561229d565b8261235e565b610c3a576040517f08c379a0000000000000000000000000000000000000000000000000000000008152600401610c31906147f3565b60405180910390fd5b610c4583838361243c565b505050565b6002600a541415610c90576040517f08c379a0000000000000000000000000000000000000000000000000000000008152600401610c8790614833565b60405180910390fd5b6002600a81905550610ca061229d565b73ffffffffffffffffffffffffffffffffffffffff16610cbe611388565b73ffffffffffffffffffffffffffffffffffffffff1614610d14576040517f08c379a0000000000000000000000000000000000000000000000000000000008152600401610d0b90614753565b60405180910390fd5b601260009054906101000a900460ff1615601260006101000a81548160ff0219169083151502179055506001600a81905550565b6000610d5383611222565b8210610d94576040517f08c379a0000000000000000000000000000000000000000000000000000000008152600401610d8b90614553565b60405180910390fd5b600660008473ffffffffffffffffffffffffffffffffffffffff1673ffffffffffffffffffffffffffffffffffffffff168152602001908152602001600020600083815260200190815260200160002054905092915050565b6000610df8826120b4565b6000600d60009054906101000a900473ffffffffffffffffffffffffffffffffffffffff1673ffffffffffffffffffffffffffffffffffffffff16634d4c71a3600f600086815260200190815260200160002054610e55866108de565b6040518363ffffffff1660e01b8152600401610e72929190614914565b60006040518083038186803b158015610e8a57600080fd5b505afa158015610e9e573d6000803e3d6000fd5b505050506040513d6000823e3d601f19601f82011682018060405250810190610ec79190613a48565b91505080915050919050565b610eee83838360405180602001604052806000815250611856565b505050565b6000610efd610bdd565b8210610f3e576040517f08c379a0000000000000000000000000000000000000000000000000000000008152600401610f3590614813565b60405180910390fd5b60088281548110610f78577f4e487b7100000000000000000000000000000000000000000000000000000000600052603260045260246000fd5b90600052602060002001549050919050565b6000806002600084815260200190815260200160002060009054906101000a900473ffffffffffffffffffffffffffffffffffffffff169050600073ffffffffffffffffffffffffffffffffffffffff168173ffffffffffffffffffffffffffffffffffffffff161415611033576040517f08c379a000000000000000000000000000000000000000000000000000000000815260040161102a906146f3565b60405180910390fd5b80915050919050565b600e60009054906101000a900473ffffffffffffffffffffffffffffffffffffffff1681565b606061106d826120b4565b6000600e60009054906101000a900473ffffffffffffffffffffffffffffffffffffffff1673ffffffffffffffffffffffffffffffffffffffff16636b8ff574600f6000868152602001908152602001600020546040518263ffffffff1660e01b81526004016110dd91906148b4565b60006040518083038186803b1580156110f557600080fd5b505afa158015611109573d6000803e3d6000fd5b505050506040513d6000823e3d601f19601f820116820180604052508101906111329190613b31565b5050905080915050919050565b600061114a826120b4565b600e60009054906101000a900473ffffffffffffffffffffffffffffffffffffffff1673ffffffffffffffffffffffffffffffffffffffff16636db40800600f6000858152602001908152602001600020546040518263ffffffff1660e01b81526004016111b891906148b4565b60206040518083038186803b1580156111d057600080fd5b505afa1580156111e4573d6000803e3d6000fd5b505050506040513d601f19601f820116820180604052508101906112089190613c3e565b9050919050565b601260009054906101000a900460ff1681565b60008073ffffffffffffffffffffffffffffffffffffffff168273ffffffffffffffffffffffffffffffffffffffff161415611293576040517f08c379a000000000000000000000000000000000000000000000000000000000815260040161128a906146d3565b60405180910390fd5b600360008373ffffffffffffffffffffffffffffffffffffffff1673ffffffffffffffffffffffffffffffffffffffff168152602001908152602001600020549050919050565b6112e261229d565b73ffffffffffffffffffffffffffffffffffffffff16611300611388565b73ffffffffffffffffffffffffffffffffffffffff1614611356576040517f08c379a000000000000000000000000000000000000000000000000000000000815260040161134d90614753565b60405180910390fd5b6113606000612698565b565b600d60009054906101000a900473ffffffffffffffffffffffffffffffffffffffff1681565b6000600b60009054906101000a900473ffffffffffffffffffffffffffffffffffffffff16905090565b6060600180546113c190614cd0565b80601f01602080910402602001604051908101604052809291908181526020018280546113ed90614cd0565b801561143a5780601f1061140f5761010080835404028352916020019161143a565b820191906000526020600020905b81548152906001019060200180831161141d57829003601f168201915b5050505050905090565b60135481565b6002600a541415611490576040517f08c379a000000000000000000000000000000000000000000000000000000000815260040161148790614833565b60405180910390fd5b6002600a81905550612328601154106114de576040517f08c379a00000000000000000000000000000000000000000000000000000000081526004016114d5906147d3565b60405180910390fd5b601260009054906101000a900460ff1615806115cf57503373ffffffffffffffffffffffffffffffffffffffff16601060009054906101000a900473ffffffffffffffffffffffffffffffffffffffff1673ffffffffffffffffffffffffffffffffffffffff16636352211e836040518263ffffffff1660e01b815260040161156791906148b4565b60206040518083038186803b15801561157f57600080fd5b505afa158015611593573d6000803e3d6000fd5b505050506040513d601f19601f820116820180604052508101906115b7919061377c565b73ffffffffffffffffffffffffffffffffffffffff16145b61160e576040517f08c379a000000000000000000000000000000000000000000000000000000000815260040161160590614693565b60405180910390fd5b600060116000815461161f90614d33565b9190508190559050600e60009054906101000a900473ffffffffffffffffffffffffffffffffffffffff1673ffffffffffffffffffffffffffffffffffffffff1663e0d4ea37826040518263ffffffff1660e01b815260040161168291906148b4565b60206040518083038186803b15801561169a57600080fd5b505afa1580156116ae573d6000803e3d6000fd5b505050506040513d601f19601f820116820180604052508101906116d29190613bd9565b600f6000838152602001908152602001600020819055506116fa6116f461229d565b8261275e565b61170261229d565b73ffffffffffffffffffffffffffffffffffffffff167f30385c845b448a36257a6a1716e6ad2e1bc2cbe333cde1e69fe849ad6511adfe8260405161174791906148b4565b60405180910390a2506001600a8190555050565b61176d61176661229d565b838361277c565b5050565b6060600061177e836128e9565b9050600c60009054906101000a900473ffffffffffffffffffffffffffffffffffffffff1673ffffffffffffffffffffffffffffffffffffffff166329010f43828360a00151600001518460a00151602001518560a00151604001516040518563ffffffff1660e01b81526004016117f99493929190614853565b60006040518083038186803b15801561181157600080fd5b505afa158015611825573d6000803e3d6000fd5b505050506040513d6000823e3d601f19601f8201168201806040525081019061184e9190613af0565b915050919050565b61186761186161229d565b8361235e565b6118a6576040517f08c379a000000000000000000000000000000000000000000000000000000000815260040161189d906147f3565b60405180910390fd5b6118b284848484612b26565b50505050565b60606118c3826120b4565b60006118ce836128e9565b90506000600267ffffffffffffffff811115611913577f4e487b7100000000000000000000000000000000000000000000000000000000600052604160045260246000fd5b6040519080825280602002602001820160405280156119415781602001602082028036833780820191505090505b509050600d60009054906101000a900473ffffffffffffffffffffffffffffffffffffffff1673ffffffffffffffffffffffffffffffffffffffff166397155f4f8360a00151604001516040518263ffffffff1660e01b81526004016119a79190614435565b604080518083038186803b1580156119be57600080fd5b505afa1580156119d2573d6000803e3d6000fd5b505050506040513d601f19601f820116820180604052508101906119f69190613c02565b82600081518110611a30577f4e487b7100000000000000000000000000000000000000000000000000000000600052603260045260246000fd5b6020026020010183600181518110611a71577f4e487b7100000000000000000000000000000000000000000000000000000000600052603260045260246000fd5b6020026020010182815250828152505050600c60009054906101000a900473ffffffffffffffffffffffffffffffffffffffff1673ffffffffffffffffffffffffffffffffffffffff166319db2b2f8584846040518463ffffffff1660e01b8152600401611ae1939291906148cf565b60006040518083038186803b158015611af957600080fd5b505afa158015611b0d573d6000803e3d6000fd5b505050506040513d6000823e3d601f19601f82011682018060405250810190611b369190613af0565b92505050919050565b6060806060611b4d846120b4565b6000806000600d60009054906101000a900473ffffffffffffffffffffffffffffffffffffffff1673ffffffffffffffffffffffffffffffffffffffff166340070627600f60008a815260200190815260200160002054611bad8a6108de565b6040518363ffffffff1660e01b8152600401611bca929190614914565b60006040518083038186803b158015611be257600080fd5b505afa158015611bf6573d6000803e3d6000fd5b505050506040513d6000823e3d601f19601f82011682018060405250810190611c1f919061395f565b9250925092508282829550955095505050509193909250565b600c60009054906101000a900473ffffffffffffffffffffffffffffffffffffffff1681565b6000611c69826120b4565b6000600d60009054906101000a900473ffffffffffffffffffffffffffffffffffffffff1673ffffffffffffffffffffffffffffffffffffffff1663cd7acca6600f600086815260200190815260200160002054611cc6866108de565b6040518363ffffffff1660e01b8152600401611ce3929190614914565b60006040518083038186803b158015611cfb57600080fd5b505afa158015611d0f573d6000803e3d6000fd5b505050506040513d6000823e3d601f19601f82011682018060405250810190611d389190613a48565b91505080915050919050565b60115481565b6000600560008473ffffffffffffffffffffffffffffffffffffffff1673ffffffffffffffffffffffffffffffffffffffff16815260200190815260200160002060008373ffffffffffffffffffffffffffffffffffffffff1673ffffffffffffffffffffffffffffffffffffffff16815260200190815260200160002060009054906101000a900460ff16905092915050565b600f6020528060005260406000206000915090505481565b611dfe61229d565b73ffffffffffffffffffffffffffffffffffffffff16611e1c611388565b73ffffffffffffffffffffffffffffffffffffffff1614611e72576040517f08c379a0000000000000000000000000000000000000000000000000000000008152600401611e6990614753565b60405180910390fd5b600073ffffffffffffffffffffffffffffffffffffffff168173ffffffffffffffffffffffffffffffffffffffff161415611ee2576040517f08c379a0000000000000000000000000000000000000000000000000000000008152600401611ed9906145b3565b60405180910390fd5b611eeb81612698565b50565b6002600a541415611f34576040517f08c379a0000000000000000000000000000000000000000000000000000000008152600401611f2b90614833565b60405180910390fd5b6002600a81905550611f4461229d565b73ffffffffffffffffffffffffffffffffffffffff16611f62611388565b73ffffffffffffffffffffffffffffffffffffffff1614611fb8576040517f08c379a0000000000000000000000000000000000000000000000000000000008152600401611faf90614753565b60405180910390fd5b80471015611ffb576040517f08c379a0000000000000000000000000000000000000000000000000000000008152600401611ff290614653565b60405180910390fd5b60008273ffffffffffffffffffffffffffffffffffffffff1682604051612021906143b9565b60006040518083038185875af1925050503d806000811461205e576040519150601f19603f3d011682016040523d82523d6000602084013e612063565b606091505b50509050806120a7576040517f08c379a000000000000000000000000000000000000000000000000000000000815260040161209e906145f3565b60405180910390fd5b506001600a819055505050565b6000811180156120c5575061232981105b612104576040517f08c379a00000000000000000000000000000000000000000000000000000000081526004016120fb90614773565b60405180910390fd5b61210d81612231565b61214c576040517f08c379a000000000000000000000000000000000000000000000000000000000815260040161214390614593565b60405180910390fd5b50565b60007f80ac58cd000000000000000000000000000000000000000000000000000000007bffffffffffffffffffffffffffffffffffffffffffffffffffffffff1916827bffffffffffffffffffffffffffffffffffffffffffffffffffffffff1916148061221a57507f5b5e139f000000000000000000000000000000000000000000000000000000007bffffffffffffffffffffffffffffffffffffffffffffffffffffffff1916827bffffffffffffffffffffffffffffffffffffffffffffffffffffffff1916145b8061222a575061222982612b82565b5b9050919050565b60008073ffffffffffffffffffffffffffffffffffffffff166002600084815260200190815260200160002060009054906101000a900473ffffffffffffffffffffffffffffffffffffffff1673ffffffffffffffffffffffffffffffffffffffff1614159050919050565b600033905090565b816004600083815260200190815260200160002060006101000a81548173ffffffffffffffffffffffffffffffffffffffff021916908373ffffffffffffffffffffffffffffffffffffffff160217905550808273ffffffffffffffffffffffffffffffffffffffff1661231883610f8a565b73ffffffffffffffffffffffffffffffffffffffff167f8c5be1e5ebec7d5bd14f71427d1e84f3dd0314c0f7b2291e5b200ac8c7c3b92560405160405180910390a45050565b600061236982612231565b6123a8576040517f08c379a000000000000000000000000000000000000000000000000000000000815260040161239f90614673565b60405180910390fd5b60006123b383610f8a565b90508073ffffffffffffffffffffffffffffffffffffffff168473ffffffffffffffffffffffffffffffffffffffff16148061242257508373ffffffffffffffffffffffffffffffffffffffff1661240a84610a40565b73ffffffffffffffffffffffffffffffffffffffff16145b8061243357506124328185611d4a565b5b91505092915050565b8273ffffffffffffffffffffffffffffffffffffffff1661245c82610f8a565b73ffffffffffffffffffffffffffffffffffffffff16146124b2576040517f08c379a00000000000000000000000000000000000000000000000000000000081526004016124a990614793565b60405180910390fd5b600073ffffffffffffffffffffffffffffffffffffffff168273ffffffffffffffffffffffffffffffffffffffff161415612522576040517f08c379a000000000000000000000000000000000000000000000000000000000815260040161251990614613565b60405180910390fd5b61252d838383612bec565b6125386000826122a5565b6001600360008573ffffffffffffffffffffffffffffffffffffffff1673ffffffffffffffffffffffffffffffffffffffff16815260200190815260200160002060008282546125889190614b49565b925050819055506001600360008473ffffffffffffffffffffffffffffffffffffffff1673ffffffffffffffffffffffffffffffffffffffff16815260200190815260200160002060008282546125df9190614af3565b92505081905550816002600083815260200190815260200160002060006101000a81548173ffffffffffffffffffffffffffffffffffffffff021916908373ffffffffffffffffffffffffffffffffffffffff160217905550808273ffffffffffffffffffffffffffffffffffffffff168473ffffffffffffffffffffffffffffffffffffffff167fddf252ad1be2c89b69c2b068fc378daa952ba7f163c4a11628f55a4df523b3ef60405160405180910390a4505050565b6000600b60009054906101000a900473ffffffffffffffffffffffffffffffffffffffff16905081600b60006101000a81548173ffffffffffffffffffffffffffffffffffffffff021916908373ffffffffffffffffffffffffffffffffffffffff1602179055508173ffffffffffffffffffffffffffffffffffffffff168173ffffffffffffffffffffffffffffffffffffffff167f8be0079c531659141344cd1fd0a4f28419497f9722a3daafe3b4186f6b6457e060405160405180910390a35050565b612778828260405180602001604052806000815250612d00565b5050565b8173ffffffffffffffffffffffffffffffffffffffff168373ffffffffffffffffffffffffffffffffffffffff1614156127eb576040517f08c379a00000000000000000000000000000000000000000000000000000000081526004016127e290614633565b60405180910390fd5b80600560008573ffffffffffffffffffffffffffffffffffffffff1673ffffffffffffffffffffffffffffffffffffffff16815260200190815260200160002060008473ffffffffffffffffffffffffffffffffffffffff1673ffffffffffffffffffffffffffffffffffffffff16815260200190815260200160002060006101000a81548160ff0219169083151502179055508173ffffffffffffffffffffffffffffffffffffffff168373ffffffffffffffffffffffffffffffffffffffff167f17307eab39ab6107e8899845ad3d59bd9653f200f220920489ca2b5937696c31836040516128dc91906144a3565b60405180910390a3505050565b6128f1613450565b60008060006128ff85611b3f565b925092509250600080600d60009054906101000a900473ffffffffffffffffffffffffffffffffffffffff1673ffffffffffffffffffffffffffffffffffffffff1663ff8f8c18600f60008a8152602001908152602001600020546129638a6108de565b6040518363ffffffff1660e01b8152600401612980929190614914565b60006040518083038186803b15801561299857600080fd5b505afa1580156129ac573d6000803e3d6000fd5b505050506040513d6000823e3d601f19601f820116820180604052508101906129d59190613a9c565b915091506000806000600e60009054906101000a900473ffffffffffffffffffffffffffffffffffffffff1673ffffffffffffffffffffffffffffffffffffffff16636b8ff574600f60008d8152602001908152602001600020546040518263ffffffff1660e01b8152600401612a4c91906148b4565b60006040518083038186803b158015612a6457600080fd5b505afa158015612a78573d6000803e3d6000fd5b505050506040513d6000823e3d601f19601f82011682018060405250810190612aa19190613b31565b925092509250604051806101000160405280612abc8c6108de565b60ff168152602001612acd8c61113f565b60ff1681526020018560ff1681526020018260ff16815260200186815260200160405180606001604052808b81526020018a81526020018981525081526020018381526020018481525098505050505050505050919050565b612b3184848461243c565b612b3d84848484612d5b565b612b7c576040517f08c379a0000000000000000000000000000000000000000000000000000000008152600401612b7390614573565b60405180910390fd5b50505050565b60007f01ffc9a7000000000000000000000000000000000000000000000000000000007bffffffffffffffffffffffffffffffffffffffffffffffffffffffff1916827bffffffffffffffffffffffffffffffffffffffffffffffffffffffff1916149050919050565b612bf7838383612ef2565b600073ffffffffffffffffffffffffffffffffffffffff168373ffffffffffffffffffffffffffffffffffffffff161415612c3a57612c3581612ef7565b612c79565b8173ffffffffffffffffffffffffffffffffffffffff168373ffffffffffffffffffffffffffffffffffffffff1614612c7857612c778382612f40565b5b5b600073ffffffffffffffffffffffffffffffffffffffff168273ffffffffffffffffffffffffffffffffffffffff161415612cbc57612cb7816130ad565b612cfb565b8273ffffffffffffffffffffffffffffffffffffffff168273ffffffffffffffffffffffffffffffffffffffff1614612cfa57612cf982826131f0565b5b5b505050565b612d0a838361326f565b612d176000848484612d5b565b612d56576040517f08c379a0000000000000000000000000000000000000000000000000000000008152600401612d4d90614573565b60405180910390fd5b505050565b6000612d7c8473ffffffffffffffffffffffffffffffffffffffff1661343d565b15612ee5578373ffffffffffffffffffffffffffffffffffffffff1663150b7a02612da561229d565b8786866040518563ffffffff1660e01b8152600401612dc794939291906143e9565b602060405180830381600087803b158015612de157600080fd5b505af1925050508015612e1257506040513d601f19601f82011682018060405250810190612e0f9190613a1f565b60015b612e95573d8060008114612e42576040519150601f19603f3d011682016040523d82523d6000602084013e612e47565b606091505b50600081511415612e8d576040517f08c379a0000000000000000000000000000000000000000000000000000000008152600401612e8490614573565b60405180910390fd5b805181602001fd5b63150b7a0260e01b7bffffffffffffffffffffffffffffffffffffffffffffffffffffffff1916817bffffffffffffffffffffffffffffffffffffffffffffffffffffffff191614915050612eea565b600190505b949350505050565b505050565b6008805490506009600083815260200190815260200160002081905550600881908060018154018082558091505060019003906000526020600020016000909190919091505550565b60006001612f4d84611222565b612f579190614b49565b905060006007600084815260200190815260200160002054905081811461303c576000600660008673ffffffffffffffffffffffffffffffffffffffff1673ffffffffffffffffffffffffffffffffffffffff168152602001908152602001600020600084815260200190815260200160002054905080600660008773ffffffffffffffffffffffffffffffffffffffff1673ffffffffffffffffffffffffffffffffffffffff168152602001908152602001600020600084815260200190815260200160002081905550816007600083815260200190815260200160002081905550505b6007600084815260200190815260200160002060009055600660008573ffffffffffffffffffffffffffffffffffffffff1673ffffffffffffffffffffffffffffffffffffffff16815260200190815260200160002060008381526020019081526020016000206000905550505050565b600060016008805490506130c19190614b49565b9050600060096000848152602001908152602001600020549050600060088381548110613117577f4e487b7100000000000000000000000000000000000000000000000000000000600052603260045260246000fd5b90600052602060002001549050806008838154811061315f577f4e487b7100000000000000000000000000000000000000000000000000000000600052603260045260246000fd5b9060005260206000200181905550816009600083815260200190815260200160002081905550600960008581526020019081526020016000206000905560088054806131d4577f4e487b7100000000000000000000000000000000000000000000000000000000600052603160045260246000fd5b6001900381819060005260206000200160009055905550505050565b60006131fb83611222565b905081600660008573ffffffffffffffffffffffffffffffffffffffff1673ffffffffffffffffffffffffffffffffffffffff168152602001908152602001600020600083815260200190815260200160002081905550806007600084815260200190815260200160002081905550505050565b600073ffffffffffffffffffffffffffffffffffffffff168273ffffffffffffffffffffffffffffffffffffffff1614156132df576040517f08c379a00000000000000000000000000000000000000000000000000000000081526004016132d690614713565b60405180910390fd5b6132e881612231565b15613328576040517f08c379a000000000000000000000000000000000000000000000000000000000815260040161331f906145d3565b60405180910390fd5b61333460008383612bec565b6001600360008473ffffffffffffffffffffffffffffffffffffffff1673ffffffffffffffffffffffffffffffffffffffff16815260200190815260200160002060008282546133849190614af3565b92505081905550816002600083815260200190815260200160002060006101000a81548173ffffffffffffffffffffffffffffffffffffffff021916908373ffffffffffffffffffffffffffffffffffffffff160217905550808273ffffffffffffffffffffffffffffffffffffffff16600073ffffffffffffffffffffffffffffffffffffffff167fddf252ad1be2c89b69c2b068fc378daa952ba7f163c4a11628f55a4df523b3ef60405160405180910390a45050565b600080823b905060008111915050919050565b604051806101000160405280600060ff168152602001600060ff168152602001600060ff168152602001600060ff168152602001606081526020016134936134a7565b815260200160608152602001606081525090565b60405180606001604052806060815260200160608152602001606081525090565b60006134db6134d68461497d565b614958565b905080838252602082019050828560208602820111156134fa57600080fd5b60005b8581101561352a5781613510888261373e565b8452602084019350602083019250506001810190506134fd565b5050509392505050565b6000613547613542846149a9565b614958565b90508281526020810184848401111561355f57600080fd5b61356a848285614c8e565b509392505050565b6000613585613580846149a9565b614958565b90508281526020810184848401111561359d57600080fd5b6135a8848285614c9d565b509392505050565b60006135c36135be846149da565b614958565b9050828152602081018484840111156135db57600080fd5b6135e6848285614c9d565b509392505050565b6000813590506135fd816153e3565b92915050565b600081519050613612816153e3565b92915050565b600081359050613627816153fa565b92915050565b600082601f83011261363e57600080fd5b815161364e8482602086016134c8565b91505092915050565b60008135905061366681615411565b92915050565b60008135905061367b81615428565b92915050565b60008151905061369081615428565b92915050565b600082601f8301126136a757600080fd5b81356136b7848260208601613534565b91505092915050565b600082601f8301126136d157600080fd5b81516136e1848260208601613572565b91505092915050565b600082601f8301126136fb57600080fd5b815161370b8482602086016135b0565b91505092915050565b6000813590506137238161543f565b92915050565b6000815190506137388161543f565b92915050565b60008151905061374d81615456565b92915050565b60006020828403121561376557600080fd5b6000613773848285016135ee565b91505092915050565b60006020828403121561378e57600080fd5b600061379c84828501613603565b91505092915050565b600080604083850312156137b857600080fd5b60006137c685828601613618565b92505060206137d785828601613714565b9150509250929050565b600080604083850312156137f457600080fd5b6000613802858286016135ee565b9250506020613813858286016135ee565b9150509250929050565b60008060006060848603121561383257600080fd5b6000613840868287016135ee565b9350506020613851868287016135ee565b925050604061386286828701613714565b9150509250925092565b6000806000806080858703121561388257600080fd5b6000613890878288016135ee565b94505060206138a1878288016135ee565b93505060406138b287828801613714565b925050606085013567ffffffffffffffff8111156138cf57600080fd5b6138db87828801613696565b91505092959194509250565b600080604083850312156138fa57600080fd5b6000613908858286016135ee565b925050602061391985828601613657565b9150509250929050565b6000806040838503121561393657600080fd5b6000613944858286016135ee565b925050602061395585828601613714565b9150509250929050565b60008060006060848603121561397457600080fd5b600084015167ffffffffffffffff81111561398e57600080fd5b61399a8682870161362d565b935050602084015167ffffffffffffffff8111156139b757600080fd5b6139c38682870161362d565b925050604084015167ffffffffffffffff8111156139e057600080fd5b6139ec8682870161362d565b9150509250925092565b600060208284031215613a0857600080fd5b6000613a168482850161366c565b91505092915050565b600060208284031215613a3157600080fd5b6000613a3f84828501613681565b91505092915050565b60008060408385031215613a5b57600080fd5b600083015167ffffffffffffffff811115613a7557600080fd5b613a81858286016136c0565b9250506020613a9285828601613729565b9150509250929050565b60008060408385031215613aaf57600080fd5b600083015167ffffffffffffffff811115613ac957600080fd5b613ad5858286016136c0565b9250506020613ae68582860161373e565b9150509250929050565b600060208284031215613b0257600080fd5b600082015167ffffffffffffffff811115613b1c57600080fd5b613b28848285016136ea565b91505092915050565b600080600060608486031215613b4657600080fd5b600084015167ffffffffffffffff811115613b6057600080fd5b613b6c868287016136ea565b935050602084015167ffffffffffffffff811115613b8957600080fd5b613b95868287016136ea565b9250506040613ba68682870161373e565b9150509250925092565b600060208284031215613bc257600080fd5b6000613bd084828501613714565b91505092915050565b600060208284031215613beb57600080fd5b6000613bf984828501613729565b91505092915050565b60008060408385031215613c1557600080fd5b6000613c2385828601613729565b9250506020613c3485828601613729565b9150509250929050565b600060208284031215613c5057600080fd5b6000613c5e8482850161373e565b91505092915050565b6000613c73838361436e565b60208301905092915050565b6000613c8b838361439b565b60208301905092915050565b613ca081614b7d565b82525050565b6000613cb182614a2b565b613cbb8185614a71565b9350613cc683614a0b565b8060005b83811015613cf7578151613cde8882613c67565b9750613ce983614a57565b925050600181019050613cca565b5085935050505092915050565b6000613d0f82614a36565b613d198185614a82565b9350613d2483614a1b565b8060005b83811015613d55578151613d3c8882613c7f565b9750613d4783614a64565b925050600181019050613d28565b5085935050505092915050565b6000613d6d82614a36565b613d778185614a93565b9350613d8283614a1b565b8060005b83811015613db3578151613d9a8882613c7f565b9750613da583614a64565b925050600181019050613d86565b5085935050505092915050565b613dc981614ba1565b82525050565b6000613dda82614a41565b613de48185614aa4565b9350613df4818560208601614c9d565b613dfd81614e09565b840191505092915050565b6000613e1382614a41565b613e1d8185614ab5565b9350613e2d818560208601614c9d565b613e3681614e09565b840191505092915050565b613e4a81614c10565b82525050565b613e5981614c34565b82525050565b613e6881614c58565b82525050565b6000613e7982614a4c565b613e838185614ad1565b9350613e93818560208601614c9d565b613e9c81614e09565b840191505092915050565b6000613eb282614a4c565b613ebc8185614ae2565b9350613ecc818560208601614c9d565b613ed581614e09565b840191505092915050565b6000613eed602b83614ae2565b9150613ef882614e1a565b604082019050919050565b6000613f10603283614ae2565b9150613f1b82614e69565b604082019050919050565b6000613f33601783614ae2565b9150613f3e82614eb8565b602082019050919050565b6000613f56602683614ae2565b9150613f6182614ee1565b604082019050919050565b6000613f79601c83614ae2565b9150613f8482614f30565b602082019050919050565b6000613f9c600f83614ae2565b9150613fa782614f59565b602082019050919050565b6000613fbf602483614ae2565b9150613fca82614f82565b604082019050919050565b6000613fe2601983614ae2565b9150613fed82614fd1565b602082019050919050565b6000614005601483614ae2565b915061401082614ffa565b602082019050919050565b6000614028602c83614ae2565b915061403382615023565b604082019050919050565b600061404b601283614ae2565b915061405682615072565b602082019050919050565b600061406e603883614ae2565b91506140798261509b565b604082019050919050565b6000614091602a83614ae2565b915061409c826150ea565b604082019050919050565b60006140b4602983614ae2565b91506140bf82615139565b604082019050919050565b60006140d7602083614ae2565b91506140e282615188565b602082019050919050565b60006140fa602c83614ae2565b9150614105826151b1565b604082019050919050565b600061411d602083614ae2565b915061412882615200565b602082019050919050565b6000614140601083614ae2565b915061414b82615229565b602082019050919050565b6000614163602983614ae2565b915061416e82615252565b604082019050919050565b6000614186602183614ae2565b9150614191826152a1565b604082019050919050565b60006141a9600083614ac6565b91506141b4826152f0565b600082019050919050565b60006141cc600e83614ae2565b91506141d7826152f3565b602082019050919050565b60006141ef603183614ae2565b91506141fa8261531c565b604082019050919050565b6000614212602c83614ae2565b915061421d8261536b565b604082019050919050565b6000614235601f83614ae2565b9150614240826153ba565b602082019050919050565b600061010083016000830151614264600086018261439b565b506020830151614277602086018261439b565b50604083015161428a604086018261439b565b50606083015161429d606086018261439b565b50608083015184820360808601526142b58282613dcf565b91505060a083015184820360a08601526142cf8282614310565b91505060c083015184820360c08601526142e98282613e6e565b91505060e083015184820360e08601526143038282613e6e565b9150508091505092915050565b6000606083016000830151848203600086015261432d8282613d04565b915050602083015184820360208601526143478282613d04565b915050604083015184820360408601526143618282613d04565b9150508091505092915050565b61437781614bf9565b82525050565b61438681614bf9565b82525050565b61439581614c7c565b82525050565b6143a481614c03565b82525050565b6143b381614c03565b82525050565b60006143c48261419c565b9150819050919050565b60006020820190506143e36000830184613c97565b92915050565b60006080820190506143fe6000830187613c97565b61440b6020830186613c97565b614418604083018561437d565b818103606083015261442a8184613e08565b905095945050505050565b6000602082019050818103600083015261444f8184613d62565b905092915050565b600060608201905081810360008301526144718186613d62565b905081810360208301526144858185613d62565b905081810360408301526144998184613d62565b9050949350505050565b60006020820190506144b86000830184613dc0565b92915050565b600060208201905081810360008301526144d88184613e08565b905092915050565b60006020820190506144f56000830184613e41565b92915050565b60006020820190506145106000830184613e50565b92915050565b600060208201905061452b6000830184613e5f565b92915050565b6000602082019050818103600083015261454b8184613ea7565b905092915050565b6000602082019050818103600083015261456c81613ee0565b9050919050565b6000602082019050818103600083015261458c81613f03565b9050919050565b600060208201905081810360008301526145ac81613f26565b9050919050565b600060208201905081810360008301526145cc81613f49565b9050919050565b600060208201905081810360008301526145ec81613f6c565b9050919050565b6000602082019050818103600083015261460c81613f8f565b9050919050565b6000602082019050818103600083015261462c81613fb2565b9050919050565b6000602082019050818103600083015261464c81613fd5565b9050919050565b6000602082019050818103600083015261466c81613ff8565b9050919050565b6000602082019050818103600083015261468c8161401b565b9050919050565b600060208201905081810360008301526146ac8161403e565b9050919050565b600060208201905081810360008301526146cc81614061565b9050919050565b600060208201905081810360008301526146ec81614084565b9050919050565b6000602082019050818103600083015261470c816140a7565b9050919050565b6000602082019050818103600083015261472c816140ca565b9050919050565b6000602082019050818103600083015261474c816140ed565b9050919050565b6000602082019050818103600083015261476c81614110565b9050919050565b6000602082019050818103600083015261478c81614133565b9050919050565b600060208201905081810360008301526147ac81614156565b9050919050565b600060208201905081810360008301526147cc81614179565b9050919050565b600060208201905081810360008301526147ec816141bf565b9050919050565b6000602082019050818103600083015261480c816141e2565b9050919050565b6000602082019050818103600083015261482c81614205565b9050919050565b6000602082019050818103600083015261484c81614228565b9050919050565b6000608082019050818103600083015261486d818761424b565b905081810360208301526148818186613d62565b905081810360408301526148958185613d62565b905081810360608301526148a98184613d62565b905095945050505050565b60006020820190506148c9600083018461437d565b92915050565b60006060820190506148e4600083018661437d565b81810360208301526148f6818561424b565b9050818103604083015261490a8184613ca6565b9050949350505050565b6000604082019050614929600083018561437d565b614936602083018461438c565b9392505050565b600060208201905061495260008301846143aa565b92915050565b6000614962614973565b905061496e8282614d02565b919050565b6000604051905090565b600067ffffffffffffffff82111561499857614997614dda565b5b602082029050602081019050919050565b600067ffffffffffffffff8211156149c4576149c3614dda565b5b6149cd82614e09565b9050602081019050919050565b600067ffffffffffffffff8211156149f5576149f4614dda565b5b6149fe82614e09565b9050602081019050919050565b6000819050602082019050919050565b6000819050602082019050919050565b600081519050919050565b600081519050919050565b600081519050919050565b600081519050919050565b6000602082019050919050565b6000602082019050919050565b600082825260208201905092915050565b600082825260208201905092915050565b600082825260208201905092915050565b600082825260208201905092915050565b600082825260208201905092915050565b600081905092915050565b600082825260208201905092915050565b600082825260208201905092915050565b6000614afe82614bf9565b9150614b0983614bf9565b9250827fffffffffffffffffffffffffffffffffffffffffffffffffffffffffffffffff03821115614b3e57614b3d614d7c565b5b828201905092915050565b6000614b5482614bf9565b9150614b5f83614bf9565b925082821015614b7257614b71614d7c565b5b828203905092915050565b6000614b8882614bd9565b9050919050565b6000614b9a82614bd9565b9050919050565b60008115159050919050565b60007fffffffff0000000000000000000000000000000000000000000000000000000082169050919050565b600073ffffffffffffffffffffffffffffffffffffffff82169050919050565b6000819050919050565b600060ff82169050919050565b6000614c1b82614c22565b9050919050565b6000614c2d82614bd9565b9050919050565b6000614c3f82614c46565b9050919050565b6000614c5182614bd9565b9050919050565b6000614c6382614c6a565b9050919050565b6000614c7582614bd9565b9050919050565b6000614c8782614c03565b9050919050565b82818337600083830152505050565b60005b83811015614cbb578082015181840152602081019050614ca0565b83811115614cca576000848401525b50505050565b60006002820490506001821680614ce857607f821691505b60208210811415614cfc57614cfb614dab565b5b50919050565b614d0b82614e09565b810181811067ffffffffffffffff82111715614d2a57614d29614dda565b5b80604052505050565b6000614d3e82614bf9565b91507fffffffffffffffffffffffffffffffffffffffffffffffffffffffffffffffff821415614d7157614d70614d7c565b5b600182019050919050565b7f4e487b7100000000000000000000000000000000000000000000000000000000600052601160045260246000fd5b7f4e487b7100000000000000000000000000000000000000000000000000000000600052602260045260246000fd5b7f4e487b7100000000000000000000000000000000000000000000000000000000600052604160045260246000fd5b6000601f19601f8301169050919050565b7f455243373231456e756d657261626c653a206f776e657220696e646578206f7560008201527f74206f6620626f756e6473000000000000000000000000000000000000000000602082015250565b7f4552433732313a207472616e7366657220746f206e6f6e20455243373231526560008201527f63656976657220696d706c656d656e7465720000000000000000000000000000602082015250565b7f546f6b656e206973206e6f74206d696e74656420796574000000000000000000600082015250565b7f4f776e61626c653a206e6577206f776e657220697320746865207a65726f206160008201527f6464726573730000000000000000000000000000000000000000000000000000602082015250565b7f4552433732313a20746f6b656e20616c7265616479206d696e74656400000000600082015250565b7f5769746864726177206661696c65640000000000000000000000000000000000600082015250565b7f4552433732313a207472616e7366657220746f20746865207a65726f2061646460008201527f7265737300000000000000000000000000000000000000000000000000000000602082015250565b7f4552433732313a20617070726f766520746f2063616c6c657200000000000000600082015250565b7f496e73756666696369656e742062616c616e6365000000000000000000000000600082015250565b7f4552433732313a206f70657261746f7220717565727920666f72206e6f6e657860008201527f697374656e7420746f6b656e0000000000000000000000000000000000000000602082015250565b7f4e6f7420796f757220537562646f6d61696e0000000000000000000000000000600082015250565b7f4552433732313a20617070726f76652063616c6c6572206973206e6f74206f7760008201527f6e6572206e6f7220617070726f76656420666f7220616c6c0000000000000000602082015250565b7f4552433732313a2062616c616e636520717565727920666f7220746865207a6560008201527f726f206164647265737300000000000000000000000000000000000000000000602082015250565b7f4552433732313a206f776e657220717565727920666f72206e6f6e657869737460008201527f656e7420746f6b656e0000000000000000000000000000000000000000000000602082015250565b7f4552433732313a206d696e7420746f20746865207a65726f2061646472657373600082015250565b7f4552433732313a20617070726f76656420717565727920666f72206e6f6e657860008201527f697374656e7420746f6b656e0000000000000000000000000000000000000000602082015250565b7f4f776e61626c653a2063616c6c6572206973206e6f7420746865206f776e6572600082015250565b7f546f6b656e20494420696e76616c696400000000000000000000000000000000600082015250565b7f4552433732313a207472616e73666572206f6620746f6b656e2074686174206960008201527f73206e6f74206f776e0000000000000000000000000000000000000000000000602082015250565b7f4552433732313a20617070726f76616c20746f2063757272656e74206f776e6560008201527f7200000000000000000000000000000000000000000000000000000000000000602082015250565b50565b7f546f6b656e20736f6c64206f7574000000000000000000000000000000000000600082015250565b7f4552433732313a207472616e736665722063616c6c6572206973206e6f74206f60008201527f776e6572206e6f7220617070726f766564000000000000000000000000000000602082015250565b7f455243373231456e756d657261626c653a20676c6f62616c20696e646578206f60008201527f7574206f6620626f756e64730000000000000000000000000000000000000000602082015250565b7f5265656e7472616e637947756172643a207265656e7472616e742063616c6c00600082015250565b6153ec81614b7d565b81146153f757600080fd5b50565b61540381614b8f565b811461540e57600080fd5b50565b61541a81614ba1565b811461542557600080fd5b50565b61543181614bad565b811461543c57600080fd5b50565b61544881614bf9565b811461545357600080fd5b50565b61545f81614c03565b811461546a57600080fd5b5056fea26469706673582212207cae79489ff3de2565d42f9719c8c5de877a4edcb526b5ed268e3ce135ecb1af64736f6c63430008040033",
  "linkReferences": {},
  "deployedLinkReferences": {}
}