{
  "_format": "hh-sol-artifact-1",
  "contractName": "Dungeons",
  "sourceName": "contracts/dungeons.sol",
  "abi": [
    {
      "inputs": [
        {
          "internalType": "contract Subdomain",
          "name": "_subdomainContract",
          "type": "address"
        },
        {
          "internalType": "contract IDungeonsRender",
          "name": "_render",
          "type": "address"
        },
        {
          "internalType": "contract IDungeonsGenerator",
          "name": "_generator",
          "type": "address"
        },
        {
          "internalType": "contract IDungeonsSeeder",
          "name": "_seeder",
          "type": "address"
        }
      ],
      "stateMutability": "nonpayable",
      "type": "constructor"
    },
    {
      "anonymous": false,
      "inputs": [
        {
          "indexed": true,
          "internalType": "address",
          "name": "owner",
          "type": "address"
        },
        {
          "indexed": true,
          "internalType": "address",
          "name": "approved",
          "type": "address"
        },
        {
          "indexed": true,
          "internalType": "uint256",
          "name": "tokenId",
          "type": "uint256"
        }
      ],
      "name": "Approval",
      "type": "event"
    },
    {
      "anonymous": false,
      "inputs": [
        {
          "indexed": true,
          "internalType": "address",
          "name": "owner",
          "type": "address"
        },
        {
          "indexed": true,
          "internalType": "address",
          "name": "operator",
          "type": "address"
        },
        {
          "indexed": false,
          "internalType": "bool",
          "name": "approved",
          "type": "bool"
        }
      ],
      "name": "ApprovalForAll",
      "type": "event"
    },
    {
      "anonymous": false,
      "inputs": [
        {
          "indexed": true,
          "internalType": "address",
          "name": "account",
          "type": "address"
        },
        {
          "indexed": false,
          "internalType": "uint256",
          "name": "tokenId",
          "type": "uint256"
        }
      ],
      "name": "Claimed",
      "type": "event"
    },
    {
      "anonymous": false,
      "inputs": [
        {
          "indexed": true,
          "internalType": "address",
          "name": "account",
          "type": "address"
        },
        {
          "indexed": false,
          "internalType": "uint256",
          "name": "tokenId",
          "type": "uint256"
        }
      ],
      "name": "Minted",
      "type": "event"
    },
    {
      "anonymous": false,
      "inputs": [
        {
          "indexed": true,
          "internalType": "address",
          "name": "previousOwner",
          "type": "address"
        },
        {
          "indexed": true,
          "internalType": "address",
          "name": "newOwner",
          "type": "address"
        }
      ],
      "name": "OwnershipTransferred",
      "type": "event"
    },
    {
      "anonymous": false,
      "inputs": [
        {
          "indexed": true,
          "internalType": "address",
          "name": "from",
          "type": "address"
        },
        {
          "indexed": true,
          "internalType": "address",
          "name": "to",
          "type": "address"
        },
        {
          "indexed": true,
          "internalType": "uint256",
          "name": "tokenId",
          "type": "uint256"
        }
      ],
      "name": "Transfer",
      "type": "event"
    },
    {
      "inputs": [
        {
          "internalType": "address",
          "name": "to",
          "type": "address"
        },
        {
          "internalType": "uint256",
          "name": "tokenId",
          "type": "uint256"
        }
      ],
      "name": "approve",
      "outputs": [],
      "stateMutability": "nonpayable",
      "type": "function"
    },
    {
      "inputs": [
        {
          "internalType": "address",
          "name": "owner",
          "type": "address"
        }
      ],
      "name": "balanceOf",
      "outputs": [
        {
          "internalType": "uint256",
          "name": "",
          "type": "uint256"
        }
      ],
      "stateMutability": "view",
      "type": "function"
    },
    {
      "inputs": [],
      "name": "claimed",
      "outputs": [
        {
          "internalType": "uint256",
          "name": "",
          "type": "uint256"
        }
      ],
      "stateMutability": "view",
      "type": "function"
    },
    {
      "inputs": [],
      "name": "generator",
      "outputs": [
        {
          "internalType": "contract IDungeonsGenerator",
          "name": "",
          "type": "address"
        }
      ],
      "stateMutability": "view",
      "type": "function"
    },
    {
      "inputs": [
        {
          "internalType": "uint256",
          "name": "tokenId",
          "type": "uint256"
        }
      ],
      "name": "getApproved",
      "outputs": [
        {
          "internalType": "address",
          "name": "",
          "type": "address"
        }
      ],
      "stateMutability": "view",
      "type": "function"
    },
    {
      "inputs": [
        {
          "internalType": "uint256",
          "name": "tokenId",
          "type": "uint256"
        }
      ],
      "name": "getEntities",
      "outputs": [
        {
          "internalType": "uint8[]",
          "name": "",
          "type": "uint8[]"
        },
        {
          "internalType": "uint8[]",
          "name": "",
          "type": "uint8[]"
        },
        {
          "internalType": "uint8[]",
          "name": "",
          "type": "uint8[]"
        }
      ],
      "stateMutability": "view",
      "type": "function"
    },
    {
      "inputs": [
        {
          "internalType": "uint256",
          "name": "tokenId",
          "type": "uint256"
        }
      ],
      "name": "getEnvironment",
      "outputs": [
        {
          "internalType": "uint8",
          "name": "",
          "type": "uint8"
        }
      ],
      "stateMutability": "view",
      "type": "function"
    },
    {
      "inputs": [
        {
          "internalType": "uint256",
          "name": "tokenId",
          "type": "uint256"
        }
      ],
      "name": "getLayout",
      "outputs": [
        {
          "internalType": "bytes",
          "name": "",
          "type": "bytes"
        }
      ],
      "stateMutability": "view",
      "type": "function"
    },
    {
      "inputs": [
        {
          "internalType": "uint256",
          "name": "tokenId",
          "type": "uint256"
        }
      ],
      "name": "getName",
      "outputs": [
        {
          "internalType": "string",
          "name": "",
          "type": "string"
        }
      ],
      "stateMutability": "view",
      "type": "function"
    },
    {
      "inputs": [
        {
          "internalType": "uint256",
          "name": "tokenId",
          "type": "uint256"
        }
      ],
      "name": "getNumDoors",
      "outputs": [
        {
          "internalType": "uint256",
          "name": "",
          "type": "uint256"
        }
      ],
      "stateMutability": "view",
      "type": "function"
    },
    {
      "inputs": [
        {
          "internalType": "uint256",
          "name": "tokenId",
          "type": "uint256"
        }
      ],
      "name": "getNumPoints",
      "outputs": [
        {
          "internalType": "uint256",
          "name": "",
          "type": "uint256"
        }
      ],
      "stateMutability": "view",
      "type": "function"
    },
    {
      "inputs": [
        {
          "internalType": "uint256",
          "name": "tokenId",
          "type": "uint256"
        }
      ],
      "name": "getSize",
      "outputs": [
        {
          "internalType": "uint8",
          "name": "",
          "type": "uint8"
        }
      ],
      "stateMutability": "view",
      "type": "function"
    },
    {
      "inputs": [
        {
          "internalType": "uint256",
          "name": "tokenId",
          "type": "uint256"
        }
      ],
      "name": "getSvg",
      "outputs": [
        {
          "internalType": "string",
          "name": "",
          "type": "string"
        }
      ],
      "stateMutability": "view",
      "type": "function"
    },
    {
      "inputs": [
        {
          "internalType": "address",
          "name": "owner",
          "type": "address"
        },
        {
          "internalType": "address",
          "name": "operator",
          "type": "address"
        }
      ],
      "name": "isApprovedForAll",
      "outputs": [
        {
          "internalType": "bool",
          "name": "",
          "type": "bool"
        }
      ],
      "stateMutability": "view",
      "type": "function"
    },
    {
      "inputs": [],
      "name": "lastMint",
      "outputs": [
        {
          "internalType": "uint256",
          "name": "",
          "type": "uint256"
        }
      ],
      "stateMutability": "view",
      "type": "function"
    },
    {
      "inputs": [
        {
          "internalType": "uint256",
          "name": "tokenId",
          "type": "uint256"
        }
      ],
      "name": "mint",
      "outputs": [],
      "stateMutability": "nonpayable",
      "type": "function"
    },
    {
      "inputs": [],
      "name": "name",
      "outputs": [
        {
          "internalType": "string",
          "name": "",
          "type": "string"
        }
      ],
      "stateMutability": "view",
      "type": "function"
    },
    {
      "inputs": [],
      "name": "openClaim",
      "outputs": [],
      "stateMutability": "nonpayable",
      "type": "function"
    },
    {
      "inputs": [],
      "name": "owner",
      "outputs": [
        {
          "internalType": "address",
          "name": "",
          "type": "address"
        }
      ],
      "stateMutability": "view",
      "type": "function"
    },
    {
      "inputs": [
        {
          "internalType": "uint256",
          "name": "tokenId",
          "type": "uint256"
        }
      ],
      "name": "ownerOf",
      "outputs": [
        {
          "internalType": "address",
          "name": "",
          "type": "address"
        }
      ],
      "stateMutability": "view",
      "type": "function"
    },
    {
      "inputs": [],
      "name": "price",
      "outputs": [
        {
          "internalType": "uint256",
          "name": "",
          "type": "uint256"
        }
      ],
      "stateMutability": "view",
      "type": "function"
    },
    {
      "inputs": [],
      "name": "render",
      "outputs": [
        {
          "internalType": "contract IDungeonsRender",
          "name": "",
          "type": "address"
        }
      ],
      "stateMutability": "view",
      "type": "function"
    },
    {
      "inputs": [],
      "name": "renounceOwnership",
      "outputs": [],
      "stateMutability": "nonpayable",
      "type": "function"
    },
    {
      "inputs": [],
      "name": "restricted",
      "outputs": [
        {
          "internalType": "bool",
          "name": "",
          "type": "bool"
        }
      ],
      "stateMutability": "view",
      "type": "function"
    },
    {
      "inputs": [
        {
          "internalType": "address",
          "name": "from",
          "type": "address"
        },
        {
          "internalType": "address",
          "name": "to",
          "type": "address"
        },
        {
          "internalType": "uint256",
          "name": "tokenId",
          "type": "uint256"
        }
      ],
      "name": "safeTransferFrom",
      "outputs": [],
      "stateMutability": "nonpayable",
      "type": "function"
    },
    {
      "inputs": [
        {
          "internalType": "address",
          "name": "from",
          "type": "address"
        },
        {
          "internalType": "address",
          "name": "to",
          "type": "address"
        },
        {
          "internalType": "uint256",
          "name": "tokenId",
          "type": "uint256"
        },
        {
          "internalType": "bytes",
          "name": "_data",
          "type": "bytes"
        }
      ],
      "name": "safeTransferFrom",
      "outputs": [],
      "stateMutability": "nonpayable",
      "type": "function"
    },
    {
      "inputs": [],
      "name": "seeder",
      "outputs": [
        {
          "internalType": "contract IDungeonsSeeder",
          "name": "",
          "type": "address"
        }
      ],
      "stateMutability": "view",
      "type": "function"
    },
    {
      "inputs": [
        {
          "internalType": "uint256",
          "name": "",
          "type": "uint256"
        }
      ],
      "name": "seeds",
      "outputs": [
        {
          "internalType": "uint256",
          "name": "",
          "type": "uint256"
        }
      ],
      "stateMutability": "view",
      "type": "function"
    },
    {
      "inputs": [
        {
          "internalType": "address",
          "name": "operator",
          "type": "address"
        },
        {
          "internalType": "bool",
          "name": "approved",
          "type": "bool"
        }
      ],
      "name": "setApprovalForAll",
      "outputs": [],
      "stateMutability": "nonpayable",
      "type": "function"
    },
    {
      "inputs": [
        {
          "internalType": "bytes4",
          "name": "interfaceId",
          "type": "bytes4"
        }
      ],
      "name": "supportsInterface",
      "outputs": [
        {
          "internalType": "bool",
          "name": "",
          "type": "bool"
        }
      ],
      "stateMutability": "view",
      "type": "function"
    },
    {
      "inputs": [],
      "name": "symbol",
      "outputs": [
        {
          "internalType": "string",
          "name": "",
          "type": "string"
        }
      ],
      "stateMutability": "view",
      "type": "function"
    },
    {
      "inputs": [
        {
          "internalType": "uint256",
          "name": "index",
          "type": "uint256"
        }
      ],
      "name": "tokenByIndex",
      "outputs": [
        {
          "internalType": "uint256",
          "name": "",
          "type": "uint256"
        }
      ],
      "stateMutability": "view",
      "type": "function"
    },
    {
      "inputs": [
        {
          "internalType": "address",
          "name": "owner",
          "type": "address"
        },
        {
          "internalType": "uint256",
          "name": "index",
          "type": "uint256"
        }
      ],
      "name": "tokenOfOwnerByIndex",
      "outputs": [
        {
          "internalType": "uint256",
          "name": "",
          "type": "uint256"
        }
      ],
      "stateMutability": "view",
      "type": "function"
    },
    {
      "inputs": [
        {
          "internalType": "uint256",
          "name": "tokenId",
          "type": "uint256"
        }
      ],
      "name": "tokenURI",
      "outputs": [
        {
          "internalType": "string",
          "name": "",
          "type": "string"
        }
      ],
      "stateMutability": "view",
      "type": "function"
    },
    {
      "inputs": [],
      "name": "totalSupply",
      "outputs": [
        {
          "internalType": "uint256",
          "name": "",
          "type": "uint256"
        }
      ],
      "stateMutability": "view",
      "type": "function"
    },
    {
      "inputs": [
        {
          "internalType": "address",
          "name": "from",
          "type": "address"
        },
        {
          "internalType": "address",
          "name": "to",
          "type": "address"
        },
        {
          "internalType": "uint256",
          "name": "tokenId",
          "type": "uint256"
        }
      ],
      "name": "transferFrom",
      "outputs": [],
      "stateMutability": "nonpayable",
      "type": "function"
    },
    {
      "inputs": [
        {
          "internalType": "address",
          "name": "newOwner",
          "type": "address"
        }
      ],
      "name": "transferOwnership",
      "outputs": [],
      "stateMutability": "nonpayable",
      "type": "function"
    },
    {
      "inputs": [
        {
          "internalType": "address payable",
          "name": "recipient",
          "type": "address"
        },
        {
          "internalType": "uint256",
          "name": "amount",
          "type": "uint256"
        }
      ],
      "name": "withdraw",
      "outputs": [],
      "stateMutability": "nonpayable",
      "type": "function"
    }
  ],
  "bytecode": "0x6080604052611f4060115560006012556001601360006101000a81548160ff02191690831515021790555066b1a2bc2ec500006014553480156200004257600080fd5b5060405162005ab738038062005ab7833981810160405281019062000068919062000418565b6040518060400160405280601181526020017f454e53206d616b65205068694c616e64730000000000000000000000000000008152506040518060400160405280600781526020017f5048494c414e44000000000000000000000000000000000000000000000000008152508160009080519060200190620000ec9291906200030c565b508060019080519060200190620001059291906200030c565b5050506001600a8190555062000130620001246200023e60201b60201c565b6200024660201b60201c565b83601060006101000a81548173ffffffffffffffffffffffffffffffffffffffff021916908373ffffffffffffffffffffffffffffffffffffffff16021790555082600c60006101000a81548173ffffffffffffffffffffffffffffffffffffffff021916908373ffffffffffffffffffffffffffffffffffffffff16021790555081600d60006101000a81548173ffffffffffffffffffffffffffffffffffffffff021916908373ffffffffffffffffffffffffffffffffffffffff16021790555080600e60006101000a81548173ffffffffffffffffffffffffffffffffffffffff021916908373ffffffffffffffffffffffffffffffffffffffff16021790555050505050620005d5565b600033905090565b6000600b60009054906101000a900473ffffffffffffffffffffffffffffffffffffffff16905081600b60006101000a81548173ffffffffffffffffffffffffffffffffffffffff021916908373ffffffffffffffffffffffffffffffffffffffff1602179055508173ffffffffffffffffffffffffffffffffffffffff168173ffffffffffffffffffffffffffffffffffffffff167f8be0079c531659141344cd1fd0a4f28419497f9722a3daafe3b4186f6b6457e060405160405180910390a35050565b8280546200031a9062000508565b90600052602060002090601f0160209004810192826200033e57600085556200038a565b82601f106200035957805160ff19168380011785556200038a565b828001600101855582156200038a579182015b82811115620003895782518255916020019190600101906200036c565b5b5090506200039991906200039d565b5090565b5b80821115620003b85760008160009055506001016200039e565b5090565b600081519050620003cd816200056d565b92915050565b600081519050620003e48162000587565b92915050565b600081519050620003fb81620005a1565b92915050565b6000815190506200041281620005bb565b92915050565b600080600080608085870312156200042f57600080fd5b60006200043f8782880162000401565b94505060206200045287828801620003d3565b93505060406200046587828801620003bc565b92505060606200047887828801620003ea565b91505092959194509250565b60006200049182620004e8565b9050919050565b6000620004a58262000484565b9050919050565b6000620004b98262000484565b9050919050565b6000620004cd8262000484565b9050919050565b6000620004e18262000484565b9050919050565b600073ffffffffffffffffffffffffffffffffffffffff82169050919050565b600060028204905060018216806200052157607f821691505b602082108114156200053857620005376200053e565b5b50919050565b7f4e487b7100000000000000000000000000000000000000000000000000000000600052602260045260246000fd5b620005788162000498565b81146200058457600080fd5b50565b6200059281620004ac565b81146200059e57600080fd5b50565b620005ac81620004c0565b8114620005b857600080fd5b50565b620005c681620004d4565b8114620005d257600080fd5b50565b6154d280620005e56000396000f3fe608060405234801561001057600080fd5b50600436106102325760003560e01c806370a0823111610130578063b88d4fde116100b8578063e834a8341161007c578063e834a834146106f1578063e985e9c51461070f578063f0503e801461073f578063f2fde38b1461076f578063f3fef3a31461078b57610232565b8063b88d4fde14610625578063c87b56dd14610641578063cc6dd94714610671578063d607497a146106a3578063db9ee445146106c157610232565b806395d89b41116100ff57806395d89b4114610581578063a035b1fe1461059f578063a0712d68146105bd578063a22cb465146105d9578063b0dc78fa146105f557610232565b806370a082311461050b578063715018a61461053b5780637afa1eed146105455780638da5cb5b1461056357610232565b80632f745c59116101be5780636352211e116101825780636352211e1461043f578063684931ed1461046f5780636b8ff5741461048d5780636db40800146104bd5780637072c6b1146104ed57610232565b80632f745c59146103755780633bb31416146103a557806342842e0e146103d55780634f6ccce7146103f1578063586fc5b51461042157610232565b8063081812fc11610205578063081812fc146102e5578063095ea7b31461031557806318160ddd1461033157806323b872dd1461034f578063293cdbf11461036b57610232565b8063012921351461023757806301ffc9a714610267578063023c23db1461029757806306fdde03146102c7575b600080fd5b610251600480360381019061024c9190613bdf565b6107a7565b60405161025e91906144ed565b60405180910390f35b610281600480360381019061027c9190613a25565b61088d565b60405161028e91906144d2565b60405180910390f35b6102b160048036038101906102ac9190613bdf565b610907565b6040516102be919061496c565b60405180910390f35b6102cf6109d7565b6040516102dc9190614560565b60405180910390f35b6102ff60048036038101906102fa9190613bdf565b610a69565b60405161030c91906143fd565b60405180910390f35b61032f600480360381019061032a9190613952565b610aee565b005b610339610c06565b60405161034691906148e3565b60405180910390f35b6103696004803603810190610364919061384c565b610c13565b005b610373610c73565b005b61038f600480360381019061038a9190613952565b610d71565b60405161039c91906148e3565b60405180910390f35b6103bf60048036038101906103ba9190613bdf565b610e16565b6040516103cc91906148e3565b60405180910390f35b6103ef60048036038101906103ea919061384c565b610efc565b005b61040b60048036038101906104069190613bdf565b610f1c565b60405161041891906148e3565b60405180910390f35b610429610fb3565b60405161043691906148e3565b60405180910390f35b61045960048036038101906104549190613bdf565b610fb9565b60405161046691906143fd565b60405180910390f35b61047761106b565b6040516104849190614545565b60405180910390f35b6104a760048036038101906104a29190613bdf565b611091565b6040516104b49190614560565b60405180910390f35b6104d760048036038101906104d29190613bdf565b61116e565b6040516104e4919061496c565b60405180910390f35b6104f561123e565b60405161050291906144d2565b60405180910390f35b61052560048036038101906105209190613782565b611251565b60405161053291906148e3565b60405180910390f35b610543611309565b005b61054d611391565b60405161055a919061450f565b60405180910390f35b61056b6113b7565b60405161057891906143fd565b60405180910390f35b6105896113e1565b6040516105969190614560565b60405180910390f35b6105a7611473565b6040516105b491906148e3565b60405180910390f35b6105d760048036038101906105d29190613bdf565b611479565b005b6105f360048036038101906105ee9190613916565b61178a565b005b61060f600480360381019061060a9190613bdf565b6117a0565b60405161061c9190614560565b60405180910390f35b61063f600480360381019061063a919061389b565b611885565b005b61065b60048036038101906106569190613bdf565b6118e7565b6040516106689190614560565b60405180910390f35b61068b60048036038101906106869190613bdf565b611b6e565b60405161069a93929190614486565b60405180910390f35b6106ab611c67565b6040516106b8919061452a565b60405180910390f35b6106db60048036038101906106d69190613bdf565b611c8d565b6040516106e891906148e3565b60405180910390f35b6106f9611d73565b60405161070691906148e3565b60405180910390f35b61072960048036038101906107249190613810565b611d79565b60405161073691906144d2565b60405180910390f35b61075960048036038101906107549190613bdf565b611e0d565b60405161076691906148e3565b60405180910390f35b61078960048036038101906107849190613782565b611e25565b005b6107a560048036038101906107a091906137d4565b611f1d565b005b60606107b2826120e3565b6000600d60009054906101000a900473ffffffffffffffffffffffffffffffffffffffff1673ffffffffffffffffffffffffffffffffffffffff1663ff8f8c18600f60008681526020019081526020016000205461080f86610907565b6040518363ffffffff1660e01b815260040161082c929190614943565b60006040518083038186803b15801561084457600080fd5b505afa158015610858573d6000803e3d6000fd5b505050506040513d6000823e3d601f19601f820116820180604052508101906108819190613acb565b50905080915050919050565b60007f780e9d63000000000000000000000000000000000000000000000000000000007bffffffffffffffffffffffffffffffffffffffffffffffffffffffff1916827bffffffffffffffffffffffffffffffffffffffffffffffffffffffff1916148061090057506108ff8261217e565b5b9050919050565b6000610912826120e3565b600e60009054906101000a900473ffffffffffffffffffffffffffffffffffffffff1673ffffffffffffffffffffffffffffffffffffffff1663023c23db600f6000858152602001908152602001600020546040518263ffffffff1660e01b815260040161098091906148e3565b60206040518083038186803b15801561099857600080fd5b505afa1580156109ac573d6000803e3d6000fd5b505050506040513d601f19601f820116820180604052508101906109d09190613c6d565b9050919050565b6060600080546109e690614cff565b80601f0160208091040260200160405190810160405280929190818152602001828054610a1290614cff565b8015610a5f5780601f10610a3457610100808354040283529160200191610a5f565b820191906000526020600020905b815481529060010190602001808311610a4257829003601f168201915b5050505050905090565b6000610a7482612260565b610ab3576040517f08c379a0000000000000000000000000000000000000000000000000000000008152600401610aaa90614762565b60405180910390fd5b6004600083815260200190815260200160002060009054906101000a900473ffffffffffffffffffffffffffffffffffffffff169050919050565b6000610af982610fb9565b90508073ffffffffffffffffffffffffffffffffffffffff168373ffffffffffffffffffffffffffffffffffffffff161415610b6a576040517f08c379a0000000000000000000000000000000000000000000000000000000008152600401610b61906147e2565b60405180910390fd5b8073ffffffffffffffffffffffffffffffffffffffff16610b896122cc565b73ffffffffffffffffffffffffffffffffffffffff161480610bb85750610bb781610bb26122cc565b611d79565b5b610bf7576040517f08c379a0000000000000000000000000000000000000000000000000000000008152600401610bee906146e2565b60405180910390fd5b610c0183836122d4565b505050565b6000600880549050905090565b610c24610c1e6122cc565b8261238d565b610c63576040517f08c379a0000000000000000000000000000000000000000000000000000000008152600401610c5a90614822565b60405180910390fd5b610c6e83838361246b565b505050565b6002600a541415610cb9576040517f08c379a0000000000000000000000000000000000000000000000000000000008152600401610cb090614862565b60405180910390fd5b6002600a81905550610cc96122cc565b73ffffffffffffffffffffffffffffffffffffffff16610ce76113b7565b73ffffffffffffffffffffffffffffffffffffffff1614610d3d576040517f08c379a0000000000000000000000000000000000000000000000000000000008152600401610d3490614782565b60405180910390fd5b601360009054906101000a900460ff1615601360006101000a81548160ff0219169083151502179055506001600a81905550565b6000610d7c83611251565b8210610dbd576040517f08c379a0000000000000000000000000000000000000000000000000000000008152600401610db490614582565b60405180910390fd5b600660008473ffffffffffffffffffffffffffffffffffffffff1673ffffffffffffffffffffffffffffffffffffffff168152602001908152602001600020600083815260200190815260200160002054905092915050565b6000610e21826120e3565b6000600d60009054906101000a900473ffffffffffffffffffffffffffffffffffffffff1673ffffffffffffffffffffffffffffffffffffffff16634d4c71a3600f600086815260200190815260200160002054610e7e86610907565b6040518363ffffffff1660e01b8152600401610e9b929190614943565b60006040518083038186803b158015610eb357600080fd5b505afa158015610ec7573d6000803e3d6000fd5b505050506040513d6000823e3d601f19601f82011682018060405250810190610ef09190613a77565b91505080915050919050565b610f1783838360405180602001604052806000815250611885565b505050565b6000610f26610c06565b8210610f67576040517f08c379a0000000000000000000000000000000000000000000000000000000008152600401610f5e90614842565b60405180910390fd5b60088281548110610fa1577f4e487b7100000000000000000000000000000000000000000000000000000000600052603260045260246000fd5b90600052602060002001549050919050565b60115481565b6000806002600084815260200190815260200160002060009054906101000a900473ffffffffffffffffffffffffffffffffffffffff169050600073ffffffffffffffffffffffffffffffffffffffff168173ffffffffffffffffffffffffffffffffffffffff161415611062576040517f08c379a000000000000000000000000000000000000000000000000000000000815260040161105990614722565b60405180910390fd5b80915050919050565b600e60009054906101000a900473ffffffffffffffffffffffffffffffffffffffff1681565b606061109c826120e3565b6000600e60009054906101000a900473ffffffffffffffffffffffffffffffffffffffff1673ffffffffffffffffffffffffffffffffffffffff16636b8ff574600f6000868152602001908152602001600020546040518263ffffffff1660e01b815260040161110c91906148e3565b60006040518083038186803b15801561112457600080fd5b505afa158015611138573d6000803e3d6000fd5b505050506040513d6000823e3d601f19601f820116820180604052508101906111619190613b60565b5050905080915050919050565b6000611179826120e3565b600e60009054906101000a900473ffffffffffffffffffffffffffffffffffffffff1673ffffffffffffffffffffffffffffffffffffffff16636db40800600f6000858152602001908152602001600020546040518263ffffffff1660e01b81526004016111e791906148e3565b60206040518083038186803b1580156111ff57600080fd5b505afa158015611213573d6000803e3d6000fd5b505050506040513d601f19601f820116820180604052508101906112379190613c6d565b9050919050565b601360009054906101000a900460ff1681565b60008073ffffffffffffffffffffffffffffffffffffffff168273ffffffffffffffffffffffffffffffffffffffff1614156112c2576040517f08c379a00000000000000000000000000000000000000000000000000000000081526004016112b990614702565b60405180910390fd5b600360008373ffffffffffffffffffffffffffffffffffffffff1673ffffffffffffffffffffffffffffffffffffffff168152602001908152602001600020549050919050565b6113116122cc565b73ffffffffffffffffffffffffffffffffffffffff1661132f6113b7565b73ffffffffffffffffffffffffffffffffffffffff1614611385576040517f08c379a000000000000000000000000000000000000000000000000000000000815260040161137c90614782565b60405180910390fd5b61138f60006126c7565b565b600d60009054906101000a900473ffffffffffffffffffffffffffffffffffffffff1681565b6000600b60009054906101000a900473ffffffffffffffffffffffffffffffffffffffff16905090565b6060600180546113f090614cff565b80601f016020809104026020016040519081016040528092919081815260200182805461141c90614cff565b80156114695780601f1061143e57610100808354040283529160200191611469565b820191906000526020600020905b81548152906001019060200180831161144c57829003601f168201915b5050505050905090565b60145481565b6002600a5414156114bf576040517f08c379a00000000000000000000000000000000000000000000000000000000081526004016114b690614862565b60405180910390fd5b6002600a819055506123286011541061150d576040517f08c379a000000000000000000000000000000000000000000000000000000000815260040161150490614802565b60405180910390fd5b601360009054906101000a900460ff1615806115fe57503373ffffffffffffffffffffffffffffffffffffffff16601060009054906101000a900473ffffffffffffffffffffffffffffffffffffffff1673ffffffffffffffffffffffffffffffffffffffff16636352211e836040518263ffffffff1660e01b815260040161159691906148e3565b60206040518083038186803b1580156115ae57600080fd5b505afa1580156115c2573d6000803e3d6000fd5b505050506040513d601f19601f820116820180604052508101906115e691906137ab565b73ffffffffffffffffffffffffffffffffffffffff16145b61163d576040517f08c379a0000000000000000000000000000000000000000000000000000000008152600401611634906146c2565b60405180910390fd5b600060116000815461164e90614d62565b9190508190559050600e60009054906101000a900473ffffffffffffffffffffffffffffffffffffffff1673ffffffffffffffffffffffffffffffffffffffff1663e0d4ea37826040518263ffffffff1660e01b81526004016116b191906148e3565b60206040518083038186803b1580156116c957600080fd5b505afa1580156116dd573d6000803e3d6000fd5b505050506040513d601f19601f820116820180604052508101906117019190613c08565b600f6000838152602001908152602001600020819055506117296117236122cc565b8261278d565b6117316122cc565b73ffffffffffffffffffffffffffffffffffffffff167f30385c845b448a36257a6a1716e6ad2e1bc2cbe333cde1e69fe849ad6511adfe8260405161177691906148e3565b60405180910390a2506001600a8190555050565b61179c6117956122cc565b83836127ab565b5050565b606060006117ad83612918565b9050600c60009054906101000a900473ffffffffffffffffffffffffffffffffffffffff1673ffffffffffffffffffffffffffffffffffffffff166329010f43828360a00151600001518460a00151602001518560a00151604001516040518563ffffffff1660e01b81526004016118289493929190614882565b60006040518083038186803b15801561184057600080fd5b505afa158015611854573d6000803e3d6000fd5b505050506040513d6000823e3d601f19601f8201168201806040525081019061187d9190613b1f565b915050919050565b6118966118906122cc565b8361238d565b6118d5576040517f08c379a00000000000000000000000000000000000000000000000000000000081526004016118cc90614822565b60405180910390fd5b6118e184848484612b55565b50505050565b60606118f2826120e3565b60006118fd83612918565b90506000600267ffffffffffffffff811115611942577f4e487b7100000000000000000000000000000000000000000000000000000000600052604160045260246000fd5b6040519080825280602002602001820160405280156119705781602001602082028036833780820191505090505b509050600d60009054906101000a900473ffffffffffffffffffffffffffffffffffffffff1673ffffffffffffffffffffffffffffffffffffffff166397155f4f8360a00151604001516040518263ffffffff1660e01b81526004016119d69190614464565b604080518083038186803b1580156119ed57600080fd5b505afa158015611a01573d6000803e3d6000fd5b505050506040513d601f19601f82011682018060405250810190611a259190613c31565b82600081518110611a5f577f4e487b7100000000000000000000000000000000000000000000000000000000600052603260045260246000fd5b6020026020010183600181518110611aa0577f4e487b7100000000000000000000000000000000000000000000000000000000600052603260045260246000fd5b6020026020010182815250828152505050600c60009054906101000a900473ffffffffffffffffffffffffffffffffffffffff1673ffffffffffffffffffffffffffffffffffffffff166319db2b2f8584846040518463ffffffff1660e01b8152600401611b10939291906148fe565b60006040518083038186803b158015611b2857600080fd5b505afa158015611b3c573d6000803e3d6000fd5b505050506040513d6000823e3d601f19601f82011682018060405250810190611b659190613b1f565b92505050919050565b6060806060611b7c846120e3565b6000806000600d60009054906101000a900473ffffffffffffffffffffffffffffffffffffffff1673ffffffffffffffffffffffffffffffffffffffff166340070627600f60008a815260200190815260200160002054611bdc8a610907565b6040518363ffffffff1660e01b8152600401611bf9929190614943565b60006040518083038186803b158015611c1157600080fd5b505afa158015611c25573d6000803e3d6000fd5b505050506040513d6000823e3d601f19601f82011682018060405250810190611c4e919061398e565b9250925092508282829550955095505050509193909250565b600c60009054906101000a900473ffffffffffffffffffffffffffffffffffffffff1681565b6000611c98826120e3565b6000600d60009054906101000a900473ffffffffffffffffffffffffffffffffffffffff1673ffffffffffffffffffffffffffffffffffffffff1663cd7acca6600f600086815260200190815260200160002054611cf586610907565b6040518363ffffffff1660e01b8152600401611d12929190614943565b60006040518083038186803b158015611d2a57600080fd5b505afa158015611d3e573d6000803e3d6000fd5b505050506040513d6000823e3d601f19601f82011682018060405250810190611d679190613a77565b91505080915050919050565b60125481565b6000600560008473ffffffffffffffffffffffffffffffffffffffff1673ffffffffffffffffffffffffffffffffffffffff16815260200190815260200160002060008373ffffffffffffffffffffffffffffffffffffffff1673ffffffffffffffffffffffffffffffffffffffff16815260200190815260200160002060009054906101000a900460ff16905092915050565b600f6020528060005260406000206000915090505481565b611e2d6122cc565b73ffffffffffffffffffffffffffffffffffffffff16611e4b6113b7565b73ffffffffffffffffffffffffffffffffffffffff1614611ea1576040517f08c379a0000000000000000000000000000000000000000000000000000000008152600401611e9890614782565b60405180910390fd5b600073ffffffffffffffffffffffffffffffffffffffff168173ffffffffffffffffffffffffffffffffffffffff161415611f11576040517f08c379a0000000000000000000000000000000000000000000000000000000008152600401611f08906145e2565b60405180910390fd5b611f1a816126c7565b50565b6002600a541415611f63576040517f08c379a0000000000000000000000000000000000000000000000000000000008152600401611f5a90614862565b60405180910390fd5b6002600a81905550611f736122cc565b73ffffffffffffffffffffffffffffffffffffffff16611f916113b7565b73ffffffffffffffffffffffffffffffffffffffff1614611fe7576040517f08c379a0000000000000000000000000000000000000000000000000000000008152600401611fde90614782565b60405180910390fd5b8047101561202a576040517f08c379a000000000000000000000000000000000000000000000000000000000815260040161202190614682565b60405180910390fd5b60008273ffffffffffffffffffffffffffffffffffffffff1682604051612050906143e8565b60006040518083038185875af1925050503d806000811461208d576040519150601f19603f3d011682016040523d82523d6000602084013e612092565b606091505b50509050806120d6576040517f08c379a00000000000000000000000000000000000000000000000000000000081526004016120cd90614622565b60405180910390fd5b506001600a819055505050565b6000811180156120f4575061232981105b612133576040517f08c379a000000000000000000000000000000000000000000000000000000000815260040161212a906147a2565b60405180910390fd5b61213c81612260565b61217b576040517f08c379a0000000000000000000000000000000000000000000000000000000008152600401612172906145c2565b60405180910390fd5b50565b60007f80ac58cd000000000000000000000000000000000000000000000000000000007bffffffffffffffffffffffffffffffffffffffffffffffffffffffff1916827bffffffffffffffffffffffffffffffffffffffffffffffffffffffff1916148061224957507f5b5e139f000000000000000000000000000000000000000000000000000000007bffffffffffffffffffffffffffffffffffffffffffffffffffffffff1916827bffffffffffffffffffffffffffffffffffffffffffffffffffffffff1916145b80612259575061225882612bb1565b5b9050919050565b60008073ffffffffffffffffffffffffffffffffffffffff166002600084815260200190815260200160002060009054906101000a900473ffffffffffffffffffffffffffffffffffffffff1673ffffffffffffffffffffffffffffffffffffffff1614159050919050565b600033905090565b816004600083815260200190815260200160002060006101000a81548173ffffffffffffffffffffffffffffffffffffffff021916908373ffffffffffffffffffffffffffffffffffffffff160217905550808273ffffffffffffffffffffffffffffffffffffffff1661234783610fb9565b73ffffffffffffffffffffffffffffffffffffffff167f8c5be1e5ebec7d5bd14f71427d1e84f3dd0314c0f7b2291e5b200ac8c7c3b92560405160405180910390a45050565b600061239882612260565b6123d7576040517f08c379a00000000000000000000000000000000000000000000000000000000081526004016123ce906146a2565b60405180910390fd5b60006123e283610fb9565b90508073ffffffffffffffffffffffffffffffffffffffff168473ffffffffffffffffffffffffffffffffffffffff16148061245157508373ffffffffffffffffffffffffffffffffffffffff1661243984610a69565b73ffffffffffffffffffffffffffffffffffffffff16145b8061246257506124618185611d79565b5b91505092915050565b8273ffffffffffffffffffffffffffffffffffffffff1661248b82610fb9565b73ffffffffffffffffffffffffffffffffffffffff16146124e1576040517f08c379a00000000000000000000000000000000000000000000000000000000081526004016124d8906147c2565b60405180910390fd5b600073ffffffffffffffffffffffffffffffffffffffff168273ffffffffffffffffffffffffffffffffffffffff161415612551576040517f08c379a000000000000000000000000000000000000000000000000000000000815260040161254890614642565b60405180910390fd5b61255c838383612c1b565b6125676000826122d4565b6001600360008573ffffffffffffffffffffffffffffffffffffffff1673ffffffffffffffffffffffffffffffffffffffff16815260200190815260200160002060008282546125b79190614b78565b925050819055506001600360008473ffffffffffffffffffffffffffffffffffffffff1673ffffffffffffffffffffffffffffffffffffffff168152602001908152602001600020600082825461260e9190614b22565b92505081905550816002600083815260200190815260200160002060006101000a81548173ffffffffffffffffffffffffffffffffffffffff021916908373ffffffffffffffffffffffffffffffffffffffff160217905550808273ffffffffffffffffffffffffffffffffffffffff168473ffffffffffffffffffffffffffffffffffffffff167fddf252ad1be2c89b69c2b068fc378daa952ba7f163c4a11628f55a4df523b3ef60405160405180910390a4505050565b6000600b60009054906101000a900473ffffffffffffffffffffffffffffffffffffffff16905081600b60006101000a81548173ffffffffffffffffffffffffffffffffffffffff021916908373ffffffffffffffffffffffffffffffffffffffff1602179055508173ffffffffffffffffffffffffffffffffffffffff168173ffffffffffffffffffffffffffffffffffffffff167f8be0079c531659141344cd1fd0a4f28419497f9722a3daafe3b4186f6b6457e060405160405180910390a35050565b6127a7828260405180602001604052806000815250612d2f565b5050565b8173ffffffffffffffffffffffffffffffffffffffff168373ffffffffffffffffffffffffffffffffffffffff16141561281a576040517f08c379a000000000000000000000000000000000000000000000000000000000815260040161281190614662565b60405180910390fd5b80600560008573ffffffffffffffffffffffffffffffffffffffff1673ffffffffffffffffffffffffffffffffffffffff16815260200190815260200160002060008473ffffffffffffffffffffffffffffffffffffffff1673ffffffffffffffffffffffffffffffffffffffff16815260200190815260200160002060006101000a81548160ff0219169083151502179055508173ffffffffffffffffffffffffffffffffffffffff168373ffffffffffffffffffffffffffffffffffffffff167f17307eab39ab6107e8899845ad3d59bd9653f200f220920489ca2b5937696c318360405161290b91906144d2565b60405180910390a3505050565b61292061347f565b600080600061292e85611b6e565b925092509250600080600d60009054906101000a900473ffffffffffffffffffffffffffffffffffffffff1673ffffffffffffffffffffffffffffffffffffffff1663ff8f8c18600f60008a8152602001908152602001600020546129928a610907565b6040518363ffffffff1660e01b81526004016129af929190614943565b60006040518083038186803b1580156129c757600080fd5b505afa1580156129db573d6000803e3d6000fd5b505050506040513d6000823e3d601f19601f82011682018060405250810190612a049190613acb565b915091506000806000600e60009054906101000a900473ffffffffffffffffffffffffffffffffffffffff1673ffffffffffffffffffffffffffffffffffffffff16636b8ff574600f60008d8152602001908152602001600020546040518263ffffffff1660e01b8152600401612a7b91906148e3565b60006040518083038186803b158015612a9357600080fd5b505afa158015612aa7573d6000803e3d6000fd5b505050506040513d6000823e3d601f19601f82011682018060405250810190612ad09190613b60565b925092509250604051806101000160405280612aeb8c610907565b60ff168152602001612afc8c61116e565b60ff1681526020018560ff1681526020018260ff16815260200186815260200160405180606001604052808b81526020018a81526020018981525081526020018381526020018481525098505050505050505050919050565b612b6084848461246b565b612b6c84848484612d8a565b612bab576040517f08c379a0000000000000000000000000000000000000000000000000000000008152600401612ba2906145a2565b60405180910390fd5b50505050565b60007f01ffc9a7000000000000000000000000000000000000000000000000000000007bffffffffffffffffffffffffffffffffffffffffffffffffffffffff1916827bffffffffffffffffffffffffffffffffffffffffffffffffffffffff1916149050919050565b612c26838383612f21565b600073ffffffffffffffffffffffffffffffffffffffff168373ffffffffffffffffffffffffffffffffffffffff161415612c6957612c6481612f26565b612ca8565b8173ffffffffffffffffffffffffffffffffffffffff168373ffffffffffffffffffffffffffffffffffffffff1614612ca757612ca68382612f6f565b5b5b600073ffffffffffffffffffffffffffffffffffffffff168273ffffffffffffffffffffffffffffffffffffffff161415612ceb57612ce6816130dc565b612d2a565b8273ffffffffffffffffffffffffffffffffffffffff168273ffffffffffffffffffffffffffffffffffffffff1614612d2957612d28828261321f565b5b5b505050565b612d39838361329e565b612d466000848484612d8a565b612d85576040517f08c379a0000000000000000000000000000000000000000000000000000000008152600401612d7c906145a2565b60405180910390fd5b505050565b6000612dab8473ffffffffffffffffffffffffffffffffffffffff1661346c565b15612f14578373ffffffffffffffffffffffffffffffffffffffff1663150b7a02612dd46122cc565b8786866040518563ffffffff1660e01b8152600401612df69493929190614418565b602060405180830381600087803b158015612e1057600080fd5b505af1925050508015612e4157506040513d601f19601f82011682018060405250810190612e3e9190613a4e565b60015b612ec4573d8060008114612e71576040519150601f19603f3d011682016040523d82523d6000602084013e612e76565b606091505b50600081511415612ebc576040517f08c379a0000000000000000000000000000000000000000000000000000000008152600401612eb3906145a2565b60405180910390fd5b805181602001fd5b63150b7a0260e01b7bffffffffffffffffffffffffffffffffffffffffffffffffffffffff1916817bffffffffffffffffffffffffffffffffffffffffffffffffffffffff191614915050612f19565b600190505b949350505050565b505050565b6008805490506009600083815260200190815260200160002081905550600881908060018154018082558091505060019003906000526020600020016000909190919091505550565b60006001612f7c84611251565b612f869190614b78565b905060006007600084815260200190815260200160002054905081811461306b576000600660008673ffffffffffffffffffffffffffffffffffffffff1673ffffffffffffffffffffffffffffffffffffffff168152602001908152602001600020600084815260200190815260200160002054905080600660008773ffffffffffffffffffffffffffffffffffffffff1673ffffffffffffffffffffffffffffffffffffffff168152602001908152602001600020600084815260200190815260200160002081905550816007600083815260200190815260200160002081905550505b6007600084815260200190815260200160002060009055600660008573ffffffffffffffffffffffffffffffffffffffff1673ffffffffffffffffffffffffffffffffffffffff16815260200190815260200160002060008381526020019081526020016000206000905550505050565b600060016008805490506130f09190614b78565b9050600060096000848152602001908152602001600020549050600060088381548110613146577f4e487b7100000000000000000000000000000000000000000000000000000000600052603260045260246000fd5b90600052602060002001549050806008838154811061318e577f4e487b7100000000000000000000000000000000000000000000000000000000600052603260045260246000fd5b906000526020600020018190555081600960008381526020019081526020016000208190555060096000858152602001908152602001600020600090556008805480613203577f4e487b7100000000000000000000000000000000000000000000000000000000600052603160045260246000fd5b6001900381819060005260206000200160009055905550505050565b600061322a83611251565b905081600660008573ffffffffffffffffffffffffffffffffffffffff1673ffffffffffffffffffffffffffffffffffffffff168152602001908152602001600020600083815260200190815260200160002081905550806007600084815260200190815260200160002081905550505050565b600073ffffffffffffffffffffffffffffffffffffffff168273ffffffffffffffffffffffffffffffffffffffff16141561330e576040517f08c379a000000000000000000000000000000000000000000000000000000000815260040161330590614742565b60405180910390fd5b61331781612260565b15613357576040517f08c379a000000000000000000000000000000000000000000000000000000000815260040161334e90614602565b60405180910390fd5b61336360008383612c1b565b6001600360008473ffffffffffffffffffffffffffffffffffffffff1673ffffffffffffffffffffffffffffffffffffffff16815260200190815260200160002060008282546133b39190614b22565b92505081905550816002600083815260200190815260200160002060006101000a81548173ffffffffffffffffffffffffffffffffffffffff021916908373ffffffffffffffffffffffffffffffffffffffff160217905550808273ffffffffffffffffffffffffffffffffffffffff16600073ffffffffffffffffffffffffffffffffffffffff167fddf252ad1be2c89b69c2b068fc378daa952ba7f163c4a11628f55a4df523b3ef60405160405180910390a45050565b600080823b905060008111915050919050565b604051806101000160405280600060ff168152602001600060ff168152602001600060ff168152602001600060ff168152602001606081526020016134c26134d6565b815260200160608152602001606081525090565b60405180606001604052806060815260200160608152602001606081525090565b600061350a613505846149ac565b614987565b9050808382526020820190508285602086028201111561352957600080fd5b60005b85811015613559578161353f888261376d565b84526020840193506020830192505060018101905061352c565b5050509392505050565b6000613576613571846149d8565b614987565b90508281526020810184848401111561358e57600080fd5b613599848285614cbd565b509392505050565b60006135b46135af846149d8565b614987565b9050828152602081018484840111156135cc57600080fd5b6135d7848285614ccc565b509392505050565b60006135f26135ed84614a09565b614987565b90508281526020810184848401111561360a57600080fd5b613615848285614ccc565b509392505050565b60008135905061362c81615412565b92915050565b60008151905061364181615412565b92915050565b60008135905061365681615429565b92915050565b600082601f83011261366d57600080fd5b815161367d8482602086016134f7565b91505092915050565b60008135905061369581615440565b92915050565b6000813590506136aa81615457565b92915050565b6000815190506136bf81615457565b92915050565b600082601f8301126136d657600080fd5b81356136e6848260208601613563565b91505092915050565b600082601f83011261370057600080fd5b81516137108482602086016135a1565b91505092915050565b600082601f83011261372a57600080fd5b815161373a8482602086016135df565b91505092915050565b6000813590506137528161546e565b92915050565b6000815190506137678161546e565b92915050565b60008151905061377c81615485565b92915050565b60006020828403121561379457600080fd5b60006137a28482850161361d565b91505092915050565b6000602082840312156137bd57600080fd5b60006137cb84828501613632565b91505092915050565b600080604083850312156137e757600080fd5b60006137f585828601613647565b925050602061380685828601613743565b9150509250929050565b6000806040838503121561382357600080fd5b60006138318582860161361d565b92505060206138428582860161361d565b9150509250929050565b60008060006060848603121561386157600080fd5b600061386f8682870161361d565b93505060206138808682870161361d565b925050604061389186828701613743565b9150509250925092565b600080600080608085870312156138b157600080fd5b60006138bf8782880161361d565b94505060206138d08782880161361d565b93505060406138e187828801613743565b925050606085013567ffffffffffffffff8111156138fe57600080fd5b61390a878288016136c5565b91505092959194509250565b6000806040838503121561392957600080fd5b60006139378582860161361d565b925050602061394885828601613686565b9150509250929050565b6000806040838503121561396557600080fd5b60006139738582860161361d565b925050602061398485828601613743565b9150509250929050565b6000806000606084860312156139a357600080fd5b600084015167ffffffffffffffff8111156139bd57600080fd5b6139c98682870161365c565b935050602084015167ffffffffffffffff8111156139e657600080fd5b6139f28682870161365c565b925050604084015167ffffffffffffffff811115613a0f57600080fd5b613a1b8682870161365c565b9150509250925092565b600060208284031215613a3757600080fd5b6000613a458482850161369b565b91505092915050565b600060208284031215613a6057600080fd5b6000613a6e848285016136b0565b91505092915050565b60008060408385031215613a8a57600080fd5b600083015167ffffffffffffffff811115613aa457600080fd5b613ab0858286016136ef565b9250506020613ac185828601613758565b9150509250929050565b60008060408385031215613ade57600080fd5b600083015167ffffffffffffffff811115613af857600080fd5b613b04858286016136ef565b9250506020613b158582860161376d565b9150509250929050565b600060208284031215613b3157600080fd5b600082015167ffffffffffffffff811115613b4b57600080fd5b613b5784828501613719565b91505092915050565b600080600060608486031215613b7557600080fd5b600084015167ffffffffffffffff811115613b8f57600080fd5b613b9b86828701613719565b935050602084015167ffffffffffffffff811115613bb857600080fd5b613bc486828701613719565b9250506040613bd58682870161376d565b9150509250925092565b600060208284031215613bf157600080fd5b6000613bff84828501613743565b91505092915050565b600060208284031215613c1a57600080fd5b6000613c2884828501613758565b91505092915050565b60008060408385031215613c4457600080fd5b6000613c5285828601613758565b9250506020613c6385828601613758565b9150509250929050565b600060208284031215613c7f57600080fd5b6000613c8d8482850161376d565b91505092915050565b6000613ca2838361439d565b60208301905092915050565b6000613cba83836143ca565b60208301905092915050565b613ccf81614bac565b82525050565b6000613ce082614a5a565b613cea8185614aa0565b9350613cf583614a3a565b8060005b83811015613d26578151613d0d8882613c96565b9750613d1883614a86565b925050600181019050613cf9565b5085935050505092915050565b6000613d3e82614a65565b613d488185614ab1565b9350613d5383614a4a565b8060005b83811015613d84578151613d6b8882613cae565b9750613d7683614a93565b925050600181019050613d57565b5085935050505092915050565b6000613d9c82614a65565b613da68185614ac2565b9350613db183614a4a565b8060005b83811015613de2578151613dc98882613cae565b9750613dd483614a93565b925050600181019050613db5565b5085935050505092915050565b613df881614bd0565b82525050565b6000613e0982614a70565b613e138185614ad3565b9350613e23818560208601614ccc565b613e2c81614e38565b840191505092915050565b6000613e4282614a70565b613e4c8185614ae4565b9350613e5c818560208601614ccc565b613e6581614e38565b840191505092915050565b613e7981614c3f565b82525050565b613e8881614c63565b82525050565b613e9781614c87565b82525050565b6000613ea882614a7b565b613eb28185614b00565b9350613ec2818560208601614ccc565b613ecb81614e38565b840191505092915050565b6000613ee182614a7b565b613eeb8185614b11565b9350613efb818560208601614ccc565b613f0481614e38565b840191505092915050565b6000613f1c602b83614b11565b9150613f2782614e49565b604082019050919050565b6000613f3f603283614b11565b9150613f4a82614e98565b604082019050919050565b6000613f62601783614b11565b9150613f6d82614ee7565b602082019050919050565b6000613f85602683614b11565b9150613f9082614f10565b604082019050919050565b6000613fa8601c83614b11565b9150613fb382614f5f565b602082019050919050565b6000613fcb600f83614b11565b9150613fd682614f88565b602082019050919050565b6000613fee602483614b11565b9150613ff982614fb1565b604082019050919050565b6000614011601983614b11565b915061401c82615000565b602082019050919050565b6000614034601483614b11565b915061403f82615029565b602082019050919050565b6000614057602c83614b11565b915061406282615052565b604082019050919050565b600061407a601283614b11565b9150614085826150a1565b602082019050919050565b600061409d603883614b11565b91506140a8826150ca565b604082019050919050565b60006140c0602a83614b11565b91506140cb82615119565b604082019050919050565b60006140e3602983614b11565b91506140ee82615168565b604082019050919050565b6000614106602083614b11565b9150614111826151b7565b602082019050919050565b6000614129602c83614b11565b9150614134826151e0565b604082019050919050565b600061414c602083614b11565b91506141578261522f565b602082019050919050565b600061416f601083614b11565b915061417a82615258565b602082019050919050565b6000614192602983614b11565b915061419d82615281565b604082019050919050565b60006141b5602183614b11565b91506141c0826152d0565b604082019050919050565b60006141d8600083614af5565b91506141e38261531f565b600082019050919050565b60006141fb600e83614b11565b915061420682615322565b602082019050919050565b600061421e603183614b11565b91506142298261534b565b604082019050919050565b6000614241602c83614b11565b915061424c8261539a565b604082019050919050565b6000614264601f83614b11565b915061426f826153e9565b602082019050919050565b60006101008301600083015161429360008601826143ca565b5060208301516142a660208601826143ca565b5060408301516142b960408601826143ca565b5060608301516142cc60608601826143ca565b50608083015184820360808601526142e48282613dfe565b91505060a083015184820360a08601526142fe828261433f565b91505060c083015184820360c08601526143188282613e9d565b91505060e083015184820360e08601526143328282613e9d565b9150508091505092915050565b6000606083016000830151848203600086015261435c8282613d33565b915050602083015184820360208601526143768282613d33565b915050604083015184820360408601526143908282613d33565b9150508091505092915050565b6143a681614c28565b82525050565b6143b581614c28565b82525050565b6143c481614cab565b82525050565b6143d381614c32565b82525050565b6143e281614c32565b82525050565b60006143f3826141cb565b9150819050919050565b60006020820190506144126000830184613cc6565b92915050565b600060808201905061442d6000830187613cc6565b61443a6020830186613cc6565b61444760408301856143ac565b81810360608301526144598184613e37565b905095945050505050565b6000602082019050818103600083015261447e8184613d91565b905092915050565b600060608201905081810360008301526144a08186613d91565b905081810360208301526144b48185613d91565b905081810360408301526144c88184613d91565b9050949350505050565b60006020820190506144e76000830184613def565b92915050565b600060208201905081810360008301526145078184613e37565b905092915050565b60006020820190506145246000830184613e70565b92915050565b600060208201905061453f6000830184613e7f565b92915050565b600060208201905061455a6000830184613e8e565b92915050565b6000602082019050818103600083015261457a8184613ed6565b905092915050565b6000602082019050818103600083015261459b81613f0f565b9050919050565b600060208201905081810360008301526145bb81613f32565b9050919050565b600060208201905081810360008301526145db81613f55565b9050919050565b600060208201905081810360008301526145fb81613f78565b9050919050565b6000602082019050818103600083015261461b81613f9b565b9050919050565b6000602082019050818103600083015261463b81613fbe565b9050919050565b6000602082019050818103600083015261465b81613fe1565b9050919050565b6000602082019050818103600083015261467b81614004565b9050919050565b6000602082019050818103600083015261469b81614027565b9050919050565b600060208201905081810360008301526146bb8161404a565b9050919050565b600060208201905081810360008301526146db8161406d565b9050919050565b600060208201905081810360008301526146fb81614090565b9050919050565b6000602082019050818103600083015261471b816140b3565b9050919050565b6000602082019050818103600083015261473b816140d6565b9050919050565b6000602082019050818103600083015261475b816140f9565b9050919050565b6000602082019050818103600083015261477b8161411c565b9050919050565b6000602082019050818103600083015261479b8161413f565b9050919050565b600060208201905081810360008301526147bb81614162565b9050919050565b600060208201905081810360008301526147db81614185565b9050919050565b600060208201905081810360008301526147fb816141a8565b9050919050565b6000602082019050818103600083015261481b816141ee565b9050919050565b6000602082019050818103600083015261483b81614211565b9050919050565b6000602082019050818103600083015261485b81614234565b9050919050565b6000602082019050818103600083015261487b81614257565b9050919050565b6000608082019050818103600083015261489c818761427a565b905081810360208301526148b08186613d91565b905081810360408301526148c48185613d91565b905081810360608301526148d88184613d91565b905095945050505050565b60006020820190506148f860008301846143ac565b92915050565b600060608201905061491360008301866143ac565b8181036020830152614925818561427a565b905081810360408301526149398184613cd5565b9050949350505050565b600060408201905061495860008301856143ac565b61496560208301846143bb565b9392505050565b600060208201905061498160008301846143d9565b92915050565b60006149916149a2565b905061499d8282614d31565b919050565b6000604051905090565b600067ffffffffffffffff8211156149c7576149c6614e09565b5b602082029050602081019050919050565b600067ffffffffffffffff8211156149f3576149f2614e09565b5b6149fc82614e38565b9050602081019050919050565b600067ffffffffffffffff821115614a2457614a23614e09565b5b614a2d82614e38565b9050602081019050919050565b6000819050602082019050919050565b6000819050602082019050919050565b600081519050919050565b600081519050919050565b600081519050919050565b600081519050919050565b6000602082019050919050565b6000602082019050919050565b600082825260208201905092915050565b600082825260208201905092915050565b600082825260208201905092915050565b600082825260208201905092915050565b600082825260208201905092915050565b600081905092915050565b600082825260208201905092915050565b600082825260208201905092915050565b6000614b2d82614c28565b9150614b3883614c28565b9250827fffffffffffffffffffffffffffffffffffffffffffffffffffffffffffffffff03821115614b6d57614b6c614dab565b5b828201905092915050565b6000614b8382614c28565b9150614b8e83614c28565b925082821015614ba157614ba0614dab565b5b828203905092915050565b6000614bb782614c08565b9050919050565b6000614bc982614c08565b9050919050565b60008115159050919050565b60007fffffffff0000000000000000000000000000000000000000000000000000000082169050919050565b600073ffffffffffffffffffffffffffffffffffffffff82169050919050565b6000819050919050565b600060ff82169050919050565b6000614c4a82614c51565b9050919050565b6000614c5c82614c08565b9050919050565b6000614c6e82614c75565b9050919050565b6000614c8082614c08565b9050919050565b6000614c9282614c99565b9050919050565b6000614ca482614c08565b9050919050565b6000614cb682614c32565b9050919050565b82818337600083830152505050565b60005b83811015614cea578082015181840152602081019050614ccf565b83811115614cf9576000848401525b50505050565b60006002820490506001821680614d1757607f821691505b60208210811415614d2b57614d2a614dda565b5b50919050565b614d3a82614e38565b810181811067ffffffffffffffff82111715614d5957614d58614e09565b5b80604052505050565b6000614d6d82614c28565b91507fffffffffffffffffffffffffffffffffffffffffffffffffffffffffffffffff821415614da057614d9f614dab565b5b600182019050919050565b7f4e487b7100000000000000000000000000000000000000000000000000000000600052601160045260246000fd5b7f4e487b7100000000000000000000000000000000000000000000000000000000600052602260045260246000fd5b7f4e487b7100000000000000000000000000000000000000000000000000000000600052604160045260246000fd5b6000601f19601f8301169050919050565b7f455243373231456e756d657261626c653a206f776e657220696e646578206f7560008201527f74206f6620626f756e6473000000000000000000000000000000000000000000602082015250565b7f4552433732313a207472616e7366657220746f206e6f6e20455243373231526560008201527f63656976657220696d706c656d656e7465720000000000000000000000000000602082015250565b7f546f6b656e206973206e6f74206d696e74656420796574000000000000000000600082015250565b7f4f776e61626c653a206e6577206f776e657220697320746865207a65726f206160008201527f6464726573730000000000000000000000000000000000000000000000000000602082015250565b7f4552433732313a20746f6b656e20616c7265616479206d696e74656400000000600082015250565b7f5769746864726177206661696c65640000000000000000000000000000000000600082015250565b7f4552433732313a207472616e7366657220746f20746865207a65726f2061646460008201527f7265737300000000000000000000000000000000000000000000000000000000602082015250565b7f4552433732313a20617070726f766520746f2063616c6c657200000000000000600082015250565b7f496e73756666696369656e742062616c616e6365000000000000000000000000600082015250565b7f4552433732313a206f70657261746f7220717565727920666f72206e6f6e657860008201527f697374656e7420746f6b656e0000000000000000000000000000000000000000602082015250565b7f4e6f7420796f757220537562646f6d61696e0000000000000000000000000000600082015250565b7f4552433732313a20617070726f76652063616c6c6572206973206e6f74206f7760008201527f6e6572206e6f7220617070726f76656420666f7220616c6c0000000000000000602082015250565b7f4552433732313a2062616c616e636520717565727920666f7220746865207a6560008201527f726f206164647265737300000000000000000000000000000000000000000000602082015250565b7f4552433732313a206f776e657220717565727920666f72206e6f6e657869737460008201527f656e7420746f6b656e0000000000000000000000000000000000000000000000602082015250565b7f4552433732313a206d696e7420746f20746865207a65726f2061646472657373600082015250565b7f4552433732313a20617070726f76656420717565727920666f72206e6f6e657860008201527f697374656e7420746f6b656e0000000000000000000000000000000000000000602082015250565b7f4f776e61626c653a2063616c6c6572206973206e6f7420746865206f776e6572600082015250565b7f546f6b656e20494420696e76616c696400000000000000000000000000000000600082015250565b7f4552433732313a207472616e73666572206f6620746f6b656e2074686174206960008201527f73206e6f74206f776e0000000000000000000000000000000000000000000000602082015250565b7f4552433732313a20617070726f76616c20746f2063757272656e74206f776e6560008201527f7200000000000000000000000000000000000000000000000000000000000000602082015250565b50565b7f546f6b656e20736f6c64206f7574000000000000000000000000000000000000600082015250565b7f4552433732313a207472616e736665722063616c6c6572206973206e6f74206f60008201527f776e6572206e6f7220617070726f766564000000000000000000000000000000602082015250565b7f455243373231456e756d657261626c653a20676c6f62616c20696e646578206f60008201527f7574206f6620626f756e64730000000000000000000000000000000000000000602082015250565b7f5265656e7472616e637947756172643a207265656e7472616e742063616c6c00600082015250565b61541b81614bac565b811461542657600080fd5b50565b61543281614bbe565b811461543d57600080fd5b50565b61544981614bd0565b811461545457600080fd5b50565b61546081614bdc565b811461546b57600080fd5b50565b61547781614c28565b811461548257600080fd5b50565b61548e81614c32565b811461549957600080fd5b5056fea2646970667358221220220ad03225b0a70136a1db6925677ea2e3e2b7e4cb18a3aa85a690e3ab75219864736f6c63430008040033",
  "linkReferences": {},
  "deployedLinkReferences": {}
}