{
  "_format": "hh-sol-artifact-1",
  "contractName": "SubdomainENS",
  "sourceName": "contracts/SubdomainENS.sol",
  "abi": [
    {
      "inputs": [
        {
          "internalType": "contract ENS",
          "name": "_ens",
          "type": "address"
        }
      ],
      "stateMutability": "nonpayable",
      "type": "constructor"
    },
    {
      "anonymous": false,
      "inputs": [
        {
          "indexed": true,
          "internalType": "address",
          "name": "owner",
          "type": "address"
        },
        {
          "indexed": true,
          "internalType": "address",
          "name": "approved",
          "type": "address"
        },
        {
          "indexed": true,
          "internalType": "uint256",
          "name": "tokenId",
          "type": "uint256"
        }
      ],
      "name": "Approval",
      "type": "event"
    },
    {
      "anonymous": false,
      "inputs": [
        {
          "indexed": true,
          "internalType": "address",
          "name": "owner",
          "type": "address"
        },
        {
          "indexed": true,
          "internalType": "address",
          "name": "operator",
          "type": "address"
        },
        {
          "indexed": false,
          "internalType": "bool",
          "name": "approved",
          "type": "bool"
        }
      ],
      "name": "ApprovalForAll",
      "type": "event"
    },
    {
      "anonymous": false,
      "inputs": [
        {
          "indexed": false,
          "internalType": "address",
          "name": "sender",
          "type": "address"
        },
        {
          "indexed": false,
          "internalType": "uint256",
          "name": "tokenId",
          "type": "uint256"
        }
      ],
      "name": "NewEpicNFTMinted",
      "type": "event"
    },
    {
      "anonymous": false,
      "inputs": [
        {
          "indexed": true,
          "internalType": "address",
          "name": "previousOwner",
          "type": "address"
        },
        {
          "indexed": true,
          "internalType": "address",
          "name": "newOwner",
          "type": "address"
        }
      ],
      "name": "OwnershipTransferred",
      "type": "event"
    },
    {
      "anonymous": false,
      "inputs": [
        {
          "indexed": true,
          "internalType": "address",
          "name": "from",
          "type": "address"
        },
        {
          "indexed": true,
          "internalType": "address",
          "name": "to",
          "type": "address"
        },
        {
          "indexed": true,
          "internalType": "uint256",
          "name": "tokenId",
          "type": "uint256"
        }
      ],
      "name": "Transfer",
      "type": "event"
    },
    {
      "inputs": [
        {
          "internalType": "address",
          "name": "to",
          "type": "address"
        },
        {
          "internalType": "uint256",
          "name": "tokenId",
          "type": "uint256"
        }
      ],
      "name": "approve",
      "outputs": [],
      "stateMutability": "nonpayable",
      "type": "function"
    },
    {
      "inputs": [
        {
          "internalType": "address",
          "name": "owner",
          "type": "address"
        }
      ],
      "name": "balanceOf",
      "outputs": [
        {
          "internalType": "uint256",
          "name": "",
          "type": "uint256"
        }
      ],
      "stateMutability": "view",
      "type": "function"
    },
    {
      "inputs": [
        {
          "internalType": "string",
          "name": "subdomain",
          "type": "string"
        }
      ],
      "name": "doregist",
      "outputs": [],
      "stateMutability": "payable",
      "type": "function"
    },
    {
      "inputs": [
        {
          "internalType": "uint256",
          "name": "tokenId",
          "type": "uint256"
        }
      ],
      "name": "getApproved",
      "outputs": [
        {
          "internalType": "address",
          "name": "",
          "type": "address"
        }
      ],
      "stateMutability": "view",
      "type": "function"
    },
    {
      "inputs": [
        {
          "internalType": "address",
          "name": "owner",
          "type": "address"
        }
      ],
      "name": "getOwnerDomain",
      "outputs": [
        {
          "internalType": "string",
          "name": "",
          "type": "string"
        }
      ],
      "stateMutability": "view",
      "type": "function"
    },
    {
      "inputs": [
        {
          "internalType": "address",
          "name": "owner",
          "type": "address"
        },
        {
          "internalType": "address",
          "name": "operator",
          "type": "address"
        }
      ],
      "name": "isApprovedForAll",
      "outputs": [
        {
          "internalType": "bool",
          "name": "",
          "type": "bool"
        }
      ],
      "stateMutability": "view",
      "type": "function"
    },
    {
      "inputs": [],
      "name": "name",
      "outputs": [
        {
          "internalType": "string",
          "name": "",
          "type": "string"
        }
      ],
      "stateMutability": "view",
      "type": "function"
    },
    {
      "inputs": [],
      "name": "owner",
      "outputs": [
        {
          "internalType": "address",
          "name": "",
          "type": "address"
        }
      ],
      "stateMutability": "view",
      "type": "function"
    },
    {
      "inputs": [
        {
          "internalType": "uint256",
          "name": "tokenId",
          "type": "uint256"
        }
      ],
      "name": "ownerOf",
      "outputs": [
        {
          "internalType": "address",
          "name": "",
          "type": "address"
        }
      ],
      "stateMutability": "view",
      "type": "function"
    },
    {
      "inputs": [],
      "name": "renounceOwnership",
      "outputs": [],
      "stateMutability": "nonpayable",
      "type": "function"
    },
    {
      "inputs": [
        {
          "internalType": "address",
          "name": "from",
          "type": "address"
        },
        {
          "internalType": "address",
          "name": "to",
          "type": "address"
        },
        {
          "internalType": "uint256",
          "name": "tokenId",
          "type": "uint256"
        }
      ],
      "name": "safeTransferFrom",
      "outputs": [],
      "stateMutability": "nonpayable",
      "type": "function"
    },
    {
      "inputs": [
        {
          "internalType": "address",
          "name": "from",
          "type": "address"
        },
        {
          "internalType": "address",
          "name": "to",
          "type": "address"
        },
        {
          "internalType": "uint256",
          "name": "tokenId",
          "type": "uint256"
        },
        {
          "internalType": "bytes",
          "name": "_data",
          "type": "bytes"
        }
      ],
      "name": "safeTransferFrom",
      "outputs": [],
      "stateMutability": "nonpayable",
      "type": "function"
    },
    {
      "inputs": [
        {
          "internalType": "address",
          "name": "operator",
          "type": "address"
        },
        {
          "internalType": "bool",
          "name": "approved",
          "type": "bool"
        }
      ],
      "name": "setApprovalForAll",
      "outputs": [],
      "stateMutability": "nonpayable",
      "type": "function"
    },
    {
      "inputs": [
        {
          "internalType": "bytes4",
          "name": "interfaceId",
          "type": "bytes4"
        }
      ],
      "name": "supportsInterface",
      "outputs": [
        {
          "internalType": "bool",
          "name": "",
          "type": "bool"
        }
      ],
      "stateMutability": "view",
      "type": "function"
    },
    {
      "inputs": [],
      "name": "symbol",
      "outputs": [
        {
          "internalType": "string",
          "name": "",
          "type": "string"
        }
      ],
      "stateMutability": "view",
      "type": "function"
    },
    {
      "inputs": [
        {
          "internalType": "uint256",
          "name": "tokenId",
          "type": "uint256"
        }
      ],
      "name": "tokenURI",
      "outputs": [
        {
          "internalType": "string",
          "name": "",
          "type": "string"
        }
      ],
      "stateMutability": "view",
      "type": "function"
    },
    {
      "inputs": [
        {
          "internalType": "address",
          "name": "from",
          "type": "address"
        },
        {
          "internalType": "address",
          "name": "to",
          "type": "address"
        },
        {
          "internalType": "uint256",
          "name": "tokenId",
          "type": "uint256"
        }
      ],
      "name": "transferFrom",
      "outputs": [],
      "stateMutability": "nonpayable",
      "type": "function"
    },
    {
      "inputs": [
        {
          "internalType": "address",
          "name": "newOwner",
          "type": "address"
        }
      ],
      "name": "transferOwnership",
      "outputs": [],
      "stateMutability": "nonpayable",
      "type": "function"
    },
    {
      "inputs": [
        {
          "internalType": "address payable",
          "name": "recipient",
          "type": "address"
        },
        {
          "internalType": "uint256",
          "name": "amount",
          "type": "uint256"
        }
      ],
      "name": "withdraw",
      "outputs": [],
      "stateMutability": "nonpayable",
      "type": "function"
    }
  ],
  "bytecode": "0x60806040527f93cdeb708b7545dc668eb9280176169d1c33cfd8ed6f04690a0bcc88a93fc4ae60001b600b5573f6305c19e814d2a75429fd637d01f7ee0e77d615600c60006101000a81548173ffffffffffffffffffffffffffffffffffffffff021916908373ffffffffffffffffffffffffffffffffffffffff1602179055507342d63ae25990889e35f215bc95884039ba354115600d60006101000a81548173ffffffffffffffffffffffffffffffffffffffff021916908373ffffffffffffffffffffffffffffffffffffffff1602179055506040518060c001604052806040518060400160405280600681526020017f633230383232000000000000000000000000000000000000000000000000000081525081526020016040518060400160405280600681526020017f303843324138000000000000000000000000000000000000000000000000000081525081526020016040518060400160405280600681526020017f303030303030000000000000000000000000000000000000000000000000000081525081526020016040518060400160405280600681526020017f613830386332000000000000000000000000000000000000000000000000000081525081526020016040518060400160405280600681526020017f303863326138000000000000000000000000000000000000000000000000000081525081526020016040518060400160405280600681526020017f303863326138000000000000000000000000000000000000000000000000000081525081525060129060066200025292919062000464565b503480156200026057600080fd5b50604051620066d4380380620066d4833981810160405281019062000286919062000600565b6040518060400160405280601581526020017f7068696c616e6420737562646f6d61696e204e465400000000000000000000008152506040518060400160405280600781526020017f454e53434152440000000000000000000000000000000000000000000000000081525081600090805190602001906200030a929190620004cb565b50806001908051906020019062000323929190620004cb565b50505060016007819055506200034e620003426200039660201b60201c565b6200039e60201b60201c565b80600a60006101000a81548173ffffffffffffffffffffffffffffffffffffffff021916908373ffffffffffffffffffffffffffffffffffffffff16021790555050620006f3565b600033905090565b6000600860009054906101000a900473ffffffffffffffffffffffffffffffffffffffff16905081600860006101000a81548173ffffffffffffffffffffffffffffffffffffffff021916908373ffffffffffffffffffffffffffffffffffffffff1602179055508173ffffffffffffffffffffffffffffffffffffffff168173ffffffffffffffffffffffffffffffffffffffff167f8be0079c531659141344cd1fd0a4f28419497f9722a3daafe3b4186f6b6457e060405160405180910390a35050565b828054828255906000526020600020908101928215620004b8579160200282015b82811115620004b7578251829080519060200190620004a6929190620004cb565b509160200191906001019062000485565b5b509050620004c791906200055c565b5090565b828054620004d99062000674565b90600052602060002090601f016020900481019282620004fd576000855562000549565b82601f106200051857805160ff191683800117855562000549565b8280016001018555821562000549579182015b82811115620005485782518255916020019190600101906200052b565b5b50905062000558919062000584565b5090565b5b80821115620005805760008181620005769190620005a3565b506001016200055d565b5090565b5b808211156200059f57600081600090555060010162000585565b5090565b508054620005b19062000674565b6000825580601f10620005c55750620005e6565b601f016020900490600052602060002090810190620005e5919062000584565b5b50565b600081519050620005fa81620006d9565b92915050565b6000602082840312156200061357600080fd5b60006200062384828501620005e9565b91505092915050565b6000620006398262000654565b9050919050565b60006200064d826200062c565b9050919050565b600073ffffffffffffffffffffffffffffffffffffffff82169050919050565b600060028204905060018216806200068d57607f821691505b60208210811415620006a457620006a3620006aa565b5b50919050565b7f4e487b7100000000000000000000000000000000000000000000000000000000600052602260045260246000fd5b620006e48162000640565b8114620006f057600080fd5b50565b615fd180620007036000396000f3fe6080604052600436106101145760003560e01c80638da5cb5b116100a0578063c87b56dd11610064578063c87b56dd146103af578063d0ef6040146103ec578063e985e9c514610408578063f2fde38b14610445578063f3fef3a31461046e57610114565b80638da5cb5b146102ca57806395d89b41146102f5578063a19af05614610320578063a22cb4651461035d578063b88d4fde1461038657610114565b806323b872dd116100e757806323b872dd146101e757806342842e0e146102105780636352211e1461023957806370a0823114610276578063715018a6146102b357610114565b806301ffc9a71461011957806306fdde0314610156578063081812fc14610181578063095ea7b3146101be575b600080fd5b34801561012557600080fd5b50610140600480360381019061013b9190612e29565b610497565b60405161014d9190613f1a565b60405180910390f35b34801561016257600080fd5b5061016b610579565b6040516101789190613fda565b60405180910390f35b34801561018d57600080fd5b506101a860048036038101906101a39190612ec0565b61060b565b6040516101b59190613e8a565b60405180910390f35b3480156101ca57600080fd5b506101e560048036038101906101e09190612dc4565b610690565b005b3480156101f357600080fd5b5061020e60048036038101906102099190612cbe565b6107a8565b005b34801561021c57600080fd5b5061023760048036038101906102329190612cbe565b610808565b005b34801561024557600080fd5b50610260600480360381019061025b9190612ec0565b610828565b60405161026d9190613e8a565b60405180910390f35b34801561028257600080fd5b5061029d60048036038101906102989190612bf4565b6108da565b6040516102aa91906142bc565b60405180910390f35b3480156102bf57600080fd5b506102c8610992565b005b3480156102d657600080fd5b506102df610a1a565b6040516102ec9190613e8a565b60405180910390f35b34801561030157600080fd5b5061030a610a44565b6040516103179190613fda565b60405180910390f35b34801561032c57600080fd5b5061034760048036038101906103429190612bf4565b610ad6565b6040516103549190613fda565b60405180910390f35b34801561036957600080fd5b50610384600480360381019061037f9190612d88565b610ba7565b005b34801561039257600080fd5b506103ad60048036038101906103a89190612d0d565b610bbd565b005b3480156103bb57600080fd5b506103d660048036038101906103d19190612ec0565b610c1f565b6040516103e39190613fda565b60405180910390f35b61040660048036038101906104019190612e7b565b610d71565b005b34801561041457600080fd5b5061042f600480360381019061042a9190612c82565b611320565b60405161043c9190613f1a565b60405180910390f35b34801561045157600080fd5b5061046c60048036038101906104679190612bf4565b6113b4565b005b34801561047a57600080fd5b5061049560048036038101906104909190612c46565b6114ac565b005b60007f80ac58cd000000000000000000000000000000000000000000000000000000007bffffffffffffffffffffffffffffffffffffffffffffffffffffffff1916827bffffffffffffffffffffffffffffffffffffffffffffffffffffffff1916148061056257507f5b5e139f000000000000000000000000000000000000000000000000000000007bffffffffffffffffffffffffffffffffffffffffffffffffffffffff1916827bffffffffffffffffffffffffffffffffffffffffffffffffffffffff1916145b80610572575061057182611672565b5b9050919050565b60606000805461058890614588565b80601f01602080910402602001604051908101604052809291908181526020018280546105b490614588565b80156106015780601f106105d657610100808354040283529160200191610601565b820191906000526020600020905b8154815290600101906020018083116105e457829003601f168201915b5050505050905090565b6000610616826116dc565b610655576040517f08c379a000000000000000000000000000000000000000000000000000000000815260040161064c906141bc565b60405180910390fd5b6004600083815260200190815260200160002060009054906101000a900473ffffffffffffffffffffffffffffffffffffffff169050919050565b600061069b82611748565b90508073ffffffffffffffffffffffffffffffffffffffff168373ffffffffffffffffffffffffffffffffffffffff16141561070c576040517f08c379a00000000000000000000000000000000000000000000000000000000081526004016107039061423c565b60405180910390fd5b8073ffffffffffffffffffffffffffffffffffffffff1661072b6117fa565b73ffffffffffffffffffffffffffffffffffffffff16148061075a5750610759816107546117fa565b611320565b5b610799576040517f08c379a0000000000000000000000000000000000000000000000000000000008152600401610790906140fc565b60405180910390fd5b6107a38383611802565b505050565b6107b96107b36117fa565b826118bb565b6107f8576040517f08c379a00000000000000000000000000000000000000000000000000000000081526004016107ef9061425c565b60405180910390fd5b610803838383611999565b505050565b61082383838360405180602001604052806000815250610bbd565b505050565b600080600e600084815260200190815260200160002060009054906101000a900473ffffffffffffffffffffffffffffffffffffffff169050600073ffffffffffffffffffffffffffffffffffffffff168173ffffffffffffffffffffffffffffffffffffffff1614156108d1576040517f08c379a00000000000000000000000000000000000000000000000000000000081526004016108c89061413c565b60405180910390fd5b80915050919050565b60008073ffffffffffffffffffffffffffffffffffffffff168273ffffffffffffffffffffffffffffffffffffffff16141561094b576040517f08c379a00000000000000000000000000000000000000000000000000000000081526004016109429061411c565b60405180910390fd5b600360008373ffffffffffffffffffffffffffffffffffffffff1673ffffffffffffffffffffffffffffffffffffffff168152602001908152602001600020549050919050565b61099a6117fa565b73ffffffffffffffffffffffffffffffffffffffff166109b8610a1a565b73ffffffffffffffffffffffffffffffffffffffff1614610a0e576040517f08c379a0000000000000000000000000000000000000000000000000000000008152600401610a05906141dc565b60405180910390fd5b610a186000611bf5565b565b6000600860009054906101000a900473ffffffffffffffffffffffffffffffffffffffff16905090565b606060018054610a5390614588565b80601f0160208091040260200160405190810160405280929190818152602001828054610a7f90614588565b8015610acc5780601f10610aa157610100808354040283529160200191610acc565b820191906000526020600020905b815481529060010190602001808311610aaf57829003601f168201915b5050505050905090565b6060600f60008373ffffffffffffffffffffffffffffffffffffffff1673ffffffffffffffffffffffffffffffffffffffff1681526020019081526020016000208054610b2290614588565b80601f0160208091040260200160405190810160405280929190818152602001828054610b4e90614588565b8015610b9b5780601f10610b7057610100808354040283529160200191610b9b565b820191906000526020600020905b815481529060010190602001808311610b7e57829003601f168201915b50505050509050919050565b610bb9610bb26117fa565b8383611cbb565b5050565b610bce610bc86117fa565b836118bb565b610c0d576040517f08c379a0000000000000000000000000000000000000000000000000000000008152600401610c049061425c565b60405180910390fd5b610c1984848484611e28565b50505050565b6060610c2a826116dc565b610c69576040517f08c379a0000000000000000000000000000000000000000000000000000000008152600401610c609061419c565b60405180910390fd5b6000600660008481526020019081526020016000208054610c8990614588565b80601f0160208091040260200160405190810160405280929190818152602001828054610cb590614588565b8015610d025780601f10610cd757610100808354040283529160200191610d02565b820191906000526020600020905b815481529060010190602001808311610ce557829003601f168201915b505050505090506000610d13611e84565b9050600081511415610d29578192505050610d6c565b600082511115610d5e578082604051602001610d46929190613a85565b60405160208183030381529060405292505050610d6c565b610d6784611e9b565b925050505b919050565b60026007541415610db7576040517f08c379a0000000000000000000000000000000000000000000000000000000008152600401610dae9061427c565b60405180910390fd5b60026007819055506000610dcb6009611f42565b905060006040518060400160405280600781526020017f7068696c616e640000000000000000000000000000000000000000000000000081525090506000848483604051602001610e1e93929190613a32565b60405160208183030381529060405290506000610e43610e3d85611f50565b8361206e565b90506000604051806080016040528060568152602001615f466056913990506000610eb984610e94858588604051602001610e8093929190613aa9565b6040516020818303038152906040526120e0565b604051602001610ea5929190613c1d565b6040516020818303038152906040526120e0565b9050600b548580519060200120604051602001610ed79291906139ed565b604051602081830303815290604052805190602001206010819055506010548888604051610f06929190613a19565b6040518091039020604051602001610f1f9291906139ed565b60405160208183030381529060405280519060200120601181905550600073ffffffffffffffffffffffffffffffffffffffff16600a60009054906101000a900473ffffffffffffffffffffffffffffffffffffffff1673ffffffffffffffffffffffffffffffffffffffff166302571be36011546040518263ffffffff1660e01b8152600401610fb09190613f35565b60206040518083038186803b158015610fc857600080fd5b505afa158015610fdc573d6000803e3d6000fd5b505050506040513d601f19601f820116820180604052508101906110009190612c1d565b73ffffffffffffffffffffffffffffffffffffffff1614611056576040517f08c379a000000000000000000000000000000000000000000000000000000000815260040161104d9061429c565b60405180910390fd5b600a60009054906101000a900473ffffffffffffffffffffffffffffffffffffffff1673ffffffffffffffffffffffffffffffffffffffff16635ef2c7f06010548a8a6040516110a7929190613a19565b604051809103902033600d60009054906101000a900473ffffffffffffffffffffffffffffffffffffffff1660006040518663ffffffff1660e01b81526004016110f5959493929190613f87565b600060405180830381600087803b15801561110f57600080fd5b505af1158015611123573d6000803e3d6000fd5b50505050600a60009054906101000a900473ffffffffffffffffffffffffffffffffffffffff1673ffffffffffffffffffffffffffffffffffffffff166306ab59236010548a8a604051611178929190613a19565b6040518091039020336040518463ffffffff1660e01b815260040161119f93929190613f50565b602060405180830381600087803b1580156111b957600080fd5b505af11580156111cd573d6000803e3d6000fd5b505050506040513d601f19601f820116820180604052508101906111f19190612e00565b506111fc338761229e565b61122586826040516020016112119190613c62565b6040516020818303038152906040526122bc565b83600f60003373ffffffffffffffffffffffffffffffffffffffff1673ffffffffffffffffffffffffffffffffffffffff16815260200190815260200160002090805190602001906112789291906129f7565b5033600e600088815260200190815260200160002060006101000a81548173ffffffffffffffffffffffffffffffffffffffff021916908373ffffffffffffffffffffffffffffffffffffffff1602179055506112d56009612330565b7febb98688741ffa4c7589bf325de30cf7becb63de567842e1ccdb6cb949fdc82c3387604051611306929190613ef1565b60405180910390a150505050505060016007819055505050565b6000600560008473ffffffffffffffffffffffffffffffffffffffff1673ffffffffffffffffffffffffffffffffffffffff16815260200190815260200160002060008373ffffffffffffffffffffffffffffffffffffffff1673ffffffffffffffffffffffffffffffffffffffff16815260200190815260200160002060009054906101000a900460ff16905092915050565b6113bc6117fa565b73ffffffffffffffffffffffffffffffffffffffff166113da610a1a565b73ffffffffffffffffffffffffffffffffffffffff1614611430576040517f08c379a0000000000000000000000000000000000000000000000000000000008152600401611427906141dc565b60405180910390fd5b600073ffffffffffffffffffffffffffffffffffffffff168173ffffffffffffffffffffffffffffffffffffffff1614156114a0576040517f08c379a00000000000000000000000000000000000000000000000000000000081526004016114979061401c565b60405180910390fd5b6114a981611bf5565b50565b600260075414156114f2576040517f08c379a00000000000000000000000000000000000000000000000000000000081526004016114e99061427c565b60405180910390fd5b60026007819055506115026117fa565b73ffffffffffffffffffffffffffffffffffffffff16611520610a1a565b73ffffffffffffffffffffffffffffffffffffffff1614611576576040517f08c379a000000000000000000000000000000000000000000000000000000000815260040161156d906141dc565b60405180910390fd5b804710156115b9576040517f08c379a00000000000000000000000000000000000000000000000000000000081526004016115b0906140bc565b60405180910390fd5b60008273ffffffffffffffffffffffffffffffffffffffff16826040516115df90613c84565b60006040518083038185875af1925050503d806000811461161c576040519150601f19603f3d011682016040523d82523d6000602084013e611621565b606091505b5050905080611665576040517f08c379a000000000000000000000000000000000000000000000000000000000815260040161165c9061405c565b60405180910390fd5b5060016007819055505050565b60007f01ffc9a7000000000000000000000000000000000000000000000000000000007bffffffffffffffffffffffffffffffffffffffffffffffffffffffff1916827bffffffffffffffffffffffffffffffffffffffffffffffffffffffff1916149050919050565b60008073ffffffffffffffffffffffffffffffffffffffff166002600084815260200190815260200160002060009054906101000a900473ffffffffffffffffffffffffffffffffffffffff1673ffffffffffffffffffffffffffffffffffffffff1614159050919050565b6000806002600084815260200190815260200160002060009054906101000a900473ffffffffffffffffffffffffffffffffffffffff169050600073ffffffffffffffffffffffffffffffffffffffff168173ffffffffffffffffffffffffffffffffffffffff1614156117f1576040517f08c379a00000000000000000000000000000000000000000000000000000000081526004016117e89061413c565b60405180910390fd5b80915050919050565b600033905090565b816004600083815260200190815260200160002060006101000a81548173ffffffffffffffffffffffffffffffffffffffff021916908373ffffffffffffffffffffffffffffffffffffffff160217905550808273ffffffffffffffffffffffffffffffffffffffff1661187583611748565b73ffffffffffffffffffffffffffffffffffffffff167f8c5be1e5ebec7d5bd14f71427d1e84f3dd0314c0f7b2291e5b200ac8c7c3b92560405160405180910390a45050565b60006118c6826116dc565b611905576040517f08c379a00000000000000000000000000000000000000000000000000000000081526004016118fc906140dc565b60405180910390fd5b600061191083611748565b90508073ffffffffffffffffffffffffffffffffffffffff168473ffffffffffffffffffffffffffffffffffffffff16148061197f57508373ffffffffffffffffffffffffffffffffffffffff166119678461060b565b73ffffffffffffffffffffffffffffffffffffffff16145b80611990575061198f8185611320565b5b91505092915050565b8273ffffffffffffffffffffffffffffffffffffffff166119b982611748565b73ffffffffffffffffffffffffffffffffffffffff1614611a0f576040517f08c379a0000000000000000000000000000000000000000000000000000000008152600401611a06906141fc565b60405180910390fd5b600073ffffffffffffffffffffffffffffffffffffffff168273ffffffffffffffffffffffffffffffffffffffff161415611a7f576040517f08c379a0000000000000000000000000000000000000000000000000000000008152600401611a769061407c565b60405180910390fd5b611a8a838383612346565b611a95600082611802565b6001600360008573ffffffffffffffffffffffffffffffffffffffff1673ffffffffffffffffffffffffffffffffffffffff1681526020019081526020016000206000828254611ae5919061445c565b925050819055506001600360008473ffffffffffffffffffffffffffffffffffffffff1673ffffffffffffffffffffffffffffffffffffffff1681526020019081526020016000206000828254611b3c919061437b565b92505081905550816002600083815260200190815260200160002060006101000a81548173ffffffffffffffffffffffffffffffffffffffff021916908373ffffffffffffffffffffffffffffffffffffffff160217905550808273ffffffffffffffffffffffffffffffffffffffff168473ffffffffffffffffffffffffffffffffffffffff167fddf252ad1be2c89b69c2b068fc378daa952ba7f163c4a11628f55a4df523b3ef60405160405180910390a4505050565b6000600860009054906101000a900473ffffffffffffffffffffffffffffffffffffffff16905081600860006101000a81548173ffffffffffffffffffffffffffffffffffffffff021916908373ffffffffffffffffffffffffffffffffffffffff1602179055508173ffffffffffffffffffffffffffffffffffffffff168173ffffffffffffffffffffffffffffffffffffffff167f8be0079c531659141344cd1fd0a4f28419497f9722a3daafe3b4186f6b6457e060405160405180910390a35050565b8173ffffffffffffffffffffffffffffffffffffffff168373ffffffffffffffffffffffffffffffffffffffff161415611d2a576040517f08c379a0000000000000000000000000000000000000000000000000000000008152600401611d219061409c565b60405180910390fd5b80600560008573ffffffffffffffffffffffffffffffffffffffff1673ffffffffffffffffffffffffffffffffffffffff16815260200190815260200160002060008473ffffffffffffffffffffffffffffffffffffffff1673ffffffffffffffffffffffffffffffffffffffff16815260200190815260200160002060006101000a81548160ff0219169083151502179055508173ffffffffffffffffffffffffffffffffffffffff168373ffffffffffffffffffffffffffffffffffffffff167f17307eab39ab6107e8899845ad3d59bd9653f200f220920489ca2b5937696c3183604051611e1b9190613f1a565b60405180910390a3505050565b611e33848484611999565b611e3f8484848461234b565b611e7e576040517f08c379a0000000000000000000000000000000000000000000000000000000008152600401611e7590613ffc565b60405180910390fd5b50505050565b606060405180602001604052806000815250905090565b6060611ea6826116dc565b611ee5576040517f08c379a0000000000000000000000000000000000000000000000000000000008152600401611edc9061421c565b60405180910390fd5b6000611eef611e84565b90506000815111611f0f5760405180602001604052806000815250611f3a565b80611f19846124e2565b604051602001611f2a929190613a85565b6040516020818303038152906040525b915050919050565b600081600001549050919050565b60606000611f84611f60846124e2565b604051602001611f709190613e68565b60405160208183030381529060405261268f565b905060128054905081611f97919061463e565b905060128181548110611fd3577f4e487b7100000000000000000000000000000000000000000000000000000000600052603260045260246000fd5b906000526020600020018054611fe890614588565b80601f016020809104026020016040519081016040528092919081815260200182805461201490614588565b80156120615780601f1061203657610100808354040283529160200191612061565b820191906000526020600020905b81548152906001019060200180831161204457829003601f168201915b5050505050915050919050565b60606120af6040518060400160405280600681526020017f6563666463630000000000000000000000000000000000000000000000000000815250846126c2565b6120b883612790565b6040516020016120c9929190613a85565b604051602081830303815290604052905092915050565b606060008251905060008114156121095760405180602001604052806000815250915050612299565b6000600360028361211a919061437b565b61212491906143d1565b60046121309190614402565b90506000602082612141919061437b565b67ffffffffffffffff811115612180577f4e487b7100000000000000000000000000000000000000000000000000000000600052604160045260246000fd5b6040519080825280601f01601f1916602001820160405280156121b25781602001600182028036833780820191505090505b5090506000604051806060016040528060408152602001615f06604091399050600181016020830160005b868110156122565760038101905062ffffff818a015116603f8160121c168401518060081b905060ff603f83600c1c1686015116810190508060081b905060ff603f8360061c1686015116810190508060081b905060ff603f831686015116810190508060e01b905080845260048401935050506121dd565b50600386066001811461227057600281146122805761228b565b613d3d60f01b600283035261228b565b603d60f81b60018303525b508484525050819450505050505b919050565b6122b88282604051806020016040528060008152506127bb565b5050565b6122c5826116dc565b612304576040517f08c379a00000000000000000000000000000000000000000000000000000000081526004016122fb9061415c565b60405180910390fd5b8060066000848152602001908152602001600020908051906020019061232b9291906129f7565b505050565b6001816000016000828254019250508190555050565b505050565b600061236c8473ffffffffffffffffffffffffffffffffffffffff16612816565b156124d5578373ffffffffffffffffffffffffffffffffffffffff1663150b7a026123956117fa565b8786866040518563ffffffff1660e01b81526004016123b79493929190613ea5565b602060405180830381600087803b1580156123d157600080fd5b505af192505050801561240257506040513d601f19601f820116820180604052508101906123ff9190612e52565b60015b612485573d8060008114612432576040519150601f19603f3d011682016040523d82523d6000602084013e612437565b606091505b5060008151141561247d576040517f08c379a000000000000000000000000000000000000000000000000000000000815260040161247490613ffc565b60405180910390fd5b805181602001fd5b63150b7a0260e01b7bffffffffffffffffffffffffffffffffffffffffffffffffffffffff1916817bffffffffffffffffffffffffffffffffffffffffffffffffffffffff1916149150506124da565b600190505b949350505050565b6060600082141561252a576040518060400160405280600181526020017f3000000000000000000000000000000000000000000000000000000000000000815250905061268a565b600082905060005b6000821461255c578080612545906145eb565b915050600a8261255591906143d1565b9150612532565b60008167ffffffffffffffff81111561259e577f4e487b7100000000000000000000000000000000000000000000000000000000600052604160045260246000fd5b6040519080825280601f01601f1916602001820160405280156125d05781602001600182028036833780820191505090505b5090505b60008514612683576001826125e9919061445c565b9150600a856125f8919061463e565b6030612604919061437b565b60f81b818381518110612640577f4e487b7100000000000000000000000000000000000000000000000000000000600052603260045260246000fd5b60200101907effffffffffffffffffffffffffffffffffffffffffffffffffffffffffffff1916908160001a905350600a8561267c91906143d1565b94506125d4565b8093505050505b919050565b6000816040516020016126a29190613a6e565b6040516020818303038152906040528051906020012060001c9050919050565b60606126ec836040516020016126d89190613bf0565b6040516020818303038152906040526120e0565b612714836040516020016127009190613ae5565b6040516020818303038152906040526120e0565b61273c856040516020016127289190613b3e565b6040516020818303038152906040526120e0565b612764856040516020016127509190613b97565b6040516020818303038152906040526120e0565b86604051602001612779959493929190613c99565b604051602081830303815290604052905092915050565b606081826040516020016127a5929190613dcb565b6040516020818303038152906040529050919050565b6127c58383612829565b6127d2600084848461234b565b612811576040517f08c379a000000000000000000000000000000000000000000000000000000000815260040161280890613ffc565b60405180910390fd5b505050565b600080823b905060008111915050919050565b600073ffffffffffffffffffffffffffffffffffffffff168273ffffffffffffffffffffffffffffffffffffffff161415612899576040517f08c379a00000000000000000000000000000000000000000000000000000000081526004016128909061417c565b60405180910390fd5b6128a2816116dc565b156128e2576040517f08c379a00000000000000000000000000000000000000000000000000000000081526004016128d99061403c565b60405180910390fd5b6128ee60008383612346565b6001600360008473ffffffffffffffffffffffffffffffffffffffff1673ffffffffffffffffffffffffffffffffffffffff168152602001908152602001600020600082825461293e919061437b565b92505081905550816002600083815260200190815260200160002060006101000a81548173ffffffffffffffffffffffffffffffffffffffff021916908373ffffffffffffffffffffffffffffffffffffffff160217905550808273ffffffffffffffffffffffffffffffffffffffff16600073ffffffffffffffffffffffffffffffffffffffff167fddf252ad1be2c89b69c2b068fc378daa952ba7f163c4a11628f55a4df523b3ef60405160405180910390a45050565b828054612a0390614588565b90600052602060002090601f016020900481019282612a255760008555612a6c565b82601f10612a3e57805160ff1916838001178555612a6c565b82800160010185558215612a6c579182015b82811115612a6b578251825591602001919060010190612a50565b5b509050612a799190612a7d565b5090565b5b80821115612a96576000816000905550600101612a7e565b5090565b6000612aad612aa8846142fc565b6142d7565b905082815260208101848484011115612ac557600080fd5b612ad0848285614546565b509392505050565b600081359050612ae781615e7b565b92915050565b600081519050612afc81615e7b565b92915050565b600081359050612b1181615e92565b92915050565b600081359050612b2681615ea9565b92915050565b600081519050612b3b81615ec0565b92915050565b600081359050612b5081615ed7565b92915050565b600081519050612b6581615ed7565b92915050565b600082601f830112612b7c57600080fd5b8135612b8c848260208601612a9a565b91505092915050565b60008083601f840112612ba757600080fd5b8235905067ffffffffffffffff811115612bc057600080fd5b602083019150836001820283011115612bd857600080fd5b9250929050565b600081359050612bee81615eee565b92915050565b600060208284031215612c0657600080fd5b6000612c1484828501612ad8565b91505092915050565b600060208284031215612c2f57600080fd5b6000612c3d84828501612aed565b91505092915050565b60008060408385031215612c5957600080fd5b6000612c6785828601612b02565b9250506020612c7885828601612bdf565b9150509250929050565b60008060408385031215612c9557600080fd5b6000612ca385828601612ad8565b9250506020612cb485828601612ad8565b9150509250929050565b600080600060608486031215612cd357600080fd5b6000612ce186828701612ad8565b9350506020612cf286828701612ad8565b9250506040612d0386828701612bdf565b9150509250925092565b60008060008060808587031215612d2357600080fd5b6000612d3187828801612ad8565b9450506020612d4287828801612ad8565b9350506040612d5387828801612bdf565b925050606085013567ffffffffffffffff811115612d7057600080fd5b612d7c87828801612b6b565b91505092959194509250565b60008060408385031215612d9b57600080fd5b6000612da985828601612ad8565b9250506020612dba85828601612b17565b9150509250929050565b60008060408385031215612dd757600080fd5b6000612de585828601612ad8565b9250506020612df685828601612bdf565b9150509250929050565b600060208284031215612e1257600080fd5b6000612e2084828501612b2c565b91505092915050565b600060208284031215612e3b57600080fd5b6000612e4984828501612b41565b91505092915050565b600060208284031215612e6457600080fd5b6000612e7284828501612b56565b91505092915050565b60008060208385031215612e8e57600080fd5b600083013567ffffffffffffffff811115612ea857600080fd5b612eb485828601612b95565b92509250509250929050565b600060208284031215612ed257600080fd5b6000612ee084828501612bdf565b91505092915050565b612ef281614490565b82525050565b612f01816144b4565b82525050565b612f10816144c0565b82525050565b612f27612f22826144c0565b614634565b82525050565b6000612f398385614354565b9350612f46838584614546565b82840190509392505050565b6000612f5d8261432d565b612f678185614343565b9350612f77818560208601614555565b612f808161472b565b840191505092915050565b612f9481614534565b82525050565b6000612fa68385614370565b9350612fb3838584614546565b82840190509392505050565b6000612fca82614338565b612fd4818561435f565b9350612fe4818560208601614555565b612fed8161472b565b840191505092915050565b600061300382614338565b61300d8185614370565b935061301d818560208601614555565b80840191505092915050565b6000613036608b83614370565b91506130418261473c565b608b82019050919050565b6000613059600183614370565b9150613064826147fd565b600182019050919050565b600061307c606383614370565b915061308782614826565b606382019050919050565b600061309f603b83614370565b91506130aa826148c1565b603b82019050919050565b60006130c2608583614370565b91506130cd82614910565b608582019050919050565b60006130e560328361435f565b91506130f0826149d1565b604082019050919050565b6000613108605d83614370565b915061311382614a20565b605d82019050919050565b600061312b60268361435f565b915061313682614a95565b604082019050919050565b600061314e601c8361435f565b915061315982614ae4565b602082019050919050565b6000613171600f8361435f565b915061317c82614b0d565b602082019050919050565b6000613194600483614370565b915061319f82614b36565b600482019050919050565b60006131b760248361435f565b91506131c282614b5f565b604082019050919050565b60006131da60198361435f565b91506131e582614bae565b602082019050919050565b60006131fd605d83614370565b915061320882614bd7565b605d82019050919050565b600061322060148361435f565b915061322b82614c4c565b602082019050919050565b6000613243609983614370565b915061324e82614c75565b609982019050919050565b6000613266604e83614370565b915061327182614d36565b604e82019050919050565b6000613289607f83614370565b915061329482614dab565b607f82019050919050565b60006132ac602c8361435f565b91506132b782614e46565b604082019050919050565b60006132cf607983614370565b91506132da82614e95565b607982019050919050565b60006132f2607d83614370565b91506132fd82614f30565b607d82019050919050565b6000613315600d83614370565b915061332082614fcb565b600d82019050919050565b6000613338604b83614370565b915061334382614ff4565b604b82019050919050565b600061335b606983614370565b915061336682615069565b606982019050919050565b600061337e600983614370565b915061338982615104565b600982019050919050565b60006133a160388361435f565b91506133ac8261512d565b604082019050919050565b60006133c4600183614370565b91506133cf8261517c565b600182019050919050565b60006133e7600483614370565b91506133f2826151a5565b600482019050919050565b600061340a603e83614370565b9150613415826151ce565b603e82019050919050565b600061342d602a8361435f565b91506134388261521d565b604082019050919050565b600061345060298361435f565b915061345b8261526c565b604082019050919050565b6000613473602e8361435f565b915061347e826152bb565b604082019050919050565b6000613496603183614370565b91506134a18261530a565b603182019050919050565b60006134b9605283614370565b91506134c482615359565b605282019050919050565b60006134dc600283614370565b91506134e7826153ce565b600282019050919050565b60006134ff600c83614370565b915061350a826153f7565b600c82019050919050565b6000613522602c83614370565b915061352d82615420565b602c82019050919050565b600061354560208361435f565b91506135508261546f565b602082019050919050565b6000613568600383614370565b915061357382615498565b600382019050919050565b600061358b60318361435f565b9150613596826154c1565b604082019050919050565b60006135ae602c8361435f565b91506135b982615510565b604082019050919050565b60006135d160a383614370565b91506135dc8261555f565b60a382019050919050565b60006135f460208361435f565b91506135ff82615646565b602082019050919050565b600061361760298361435f565b91506136228261566f565b604082019050919050565b600061363a608183614370565b9150613645826156be565b608182019050919050565b600061365d602f8361435f565b91506136688261577f565b604082019050919050565b6000613680600483614370565b915061368b826157ce565b600482019050919050565b60006136a3600a83614370565b91506136ae826157f7565b600a82019050919050565b60006136c6605283614370565b91506136d182615820565b605282019050919050565b60006136e960218361435f565b91506136f482615895565b604082019050919050565b600061370c607b83614370565b9150613717826158e4565b607b82019050919050565b600061372f601d83614370565b915061373a8261597f565b601d82019050919050565b6000613752600783614370565b915061375d826159a8565b600782019050919050565b6000613775600683614370565b9150613780826159d1565b600682019050919050565b6000613798600083614354565b91506137a3826159fa565b600082019050919050565b60006137bb603e83614370565b91506137c6826159fd565b603e82019050919050565b60006137de60318361435f565b91506137e982615a4c565b604082019050919050565b6000613801600683614370565b915061380c82615a9b565b600682019050919050565b6000613824605d83614370565b915061382f82615ac4565b605d82019050919050565b6000613847605683614370565b915061385282615b39565b605682019050919050565b600061386a601383614370565b915061387582615bae565b601382019050919050565b600061388d608683614370565b915061389882615bd7565b608682019050919050565b60006138b0602583614370565b91506138bb82615c98565b602582019050919050565b60006138d3600583614370565b91506138de82615ce7565b600582019050919050565b60006138f6601f8361435f565b915061390182615d10565b602082019050919050565b6000613919601383614370565b915061392482615d39565b601382019050919050565b600061393c601d83614370565b915061394782615d62565b601d82019050919050565b600061395f604183614370565b915061396a82615d8b565b604182019050919050565b6000613982600383614370565b915061398d82615e00565b600382019050919050565b60006139a5601383614370565b91506139b082615e29565b601382019050919050565b60006139c8600e8361435f565b91506139d382615e52565b602082019050919050565b6139e781614516565b82525050565b60006139f98285612f16565b602082019150613a098284612f16565b6020820191508190509392505050565b6000613a26828486612f2d565b91508190509392505050565b6000613a3f828587612f9a565b9150613a4a826133b7565b9150613a568284612ff8565b9150613a6182613187565b9150819050949350505050565b6000613a7a8284612ff8565b915081905092915050565b6000613a918285612ff8565b9150613a9d8284612ff8565b91508190509392505050565b6000613ab58286612ff8565b9150613ac18285612ff8565b9150613acd8284612ff8565b9150613ad882613308565b9150819050949350505050565b6000613af08261306f565b9150613afb8261304c565b9150613b0682613768565b9150613b118261355b565b9150613b1c8261390c565b9150613b288284612ff8565b9150613b3382613371565b915081905092915050565b6000613b498261306f565b9150613b548261355b565b9150613b5f82613768565b9150613b6a8261355b565b9150613b758261390c565b9150613b818284612ff8565b9150613b8c82613371565b915081905092915050565b6000613ba28261306f565b9150613bad8261355b565b9150613bb882613768565b9150613bc382613975565b9150613bce82613998565b9150613bda8284612ff8565b9150613be582613371565b915081905092915050565b6000613bfb8261362d565b9150613c078284612ff8565b9150613c1282613371565b915081905092915050565b6000613c2882613696565b9150613c348285612ff8565b9150613c3f826136b9565b9150613c4b8284612ff8565b9150613c56826134cf565b91508190509392505050565b6000613c6d82613722565b9150613c798284612ff8565b915081905092915050565b6000613c8f8261378b565b9150819050919050565b6000613ca48261383a565b9150613caf82613515565b9150613cba826137f4565b9150613cc58261332b565b9150613cd18288612ff8565b9150613cdc826137ae565b9150613ce88287612ff8565b9150613cf3826133fd565b9150613cff8286612ff8565b9150613d0a826133da565b9150613d1582613092565b9150613d218285612ff8565b9150613d2c82613236565b9150613d378261327c565b9150613d428261334e565b9150613d4d82613817565b9150613d5882613745565b9150613d638261392f565b9150613d6e826134f2565b9150613d7a8284612ff8565b9150613d8582613489565b9150613d9082613259565b9150613d9b826131f0565b9150613da682613952565b9150613db1826134ac565b9150613dbc82613673565b91508190509695505050505050565b6000613dd6826138a3565b9150613de1826132e5565b9150613ded8285612ff8565b9150613df8826132c2565b9150613e0382613880565b9150613e0f8284612ff8565b9150613e1a826130b5565b9150613e25826136ff565b9150613e308261385d565b9150613e3b826130fb565b9150613e46826135c4565b9150613e518261385d565b9150613e5c82613029565b91508190509392505050565b6000613e73826138c6565b9150613e7f8284612ff8565b915081905092915050565b6000602082019050613e9f6000830184612ee9565b92915050565b6000608082019050613eba6000830187612ee9565b613ec76020830186612ee9565b613ed460408301856139de565b8181036060830152613ee68184612f52565b905095945050505050565b6000604082019050613f066000830185612ee9565b613f1360208301846139de565b9392505050565b6000602082019050613f2f6000830184612ef8565b92915050565b6000602082019050613f4a6000830184612f07565b92915050565b6000606082019050613f656000830186612f07565b613f726020830185612f07565b613f7f6040830184612ee9565b949350505050565b600060a082019050613f9c6000830188612f07565b613fa96020830187612f07565b613fb66040830186612ee9565b613fc36060830185612ee9565b613fd06080830184612f8b565b9695505050505050565b60006020820190508181036000830152613ff48184612fbf565b905092915050565b60006020820190508181036000830152614015816130d8565b9050919050565b600060208201905081810360008301526140358161311e565b9050919050565b6000602082019050818103600083015261405581613141565b9050919050565b6000602082019050818103600083015261407581613164565b9050919050565b60006020820190508181036000830152614095816131aa565b9050919050565b600060208201905081810360008301526140b5816131cd565b9050919050565b600060208201905081810360008301526140d581613213565b9050919050565b600060208201905081810360008301526140f58161329f565b9050919050565b6000602082019050818103600083015261411581613394565b9050919050565b6000602082019050818103600083015261413581613420565b9050919050565b6000602082019050818103600083015261415581613443565b9050919050565b6000602082019050818103600083015261417581613466565b9050919050565b6000602082019050818103600083015261419581613538565b9050919050565b600060208201905081810360008301526141b58161357e565b9050919050565b600060208201905081810360008301526141d5816135a1565b9050919050565b600060208201905081810360008301526141f5816135e7565b9050919050565b600060208201905081810360008301526142158161360a565b9050919050565b6000602082019050818103600083015261423581613650565b9050919050565b60006020820190508181036000830152614255816136dc565b9050919050565b60006020820190508181036000830152614275816137d1565b9050919050565b60006020820190508181036000830152614295816138e9565b9050919050565b600060208201905081810360008301526142b5816139bb565b9050919050565b60006020820190506142d160008301846139de565b92915050565b60006142e16142f2565b90506142ed82826145ba565b919050565b6000604051905090565b600067ffffffffffffffff821115614317576143166146fc565b5b6143208261472b565b9050602081019050919050565b600081519050919050565b600081519050919050565b600082825260208201905092915050565b600081905092915050565b600082825260208201905092915050565b600081905092915050565b600061438682614516565b915061439183614516565b9250827fffffffffffffffffffffffffffffffffffffffffffffffffffffffffffffffff038211156143c6576143c561466f565b5b828201905092915050565b60006143dc82614516565b91506143e783614516565b9250826143f7576143f661469e565b5b828204905092915050565b600061440d82614516565b915061441883614516565b9250817fffffffffffffffffffffffffffffffffffffffffffffffffffffffffffffffff04831182151516156144515761445061466f565b5b828202905092915050565b600061446782614516565b915061447283614516565b9250828210156144855761448461466f565b5b828203905092915050565b600061449b826144f6565b9050919050565b60006144ad826144f6565b9050919050565b60008115159050919050565b6000819050919050565b60007fffffffff0000000000000000000000000000000000000000000000000000000082169050919050565b600073ffffffffffffffffffffffffffffffffffffffff82169050919050565b6000819050919050565b600067ffffffffffffffff82169050919050565b600061453f82614520565b9050919050565b82818337600083830152505050565b60005b83811015614573578082015181840152602081019050614558565b83811115614582576000848401525b50505050565b600060028204905060018216806145a057607f821691505b602082108114156145b4576145b36146cd565b5b50919050565b6145c38261472b565b810181811067ffffffffffffffff821117156145e2576145e16146fc565b5b80604052505050565b60006145f682614516565b91507fffffffffffffffffffffffffffffffffffffffffffffffffffffffffffffffff8214156146295761462861466f565b5b600182019050919050565b6000819050919050565b600061464982614516565b915061465483614516565b9250826146645761466361469e565b5b828206905092915050565b7f4e487b7100000000000000000000000000000000000000000000000000000000600052601160045260246000fd5b7f4e487b7100000000000000000000000000000000000000000000000000000000600052601260045260246000fd5b7f4e487b7100000000000000000000000000000000000000000000000000000000600052602260045260246000fd5b7f4e487b7100000000000000000000000000000000000000000000000000000000600052604160045260246000fd5b6000601f19601f8301169050919050565b7f203c616e696d6174652061646469746976653d2273756d22206174747269627560008201527f74654e616d653d2273746172744f6666736574222066726f6d3d22302522207460208201527f6f3d22313030252220626567696e3d22307322206475723d223330732220726560408201527f70656174436f756e743d22696e646566696e69746522202f3e3c2f746578745060608201527f6174683e3c2f746578743e000000000000000000000000000000000000000000608082015250565b7f3000000000000000000000000000000000000000000000000000000000000000600082015250565b7f3c7376672077696474683d2735303027206865696768743d273239302720766960008201527f6577426f783d2730203020353030203239302720786d6c6e733d27687474703a60208201527f2f2f7777772e77332e6f72672f323030302f737667273e3c636972636c65206360408201527f783d270000000000000000000000000000000000000000000000000000000000606082015250565b7f3c6665496d61676520726573756c743d2270332220786c696e6b3a687265663d60008201527f22646174613a696d6167652f7376672b786d6c3b6261736536342c0000000000602082015250565b7f203c616e696d6174652061646469746976653d2273756d22206174747269627560008201527f74654e616d653d2273746172744f6666736574222066726f6d3d22302522207460208201527f6f3d22313030252220626567696e3d22307322206475723d223330732220726560408201527f70656174436f756e743d22696e646566696e69746522202f3e203c2f7465787460608201527f506174683e000000000000000000000000000000000000000000000000000000608082015250565b7f4552433732313a207472616e7366657220746f206e6f6e20455243373231526560008201527f63656976657220696d706c656d656e7465720000000000000000000000000000602082015250565b7f203c616e696d6174652061646469746976653d2273756d22206174747269627560008201527f74654e616d653d2273746172744f6666736574222066726f6d3d22302522207460208201527f6f3d22313030252220626567696e3d22307322206475723d2233307322000000604082015250565b7f4f776e61626c653a206e6577206f776e657220697320746865207a65726f206160008201527f6464726573730000000000000000000000000000000000000000000000000000602082015250565b7f4552433732313a20746f6b656e20616c7265616479206d696e74656400000000600082015250565b7f5769746864726177206661696c65640000000000000000000000000000000000600082015250565b7f2e65746800000000000000000000000000000000000000000000000000000000600082015250565b7f4552433732313a207472616e7366657220746f20746865207a65726f2061646460008201527f7265737300000000000000000000000000000000000000000000000000000000602082015250565b7f4552433732313a20617070726f766520746f2063616c6c657200000000000000600082015250565b7f203c67207374796c653d2266696c7465723a75726c2823746f702d726567696f60008201527f6e2d626c7572293b207472616e73666f726d3a7363616c6528312e35293b207460208201527f72616e73666f726d2d6f726967696e3a63656e74657220746f703b223e000000604082015250565b7f496e73756666696369656e742062616c616e6365000000000000000000000000600082015250565b7f22202f3e3c6665426c656e64206d6f64653d226f7665726c61792220696e3d2260008201527f70302220696e323d22703122202f3e3c6665426c656e64206d6f64653d22657860208201527f636c7573696f6e2220696e323d22703222202f3e3c6665426c656e64206d6f6460408201527f653d226f7665726c61792220696e323d2270332220726573756c743d22626c6560608201527f6e644f757422202f3e3c6665476175737369616e426c75722000000000000000608082015250565b7f3c72656374207374796c653d2266696c7465723a2075726c282366312922207860008201527f3d223070782220793d22307078222077696474683d223530307078222068656960208201527f6768743d22323930707822202f3e000000000000000000000000000000000000604082015250565b7f696e3d22626c656e644f75742220737464446576696174696f6e3d223432222060008201527f2f3e3c2f66696c7465723e203c636c6970506174682069643d22636f726e657260208201527f73223e3c726563742077696474683d2235303022206865696768743d2232393060408201527f222072783d223432222072793d22343222202f3e3c2f636c6970506174683e00606082015250565b7f4552433732313a206f70657261746f7220717565727920666f72206e6f6e657860008201527f697374656e7420746f6b656e0000000000000000000000000000000000000000602082015250565b7f203c616e696d6174652061646469746976653d2273756d22206174747269627560008201527f74654e616d653d2273746172744f6666736574222066726f6d3d22302522207460208201527f6f3d22313030252220626567696e3d22307322206475723d223330732220726560408201527f70656174436f756e743d22696e646566696e69746522202f3e00000000000000606082015250565b7f3c74657874506174682073746172744f66667365743d222d313030252220666960008201527f6c6c3d2277686974652220666f6e742d66616d696c793d2227436f757269657260208201527f204e6577272c206d6f6e6f73706163652220666f6e742d73697a653d2231307060408201527f782220786c696e6b3a687265663d2223746578742d706174682d61223e000000606082015250565b7f3c2f746578743e3c2f7376673e00000000000000000000000000000000000000600082015250565b7f3c66696c7465722069643d226631223e3c6665496d61676520726573756c743d60008201527f2270302220786c696e6b3a687265663d22646174613a696d6167652f7376672b60208201527f786d6c3b6261736536342c000000000000000000000000000000000000000000604082015250565b7f3c706174682069643d22746578742d706174682d612220643d224d343535203160008201527f4833344c31342031324c31203334563234354c3134203235384c33342032373060208201527f483436304c343734203235384c343835203234355633344c3437342031324c3460408201527f353520315a22202f3e0000000000000000000000000000000000000000000000606082015250565b7f272f3e3c2f7376673e0000000000000000000000000000000000000000000000600082015250565b7f4552433732313a20617070726f76652063616c6c6572206973206e6f74206f7760008201527f6e6572206e6f7220617070726f76656420666f7220616c6c0000000000000000602082015250565b7f2e00000000000000000000000000000000000000000000000000000000000000600082015250565b7f22202f3e00000000000000000000000000000000000000000000000000000000600082015250565b7f222f3e3c6665496d61676520726573756c743d2270322220786c696e6b3a687260008201527f65663d22646174613a696d6167652f7376672b786d6c3b6261736536342c0000602082015250565b7f4552433732313a2062616c616e636520717565727920666f7220746865207a6560008201527f726f206164647265737300000000000000000000000000000000000000000000602082015250565b7f4552433732313a206f776e657220717565727920666f72206e6f6e657869737460008201527f656e7420746f6b656e0000000000000000000000000000000000000000000000602082015250565b7f45524337323155524953746f726167653a2055524920736574206f66206e6f6e60008201527f6578697374656e7420746f6b656e000000000000000000000000000000000000602082015250565b7f2220783d223070782220793d22307078222077696474683d223530307078222060008201527f6865696768743d22323930707822202f3e000000000000000000000000000000602082015250565b7f3c656c6c697073652063783d22353025222063793d22307078222072783d223160008201527f38307078222072793d223132307078222066696c6c3d222330303022206f706160208201527f636974793d22302e383522202f3e3c2f673e0000000000000000000000000000604082015250565b7f227d000000000000000000000000000000000000000000000000000000000000600082015250565b7f3c726563742066696c6c3d220000000000000000000000000000000000000000600082015250565b7f20786d6c6e733a786c696e6b3d27687474703a2f2f7777772e77332e6f72672f60008201527f313939392f786c696e6b273e0000000000000000000000000000000000000000602082015250565b7f4552433732313a206d696e7420746f20746865207a65726f2061646472657373600082015250565b7f3130300000000000000000000000000000000000000000000000000000000000600082015250565b7f45524337323155524953746f726167653a2055524920717565727920666f722060008201527f6e6f6e6578697374656e7420746f6b656e000000000000000000000000000000602082015250565b7f4552433732313a20617070726f76656420717565727920666f72206e6f6e657860008201527f697374656e7420746f6b656e0000000000000000000000000000000000000000602082015250565b7f20726570656174436f756e743d22696e646566696e69746522202f3e3c2f746560008201527f7874506174683e3c74657874506174682073746172744f66667365743d222d3560208201527f3025222066696c6c3d2277686974652220666f6e742d66616d696c793d22274360408201527f6f7572696572204e6577272c206d6f6e6f73706163652220666f6e742d73697a60608201527f653d22313070782220786c696e6b3a687265663d2223746578742d706174682d60808201527f61223e000000000000000000000000000000000000000000000000000000000060a082015250565b7f4f776e61626c653a2063616c6c6572206973206e6f7420746865206f776e6572600082015250565b7f4552433732313a207472616e73666572206f6620746f6b656e2074686174206960008201527f73206e6f74206f776e0000000000000000000000000000000000000000000000602082015250565b7f3c7376672077696474683d2735303027206865696768743d273239302720766960008201527f6577426f783d2730203020353030203239302720786d6c6e733d27687474703a60208201527f2f2f7777772e77332e6f72672f323030302f737667273e3c726563742077696460408201527f74683d27353030707827206865696768743d273239307078272066696c6c3d2760608201527f2300000000000000000000000000000000000000000000000000000000000000608082015250565b7f4552433732314d657461646174613a2055524920717565727920666f72206e6f60008201527f6e6578697374656e7420746f6b656e0000000000000000000000000000000000602082015250565b7f3c2f673e00000000000000000000000000000000000000000000000000000000600082015250565b7f7b226e616d65223a202200000000000000000000000000000000000000000000600082015250565b7f222c20226465736372697074696f6e223a20224120636f6c6c656374696f6e2060008201527f6f66207068696c616e642e222c2022696d616765223a2022646174613a696d6160208201527f67652f7376672b786d6c3b6261736536342c0000000000000000000000000000604082015250565b7f4552433732313a20617070726f76616c20746f2063757272656e74206f776e6560008201527f7200000000000000000000000000000000000000000000000000000000000000602082015250565b7f3c74657874506174682073746172744f66667365743d22353025222066696c6c60008201527f3d2277686974652220666f6e742d66616d696c793d2227436f7572696572204e60208201527f6577272c206d6f6e6f73706163652220666f6e742d73697a653d22313070782260408201527f20786c696e6b3a687265663d2223746578742d706174682d61223e0000000000606082015250565b7f646174613a6170706c69636174696f6e2f6a736f6e3b6261736536342c000000600082015250565b7f3c2f646566733e00000000000000000000000000000000000000000000000000600082015250565b7f272063793d270000000000000000000000000000000000000000000000000000600082015250565b50565b7f222f3e3c6665496d61676520726573756c743d2270312220786c696e6b3a687260008201527f65663d22646174613a696d6167652f7376672b786d6c3b6261736536342c0000602082015250565b7f4552433732313a207472616e736665722063616c6c6572206973206e6f74206f60008201527f776e6572206e6f7220617070726f766564000000000000000000000000000000602082015250565b7f3c646566733e0000000000000000000000000000000000000000000000000000600082015250565b7f3c66696c7465722069643d22746f702d726567696f6e2d626c7572223e3c666560008201527f476175737369616e426c757220696e3d22536f7572636547726170686963222060208201527f737464446576696174696f6e3d22323422202f3e3c2f66696c7465723e000000604082015250565b7f3c7376672077696474683d2235303022206865696768743d223239302220766960008201527f6577426f783d2230203020353030203239302220786d6c6e733d22687474703a60208201527f2f2f7777772e77332e6f72672f323030302f7376672200000000000000000000604082015250565b7f4e46544861636b323032322f7068696c616e6400000000000000000000000000600082015250565b7f3c2f74657874506174683e203c74657874506174682073746172744f6666736560008201527f743d223025222066696c6c3d2277686974652220666f6e742d66616d696c793d60208201527f2227436f7572696572204e6577272c206d6f6e6f73706163652220666f6e742d60408201527f73697a653d22313070782220786c696e6b3a687265663d2223746578742d706160608201527f74682d61223e0000000000000000000000000000000000000000000000000000608082015250565b7f3c7465787420746578742d72656e646572696e673d226f7074696d697a65537060008201527f656564223e000000000000000000000000000000000000000000000000000000602082015250565b7f434f4c4f52000000000000000000000000000000000000000000000000000000600082015250565b7f5265656e7472616e637947756172643a207265656e7472616e742063616c6c00600082015250565b7f2720723d273132307078272066696c6c3d272300000000000000000000000000600082015250565b7f3c6720636c69702d706174683d2275726c2823636f726e65727329223e000000600082015250565b7f3c726563742066696c6c3d226e6f6e652220783d223070782220793d2230707860008201527f222077696474683d22353030707822206865696768743d22323930707822202f60208201527f3e00000000000000000000000000000000000000000000000000000000000000604082015250565b7f3230300000000000000000000000000000000000000000000000000000000000600082015250565b7f2720723d273130307078272066696c6c3d272300000000000000000000000000600082015250565b7f616c7265616479206d696e746564000000000000000000000000000000000000600082015250565b615e8481614490565b8114615e8f57600080fd5b50565b615e9b816144a2565b8114615ea657600080fd5b50565b615eb2816144b4565b8114615ebd57600080fd5b50565b615ec9816144c0565b8114615ed457600080fd5b50565b615ee0816144ca565b8114615eeb57600080fd5b50565b615ef781614516565b8114615f0257600080fd5b5056fe4142434445464748494a4b4c4d4e4f505152535455565758595a6162636465666768696a6b6c6d6e6f707172737475767778797a303132333435363738392b2f272f3e3c7465787420783d273530252720793d273530252720636c6173733d27626173652720646f6d696e616e742d626173656c696e653d276d6964646c652720746578742d616e63686f723d276d6964646c65273ea26469706673582212202fdfb4bb9287d54da7ba5d18fd6ca286ebb92f7f7381d6fa617583aa9d6db99664736f6c63430008040033",
  "linkReferences": {},
  "deployedLinkReferences": {}
}